{
  "contractName": "CAP",
  "abi": [
    {
      "constant": true,
      "inputs": [],
      "name": "name",
      "outputs": [
        {
          "name": "_name",
          "type": "string"
        }
      ],
      "payable": false,
      "stateMutability": "view",
      "type": "function"
    },
    {
      "constant": true,
      "inputs": [],
      "name": "totalSupply",
      "outputs": [
        {
          "name": "_totalSupply",
          "type": "uint256"
        }
      ],
      "payable": false,
      "stateMutability": "view",
      "type": "function"
    },
    {
      "constant": true,
      "inputs": [],
      "name": "decimals",
      "outputs": [
        {
          "name": "_decimals",
          "type": "uint8"
        }
      ],
      "payable": false,
      "stateMutability": "view",
      "type": "function"
    },
    {
      "constant": true,
      "inputs": [
        {
          "name": "_owner",
          "type": "address"
        }
      ],
      "name": "balanceOf",
      "outputs": [
        {
          "name": "balance",
          "type": "uint256"
        }
      ],
      "payable": false,
      "stateMutability": "view",
      "type": "function"
    },
    {
      "constant": true,
      "inputs": [],
      "name": "symbol",
      "outputs": [
        {
          "name": "_symbol",
          "type": "string"
        }
      ],
      "payable": false,
      "stateMutability": "view",
      "type": "function"
    },
    {
      "constant": false,
      "inputs": [
        {
          "name": "_to",
          "type": "address"
        },
        {
          "name": "_value",
          "type": "uint256"
        }
      ],
      "name": "transfer",
      "outputs": [
        {
          "name": "success",
          "type": "bool"
        }
      ],
      "payable": false,
      "stateMutability": "nonpayable",
      "type": "function"
    },
    {
      "constant": false,
      "inputs": [
        {
          "name": "_to",
          "type": "address"
        },
        {
          "name": "_value",
          "type": "uint256"
        },
        {
          "name": "_data",
          "type": "bytes"
        }
      ],
      "name": "transfer",
      "outputs": [
        {
          "name": "success",
          "type": "bool"
        }
      ],
      "payable": false,
      "stateMutability": "nonpayable",
      "type": "function"
    },
    {
      "constant": false,
      "inputs": [
        {
          "name": "_to",
          "type": "address"
        },
        {
          "name": "_value",
          "type": "uint256"
        },
        {
          "name": "_data",
          "type": "bytes"
        },
        {
          "name": "_custom_fallback",
          "type": "string"
        }
      ],
      "name": "transfer",
      "outputs": [
        {
          "name": "success",
          "type": "bool"
        }
      ],
      "payable": false,
      "stateMutability": "nonpayable",
      "type": "function"
    },
    {
      "inputs": [],
      "payable": false,
      "stateMutability": "nonpayable",
      "type": "constructor"
    },
    {
      "anonymous": false,
      "inputs": [
        {
          "indexed": true,
          "name": "from",
          "type": "address"
        },
        {
          "indexed": true,
          "name": "to",
          "type": "address"
        },
        {
          "indexed": false,
          "name": "value",
          "type": "uint256"
        },
        {
          "indexed": false,
          "name": "data",
          "type": "bytes"
        }
      ],
      "name": "Transfer",
      "type": "event"
    }
  ],
  "bytecode": "0x608060405234801561001057600080fd5b506012600460006101000a81548160ff021916908360ff1602179055506b033b2e3c9fd0803ce80000006005819055506040805190810160405280600e81526020017f4341504f2044657820546f6b656e0000000000000000000000000000000000008152506002908051906020019061008b929190610123565b506040805190810160405280600381526020017f4341500000000000000000000000000000000000000000000000000000000000815250600390805190602001906100d7929190610123565b50600554600160003373ffffffffffffffffffffffffffffffffffffffff1673ffffffffffffffffffffffffffffffffffffffff168152602001908152602001600020819055506101c8565b828054600181600116156101000203166002900490600052602060002090601f016020900481019282601f1061016457805160ff1916838001178555610192565b82800160010185558215610192579182015b82811115610191578251825591602001919060010190610176565b5b50905061019f91906101a3565b5090565b6101c591905b808211156101c15760008160009055506001016101a9565b5090565b90565b610ea180620001d86000396000f30060806040526004361061008e576000357c0100000000000000000000000000000000000000000000000000000000900463ffffffff16806306fdde031461009357806318160ddd14610123578063313ce5671461014e57806370a082311461017f57806395d89b41146101d6578063a9059cbb14610266578063be45fd62146102cb578063f6368f8a14610376575b600080fd5b34801561009f57600080fd5b506100a8610467565b6040518080602001828103825283818151815260200191508051906020019080838360005b838110156100e85780820151818401526020810190506100cd565b50505050905090810190601f1680156101155780820380516001836020036101000a031916815260200191505b509250505060405180910390f35b34801561012f57600080fd5b50610138610509565b6040518082815260200191505060405180910390f35b34801561015a57600080fd5b50610163610513565b604051808260ff1660ff16815260200191505060405180910390f35b34801561018b57600080fd5b506101c0600480360381019080803573ffffffffffffffffffffffffffffffffffffffff16906020019092919050505061052a565b6040518082815260200191505060405180910390f35b3480156101e257600080fd5b506101eb610573565b6040518080602001828103825283818151815260200191508051906020019080838360005b8381101561022b578082015181840152602081019050610210565b50505050905090810190601f1680156102585780820380516001836020036101000a031916815260200191505b509250505060405180910390f35b34801561027257600080fd5b506102b1600480360381019080803573ffffffffffffffffffffffffffffffffffffffff16906020019092919080359060200190929190505050610615565b604051808215151515815260200191505060405180910390f35b3480156102d757600080fd5b5061035c600480360381019080803573ffffffffffffffffffffffffffffffffffffffff16906020019092919080359060200190929190803590602001908201803590602001908080601f016020809104026020016040519081016040528093929190818152602001838380828437820191505050505050919291929050505061064e565b604051808215151515815260200191505060405180910390f35b34801561038257600080fd5b5061044d600480360381019080803573ffffffffffffffffffffffffffffffffffffffff16906020019092919080359060200190929190803590602001908201803590602001908080601f0160208091040260200160405190810160405280939291908181526020018383808284378201915050505050509192919290803590602001908201803590602001908080601f0160208091040260200160405190810160405280939291908181526020018383808284378201915050505050509192919290505050610685565b604051808215151515815260200191505060405180910390f35b606060028054600181600116156101000203166002900480601f0160208091040260200160405190810160405280929190818152602001828054600181600116156101000203166002900480156104ff5780601f106104d4576101008083540402835291602001916104ff565b820191906000526020600020905b8154815290600101906020018083116104e257829003601f168201915b5050505050905090565b6000600554905090565b6000600460009054906101000a900460ff16905090565b6000600160008373ffffffffffffffffffffffffffffffffffffffff1673ffffffffffffffffffffffffffffffffffffffff168152602001908152602001600020549050919050565b606060038054600181600116156101000203166002900480601f01602080910402602001604051908101604052809291908181526020018280546001816001161561010002031660029004801561060b5780601f106105e05761010080835404028352916020019161060b565b820191906000526020600020905b8154815290600101906020018083116105ee57829003601f168201915b5050505050905090565b60006060610622846109c2565b15610639576106328484836109d5565b9150610647565b610644848483610ca0565b91505b5092915050565b6000610659846109c2565b15610670576106698484846109d5565b905061067e565b61067b848484610ca0565b90505b9392505050565b6000610690856109c2565b156109ac578361069f3361052a565b10156106aa57600080fd5b6106bc6106b63361052a565b85610e3e565b600160003373ffffffffffffffffffffffffffffffffffffffff1673ffffffffffffffffffffffffffffffffffffffff1681526020019081526020016000208190555061071161070b8661052a565b85610e57565b600160008773ffffffffffffffffffffffffffffffffffffffff1673ffffffffffffffffffffffffffffffffffffffff168152602001908152602001600020819055508473ffffffffffffffffffffffffffffffffffffffff166000836040518082805190602001908083835b6020831015156107a3578051825260208201915060208101905060208303925061077e565b6001836020036101000a03801982511681845116808217855250505050505090500191505060405180910390207c01000000000000000000000000000000000000000000000000000000009004903387876040518563ffffffff167c0100000000000000000000000000000000000000000000000000000000028152600401808473ffffffffffffffffffffffffffffffffffffffff1673ffffffffffffffffffffffffffffffffffffffff168152602001838152602001828051906020019080838360005b83811015610884578082015181840152602081019050610869565b50505050905090810190601f1680156108b15780820380516001836020036101000a031916815260200191505b50935050505060006040518083038185885af1935050505015156108d157fe5b8473ffffffffffffffffffffffffffffffffffffffff163373ffffffffffffffffffffffffffffffffffffffff167fe19260aff97b920c7df27010903aeb9c8d2be5d310a2c67824cf3f15396e4c1686866040518083815260200180602001828103825283818151815260200191508051906020019080838360005b8381101561096857808201518184015260208101905061094d565b50505050905090810190601f1680156109955780820380516001836020036101000a031916815260200191505b50935050505060405180910390a3600190506109ba565b6109b7858585610ca0565b90505b949350505050565b600080823b905060008111915050919050565b600080836109e23361052a565b10156109ed57600080fd5b6109ff6109f93361052a565b85610e3e565b600160003373ffffffffffffffffffffffffffffffffffffffff1673ffffffffffffffffffffffffffffffffffffffff16815260200190815260200160002081905550610a54610a4e8661052a565b85610e57565b600160008773ffffffffffffffffffffffffffffffffffffffff1673ffffffffffffffffffffffffffffffffffffffff168152602001908152602001600020819055508490508073ffffffffffffffffffffffffffffffffffffffff1663c0ee0b8a3386866040518463ffffffff167c0100000000000000000000000000000000000000000000000000000000028152600401808473ffffffffffffffffffffffffffffffffffffffff1673ffffffffffffffffffffffffffffffffffffffff16815260200183815260200180602001828103825283818151815260200191508051906020019080838360005b83811015610b5c578082015181840152602081019050610b41565b50505050905090810190601f168015610b895780820380516001836020036101000a031916815260200191505b50945050505050600060405180830381600087803b158015610baa57600080fd5b505af1158015610bbe573d6000803e3d6000fd5b505050508473ffffffffffffffffffffffffffffffffffffffff163373ffffffffffffffffffffffffffffffffffffffff167fe19260aff97b920c7df27010903aeb9c8d2be5d310a2c67824cf3f15396e4c1686866040518083815260200180602001828103825283818151815260200191508051906020019080838360005b83811015610c59578082015181840152602081019050610c3e565b50505050905090810190601f168015610c865780820380516001836020036101000a031916815260200191505b50935050505060405180910390a360019150509392505050565b600082610cac3361052a565b1015610cb757600080fd5b610cc9610cc33361052a565b84610e3e565b600160003373ffffffffffffffffffffffffffffffffffffffff1673ffffffffffffffffffffffffffffffffffffffff16815260200190815260200160002081905550610d1e610d188561052a565b84610e57565b600160008673ffffffffffffffffffffffffffffffffffffffff1673ffffffffffffffffffffffffffffffffffffffff168152602001908152602001600020819055508373ffffffffffffffffffffffffffffffffffffffff163373ffffffffffffffffffffffffffffffffffffffff167fe19260aff97b920c7df27010903aeb9c8d2be5d310a2c67824cf3f15396e4c1685856040518083815260200180602001828103825283818151815260200191508051906020019080838360005b83811015610df8578082015181840152602081019050610ddd565b50505050905090810190601f168015610e255780820380516001836020036101000a031916815260200191505b50935050505060405180910390a3600190509392505050565b6000828211151515610e4c57fe5b818303905092915050565b6000808284019050838110151515610e6b57fe5b80915050929150505600a165627a7a72305820fcc90b1f580c806d0526e55be9690c199f01e9ac4bdfb41870659ce89c15e1f40029",
  "source": "pragma solidity ^0.4.9;\n\nimport \"./ERC223_Token.sol\";\n\ncontract CAP is ERC223Token {\n    function CAP() {\n    \tdecimals = 18;\n    \ttotalSupply = 10**27; // 1 billion tokens, 18 decimal places\n    \tname = \"CAPO Dex Token\";\n    \tsymbol = \"CAP\";\n    \tbalances[msg.sender] = totalSupply;\n    }\t\n}\n\n\n",
  "sourcePath": "/Users/duongkhong/Documents/Projects/coincapo/smartcontracts/contracts/Token/CAP.sol",
  "compiler": {
    "name": "solc",
    "version": "0.4.24+commit.e67f0147.Emscripten.clang"
  },
  "schemaVersion": "2.0.0",
  "updatedAt": "2018-06-19T08:39:29.110Z"
}