{
  "contractName": "CAPO",
  "abi": [
    {
      "constant": true,
      "inputs": [
        {
          "name": "addr",
          "type": "address"
        },
        {
          "name": "roleName",
          "type": "string"
        }
      ],
      "name": "checkRole",
      "outputs": [],
      "payable": false,
      "stateMutability": "view",
      "type": "function"
    },
    {
      "constant": true,
      "inputs": [],
      "name": "ROLE_RELAYER",
      "outputs": [
        {
          "name": "",
          "type": "string"
        }
      ],
      "payable": false,
      "stateMutability": "view",
      "type": "function"
    },
    {
      "constant": true,
      "inputs": [
        {
          "name": "addr",
          "type": "address"
        },
        {
          "name": "roleName",
          "type": "string"
        }
      ],
      "name": "hasRole",
      "outputs": [
        {
          "name": "",
          "type": "bool"
        }
      ],
      "payable": false,
      "stateMutability": "view",
      "type": "function"
    },
    {
      "constant": true,
      "inputs": [],
      "name": "rate",
      "outputs": [
        {
          "name": "",
          "type": "uint256"
        }
      ],
      "payable": false,
      "stateMutability": "view",
      "type": "function"
    },
    {
      "constant": true,
      "inputs": [],
      "name": "dayEnd",
      "outputs": [
        {
          "name": "",
          "type": "uint256"
        }
      ],
      "payable": false,
      "stateMutability": "view",
      "type": "function"
    },
    {
      "constant": true,
      "inputs": [],
      "name": "totalInvest",
      "outputs": [
        {
          "name": "",
          "type": "uint256"
        }
      ],
      "payable": false,
      "stateMutability": "view",
      "type": "function"
    },
    {
      "constant": false,
      "inputs": [],
      "name": "renounceOwnership",
      "outputs": [],
      "payable": false,
      "stateMutability": "nonpayable",
      "type": "function"
    },
    {
      "constant": true,
      "inputs": [],
      "name": "ROLE_HOLDER",
      "outputs": [
        {
          "name": "",
          "type": "string"
        }
      ],
      "payable": false,
      "stateMutability": "view",
      "type": "function"
    },
    {
      "constant": true,
      "inputs": [],
      "name": "totalWeiInvest",
      "outputs": [
        {
          "name": "",
          "type": "uint256"
        }
      ],
      "payable": false,
      "stateMutability": "view",
      "type": "function"
    },
    {
      "constant": true,
      "inputs": [],
      "name": "owner",
      "outputs": [
        {
          "name": "",
          "type": "address"
        }
      ],
      "payable": false,
      "stateMutability": "view",
      "type": "function"
    },
    {
      "constant": true,
      "inputs": [],
      "name": "dayStart",
      "outputs": [
        {
          "name": "",
          "type": "uint256"
        }
      ],
      "payable": false,
      "stateMutability": "view",
      "type": "function"
    },
    {
      "constant": true,
      "inputs": [],
      "name": "ROLE_ADMIN",
      "outputs": [
        {
          "name": "",
          "type": "string"
        }
      ],
      "payable": false,
      "stateMutability": "view",
      "type": "function"
    },
    {
      "constant": false,
      "inputs": [
        {
          "name": "_newOwner",
          "type": "address"
        }
      ],
      "name": "transferOwnership",
      "outputs": [],
      "payable": false,
      "stateMutability": "nonpayable",
      "type": "function"
    },
    {
      "inputs": [
        {
          "name": "_dayStart",
          "type": "uint256"
        },
        {
          "name": "_dayEnd",
          "type": "uint256"
        },
        {
          "name": "_rate",
          "type": "uint256"
        }
      ],
      "payable": false,
      "stateMutability": "nonpayable",
      "type": "constructor"
    },
    {
      "payable": true,
      "stateMutability": "payable",
      "type": "fallback"
    },
    {
      "anonymous": false,
      "inputs": [
        {
          "indexed": true,
          "name": "_from",
          "type": "address"
        },
        {
          "indexed": false,
          "name": "_amount",
          "type": "uint256"
        },
        {
          "indexed": false,
          "name": "_time",
          "type": "uint256"
        }
      ],
      "name": "Park",
      "type": "event"
    },
    {
      "anonymous": false,
      "inputs": [
        {
          "indexed": true,
          "name": "_from",
          "type": "address"
        },
        {
          "indexed": false,
          "name": "_wei",
          "type": "uint256"
        },
        {
          "indexed": false,
          "name": "_amount",
          "type": "uint256"
        },
        {
          "indexed": false,
          "name": "_time",
          "type": "uint256"
        }
      ],
      "name": "DirectPark",
      "type": "event"
    },
    {
      "anonymous": false,
      "inputs": [
        {
          "indexed": true,
          "name": "_to",
          "type": "address"
        },
        {
          "indexed": false,
          "name": "relayer",
          "type": "bool"
        },
        {
          "indexed": false,
          "name": "_amount",
          "type": "uint256"
        },
        {
          "indexed": false,
          "name": "_time",
          "type": "uint256"
        }
      ],
      "name": "UnPark",
      "type": "event"
    },
    {
      "anonymous": false,
      "inputs": [
        {
          "indexed": true,
          "name": "_to",
          "type": "address"
        },
        {
          "indexed": false,
          "name": "_amount",
          "type": "uint256"
        },
        {
          "indexed": false,
          "name": "_time",
          "type": "uint256"
        }
      ],
      "name": "Collect",
      "type": "event"
    },
    {
      "anonymous": false,
      "inputs": [
        {
          "indexed": false,
          "name": "addr",
          "type": "address"
        },
        {
          "indexed": false,
          "name": "roleName",
          "type": "string"
        }
      ],
      "name": "RoleAdded",
      "type": "event"
    },
    {
      "anonymous": false,
      "inputs": [
        {
          "indexed": false,
          "name": "addr",
          "type": "address"
        },
        {
          "indexed": false,
          "name": "roleName",
          "type": "string"
        }
      ],
      "name": "RoleRemoved",
      "type": "event"
    },
    {
      "anonymous": false,
      "inputs": [
        {
          "indexed": true,
          "name": "previousOwner",
          "type": "address"
        }
      ],
      "name": "OwnershipRenounced",
      "type": "event"
    },
    {
      "anonymous": false,
      "inputs": [
        {
          "indexed": true,
          "name": "previousOwner",
          "type": "address"
        },
        {
          "indexed": true,
          "name": "newOwner",
          "type": "address"
        }
      ],
      "name": "OwnershipTransferred",
      "type": "event"
    },
    {
      "constant": true,
      "inputs": [
        {
          "name": "_owner",
          "type": "address"
        }
      ],
      "name": "vestingOf",
      "outputs": [
        {
          "name": "",
          "type": "uint256"
        }
      ],
      "payable": false,
      "stateMutability": "view",
      "type": "function"
    },
    {
      "constant": true,
      "inputs": [
        {
          "name": "_owner",
          "type": "address"
        }
      ],
      "name": "lastVestingTimeOf",
      "outputs": [
        {
          "name": "",
          "type": "uint256"
        }
      ],
      "payable": false,
      "stateMutability": "view",
      "type": "function"
    },
    {
      "constant": false,
      "inputs": [
        {
          "name": "_admin",
          "type": "address"
        }
      ],
      "name": "addAdmin",
      "outputs": [],
      "payable": false,
      "stateMutability": "nonpayable",
      "type": "function"
    },
    {
      "constant": false,
      "inputs": [
        {
          "name": "_admin",
          "type": "address"
        }
      ],
      "name": "removeAdmin",
      "outputs": [],
      "payable": false,
      "stateMutability": "nonpayable",
      "type": "function"
    },
    {
      "constant": false,
      "inputs": [
        {
          "name": "_holder",
          "type": "address"
        }
      ],
      "name": "upgradeToRelayer",
      "outputs": [],
      "payable": false,
      "stateMutability": "nonpayable",
      "type": "function"
    },
    {
      "constant": false,
      "inputs": [
        {
          "name": "_relayer",
          "type": "address"
        }
      ],
      "name": "removeRelayer",
      "outputs": [],
      "payable": false,
      "stateMutability": "nonpayable",
      "type": "function"
    },
    {
      "constant": false,
      "inputs": [
        {
          "name": "_holder",
          "type": "address"
        }
      ],
      "name": "removeHolder",
      "outputs": [],
      "payable": false,
      "stateMutability": "nonpayable",
      "type": "function"
    },
    {
      "constant": false,
      "inputs": [
        {
          "name": "_from",
          "type": "address"
        },
        {
          "name": "_value",
          "type": "uint256"
        },
        {
          "name": "_data",
          "type": "bytes"
        }
      ],
      "name": "tokenFallback",
      "outputs": [],
      "payable": false,
      "stateMutability": "nonpayable",
      "type": "function"
    },
    {
      "constant": false,
      "inputs": [
        {
          "name": "_amount",
          "type": "uint256"
        }
      ],
      "name": "unPark",
      "outputs": [],
      "payable": false,
      "stateMutability": "nonpayable",
      "type": "function"
    },
    {
      "constant": false,
      "inputs": [
        {
          "name": "_amount",
          "type": "uint256"
        }
      ],
      "name": "relayerUnPark",
      "outputs": [],
      "payable": false,
      "stateMutability": "nonpayable",
      "type": "function"
    },
    {
      "constant": false,
      "inputs": [],
      "name": "withdraw",
      "outputs": [],
      "payable": false,
      "stateMutability": "nonpayable",
      "type": "function"
    },
    {
      "constant": false,
      "inputs": [
        {
          "name": "_to",
          "type": "address"
        },
        {
          "name": "_amount",
          "type": "uint256"
        }
      ],
      "name": "collect",
      "outputs": [],
      "payable": false,
      "stateMutability": "nonpayable",
      "type": "function"
    }
  ],
  "bytecode": "0x6080604052600060065560006007553480156200001b57600080fd5b5060405160608062001cdb833981018060405281019080805190602001909291908051906020019092919080519060200190929190505050336000806101000a81548173ffffffffffffffffffffffffffffffffffffffff021916908373ffffffffffffffffffffffffffffffffffffffff160217905550620000e3336040805190810160405280600581526020017f61646d696e00000000000000000000000000000000000000000000000000000081525062000101640100000000026401000000009004565b826003819055508160048190555080600581905550505050620002c5565b62000190826001836040518082805190602001908083835b60208310151562000140578051825260208201915060208101905060208303925062000119565b6001836020036101000a038019825116818451168082178552505050505050905001915050908152602001604051809103902062000267640100000000026200197c179091906401000000009004565b7fbfec83d64eaa953f2708271a023ab9ee82057f8f3578d548c1a4ba0b5b7004898282604051808373ffffffffffffffffffffffffffffffffffffffff1673ffffffffffffffffffffffffffffffffffffffff16815260200180602001828103825283818151815260200191508051906020019080838360005b83811015620002275780820151818401526020810190506200020a565b50505050905090810190601f168015620002555780820380516001836020036101000a031916815260200191505b50935050505060405180910390a15050565b60018260000160008373ffffffffffffffffffffffffffffffffffffffff1673ffffffffffffffffffffffffffffffffffffffff16815260200190815260200160002060006101000a81548160ff0219169083151502179055505050565b611a0680620002d56000396000f300608060405260043610610149576000357c0100000000000000000000000000000000000000000000000000000000900463ffffffff1680630988ca8c146101555780630ad14d0c146101de5780631785f53c14610221578063209f804414610264578063217fe6c6146102f45780632c4e722e1461039557806332d8267f146103c05780633ccfd60b146103eb57806356b487b21461040257806360f0a5ac14610459578063616b40e31461049c5780636b8357ac146104c75780637048027514610514578063715018a61461055757806379cf19601461056e578063877d8b67146105fe5780638da5cb5b146106295780638dd42808146106805780639638845d146106c3578063b48e700a146106ee578063c0ee0b8a1461071b578063c47cfca114610780578063cf1f7a64146107d7578063d391014b14610804578063f2fde38b14610894575b61015333346108d7565b005b34801561016157600080fd5b506101dc600480360381019080803573ffffffffffffffffffffffffffffffffffffffff169060200190929190803590602001908201803590602001908080601f016020809104026020016040519081016040528093929190818152602001838380828437820191505050505050919291929050505061091e565b005b3480156101ea57600080fd5b5061021f600480360381019080803573ffffffffffffffffffffffffffffffffffffffff16906020019092919050505061099f565b005b34801561022d57600080fd5b50610262600480360381019080803573ffffffffffffffffffffffffffffffffffffffff1690602001909291905050506109e1565b005b34801561027057600080fd5b50610279610a7e565b6040518080602001828103825283818151815260200191508051906020019080838360005b838110156102b957808201518184015260208101905061029e565b50505050905090810190601f1680156102e65780820380516001836020036101000a031916815260200191505b509250505060405180910390f35b34801561030057600080fd5b5061037b600480360381019080803573ffffffffffffffffffffffffffffffffffffffff169060200190929190803590602001908201803590602001908080601f0160208091040260200160405190810160405280939291908181526020018383808284378201915050505050509192919290505050610ab7565b604051808215151515815260200191505060405180910390f35b3480156103a157600080fd5b506103aa610b3e565b6040518082815260200191505060405180910390f35b3480156103cc57600080fd5b506103d5610b44565b6040518082815260200191505060405180910390f35b3480156103f757600080fd5b50610400610b4a565b005b34801561040e57600080fd5b50610443600480360381019080803573ffffffffffffffffffffffffffffffffffffffff169060200190929190505050610b8b565b6040518082815260200191505060405180910390f35b34801561046557600080fd5b5061049a600480360381019080803573ffffffffffffffffffffffffffffffffffffffff169060200190929190505050610bd7565b005b3480156104a857600080fd5b506104b1610c19565b6040518082815260200191505060405180910390f35b3480156104d357600080fd5b50610512600480360381019080803573ffffffffffffffffffffffffffffffffffffffff16906020019092919080359060200190929190505050610c1f565b005b34801561052057600080fd5b50610555600480360381019080803573ffffffffffffffffffffffffffffffffffffffff169060200190929190505050610c7e565b005b34801561056357600080fd5b5061056c610d1b565b005b34801561057a57600080fd5b50610583610e1d565b6040518080602001828103825283818151815260200191508051906020019080838360005b838110156105c35780820151818401526020810190506105a8565b50505050905090810190601f1680156105f05780820380516001836020036101000a031916815260200191505b509250505060405180910390f35b34801561060a57600080fd5b50610613610e56565b6040518082815260200191505060405180910390f35b34801561063557600080fd5b5061063e610e5c565b604051808273ffffffffffffffffffffffffffffffffffffffff1673ffffffffffffffffffffffffffffffffffffffff16815260200191505060405180910390f35b34801561068c57600080fd5b506106c1600480360381019080803573ffffffffffffffffffffffffffffffffffffffff169060200190929190505050610e81565b005b3480156106cf57600080fd5b506106d8610ec3565b6040518082815260200191505060405180910390f35b3480156106fa57600080fd5b5061071960048036038101908080359060200190929190505050610ec9565b005b34801561072757600080fd5b5061077e600480360381019080803573ffffffffffffffffffffffffffffffffffffffff16906020019092919080359060200190929190803590602001908201803590602001919091929391929390505050610f46565b005b34801561078c57600080fd5b506107c1600480360381019080803573ffffffffffffffffffffffffffffffffffffffff169060200190929190505050611134565b6040518082815260200191505060405180910390f35b3480156107e357600080fd5b5061080260048036038101908080359060200190929190505050611180565b005b34801561081057600080fd5b50610819611282565b6040518080602001828103825283818151815260200191508051906020019080838360005b8381101561085957808201518184015260208101905061083e565b50505050905090810190601f1680156108865780820380516001836020036101000a031916815260200191505b509250505060405180910390f35b3480156108a057600080fd5b506108d5600480360381019080803573ffffffffffffffffffffffffffffffffffffffff1690602001909291905050506112bb565b005b600060606108f06005548461132290919063ffffffff16565b91506109078360075461135a90919063ffffffff16565b600781905550610918848383611376565b50505050565b61099b826001836040518082805190602001908083835b60208310151561095a5780518252602082019150602081019050602083039250610935565b6001836020036101000a03801982511681845116808217855250505050505090500191505090815260200160405180910390206114ee90919063ffffffff16565b5050565b6109de336040805190810160405280600581526020017f61646d696e00000000000000000000000000000000000000000000000000000081525061091e565b50565b6000809054906101000a900473ffffffffffffffffffffffffffffffffffffffff1673ffffffffffffffffffffffffffffffffffffffff163373ffffffffffffffffffffffffffffffffffffffff16141515610a3c57600080fd5b610a7b816040805190810160405280600581526020017f61646d696e000000000000000000000000000000000000000000000000000000815250611507565b50565b6040805190810160405280600781526020017f72656c617965720000000000000000000000000000000000000000000000000081525081565b6000610b36836001846040518082805190602001908083835b602083101515610af55780518252602082019150602081019050602083039250610ad0565b6001836020036101000a038019825116818451168082178552505050505050905001915050908152602001604051809103902061165890919063ffffffff16565b905092915050565b60055481565b60045481565b610b89336040805190810160405280600681526020017f686f6c646572000000000000000000000000000000000000000000000000000081525061091e565b565b6000600260008373ffffffffffffffffffffffffffffffffffffffff1673ffffffffffffffffffffffffffffffffffffffff168152602001908152602001600020600101549050919050565b610c16336040805190810160405280600581526020017f61646d696e00000000000000000000000000000000000000000000000000000081525061091e565b50565b60065481565b6000809054906101000a900473ffffffffffffffffffffffffffffffffffffffff1673ffffffffffffffffffffffffffffffffffffffff163373ffffffffffffffffffffffffffffffffffffffff16141515610c7a57600080fd5b5050565b6000809054906101000a900473ffffffffffffffffffffffffffffffffffffffff1673ffffffffffffffffffffffffffffffffffffffff163373ffffffffffffffffffffffffffffffffffffffff16141515610cd957600080fd5b610d18816040805190810160405280600581526020017f61646d696e0000000000000000000000000000000000000000000000000000008152506116b1565b50565b6000809054906101000a900473ffffffffffffffffffffffffffffffffffffffff1673ffffffffffffffffffffffffffffffffffffffff163373ffffffffffffffffffffffffffffffffffffffff16141515610d7657600080fd5b6000809054906101000a900473ffffffffffffffffffffffffffffffffffffffff1673ffffffffffffffffffffffffffffffffffffffff167ff8df31144d9c2f0f6b59d69b8b98abd5459d07f2742c4df920b25aae33c6482060405160405180910390a260008060006101000a81548173ffffffffffffffffffffffffffffffffffffffff021916908373ffffffffffffffffffffffffffffffffffffffff160217905550565b6040805190810160405280600681526020017f686f6c646572000000000000000000000000000000000000000000000000000081525081565b60075481565b6000809054906101000a900473ffffffffffffffffffffffffffffffffffffffff1681565b610ec0336040805190810160405280600581526020017f61646d696e00000000000000000000000000000000000000000000000000000081525061091e565b50565b60035481565b6000809054906101000a900473ffffffffffffffffffffffffffffffffffffffff1673ffffffffffffffffffffffffffffffffffffffff163373ffffffffffffffffffffffffffffffffffffffff16141515610f2457600080fd5b4260035411158015610f3857506004544211155b1515610f4357600080fd5b50565b600033905060405180807f434150000000000000000000000000000000000000000000000000000000000081525060030190506040518091039020600019168173ffffffffffffffffffffffffffffffffffffffff166395d89b416040518163ffffffff167c0100000000000000000000000000000000000000000000000000000000028152600401600060405180830381600087803b158015610fe957600080fd5b505af1158015610ffd573d6000803e3d6000fd5b505050506040513d6000823e3d601f19601f82011682018060405250602081101561102757600080fd5b81019080805164010000000081111561103f57600080fd5b8281019050602081018481111561105557600080fd5b815185600182028301116401000000008211171561107257600080fd5b50509291905050506040518082805190602001908083835b6020831015156110af578051825260208201915060208101905060208303925061108a565b6001836020036101000a038019825116818451168082178552505050505050905001915050604051809103902060001916141561112857611123858585858080601f016020809104026020016040519081016040528093929190818152602001838380828437820191505050505050611376565b61112d565b600080fd5b5050505050565b6000600260008373ffffffffffffffffffffffffffffffffffffffff1673ffffffffffffffffffffffffffffffffffffffff168152602001908152602001600020600001549050919050565b6111bf336040805190810160405280600681526020017f686f6c646572000000000000000000000000000000000000000000000000000081525061091e565b42600354111580156111d357506004544211155b15156111de57600080fd5b61121d336040805190810160405280600781526020017f72656c6179657200000000000000000000000000000000000000000000000000815250610ab7565b156112275761127f565b611266336040805190810160405280600681526020017f686f6c6465720000000000000000000000000000000000000000000000000000815250610ab7565b156112795761127481611802565b61127e565b600080fd5b5b50565b6040805190810160405280600581526020017f61646d696e00000000000000000000000000000000000000000000000000000081525081565b6000809054906101000a900473ffffffffffffffffffffffffffffffffffffffff1673ffffffffffffffffffffffffffffffffffffffff163373ffffffffffffffffffffffffffffffffffffffff1614151561131657600080fd5b61131f81611824565b50565b6000808314156113355760009050611354565b818302905081838281151561134657fe5b0414151561135057fe5b8090505b92915050565b6000818301905082811015151561136d57fe5b80905092915050565b6000426003541115801561138c57506004544211155b151561139757600080fd5b600260008573ffffffffffffffffffffffffffffffffffffffff1673ffffffffffffffffffffffffffffffffffffffff16815260200190815260200160002090506113ef83826000015461135a90919063ffffffff16565b81600001819055504281600101819055506114158360065461135a90919063ffffffff16565b60068190555061145a846040805190810160405280600681526020017f686f6c6465720000000000000000000000000000000000000000000000000000815250610ab7565b1580156114a357506114a1846040805190810160405280600781526020017f72656c6179657200000000000000000000000000000000000000000000000000815250610ab7565b155b156114e8576114e7846040805190810160405280600681526020017f686f6c64657200000000000000000000000000000000000000000000000000008152506116b1565b5b50505050565b6114f88282611658565b151561150357600080fd5b5050565b611584826001836040518082805190602001908083835b602083101515611543578051825260208201915060208101905060208303925061151e565b6001836020036101000a038019825116818451168082178552505050505050905001915050908152602001604051809103902061191e90919063ffffffff16565b7fd211483f91fc6eff862467f8de606587a30c8fc9981056f051b897a418df803a8282604051808373ffffffffffffffffffffffffffffffffffffffff1673ffffffffffffffffffffffffffffffffffffffff16815260200180602001828103825283818151815260200191508051906020019080838360005b838110156116195780820151818401526020810190506115fe565b50505050905090810190601f1680156116465780820380516001836020036101000a031916815260200191505b50935050505060405180910390a15050565b60008260000160008373ffffffffffffffffffffffffffffffffffffffff1673ffffffffffffffffffffffffffffffffffffffff16815260200190815260200160002060009054906101000a900460ff16905092915050565b61172e826001836040518082805190602001908083835b6020831015156116ed57805182526020820191506020810190506020830392506116c8565b6001836020036101000a038019825116818451168082178552505050505050905001915050908152602001604051809103902061197c90919063ffffffff16565b7fbfec83d64eaa953f2708271a023ab9ee82057f8f3578d548c1a4ba0b5b7004898282604051808373ffffffffffffffffffffffffffffffffffffffff1673ffffffffffffffffffffffffffffffffffffffff16815260200180602001828103825283818151815260200191508051906020019080838360005b838110156117c35780820151818401526020810190506117a8565b50505050905090810190601f1680156117f05780820380516001836020036101000a031916815260200191505b50935050505060405180910390a15050565b426003541115801561181657506004544211155b151561182157600080fd5b50565b600073ffffffffffffffffffffffffffffffffffffffff168173ffffffffffffffffffffffffffffffffffffffff161415151561186057600080fd5b8073ffffffffffffffffffffffffffffffffffffffff166000809054906101000a900473ffffffffffffffffffffffffffffffffffffffff1673ffffffffffffffffffffffffffffffffffffffff167f8be0079c531659141344cd1fd0a4f28419497f9722a3daafe3b4186f6b6457e060405160405180910390a3806000806101000a81548173ffffffffffffffffffffffffffffffffffffffff021916908373ffffffffffffffffffffffffffffffffffffffff16021790555050565b60008260000160008373ffffffffffffffffffffffffffffffffffffffff1673ffffffffffffffffffffffffffffffffffffffff16815260200190815260200160002060006101000a81548160ff0219169083151502179055505050565b60018260000160008373ffffffffffffffffffffffffffffffffffffffff1673ffffffffffffffffffffffffffffffffffffffff16815260200190815260200160002060006101000a81548160ff02191690831515021790555050505600a165627a7a723058205797b6d071662547d08609e224dc88042c1f5cce8d96ce0e64ae4f9683d7c56d0029",
  "source": "pragma solidity ^0.4.24;\n\nimport \"openzeppelin-solidity/contracts/ownership/Ownable.sol\";\nimport \"openzeppelin-solidity/contracts/ownership/rbac/RBAC.sol\";\nimport \"openzeppelin-solidity/contracts/math/SafeMath.sol\";\nimport \"./Token/Receiver_Interface.sol\";\nimport './Token/CAP.sol';\n\ncontract CAPO is Ownable, RBAC, ContractReceiver {\n\tusing SafeMath for uint256;\n\n\tstring public constant ROLE_ADMIN = \"admin\";\n\tstring public constant ROLE_HOLDER = \"holder\";\n\tstring public constant ROLE_RELAYER = \"relayer\";\t\t\n\n\tstruct Invest {\n\t\tuint256 value; // current investing value of user\t\t\n\t\tuint256 lastVestingTime; // last vesting time\n\t}\n\tmapping (address => Invest) investigations;\n\t\n\tuint public dayStart; //start investing date\n\tuint public dayEnd; // end investing date\n\tuint public rate; // number of token a user gets per wei\n\tuint256 public totalInvest = 0; // total token user park\n\tuint256 public totalWeiInvest = 0; // total wei user pay for token \n\n\t// events\n\tevent Park(address indexed _from, uint _amount, uint _time);\n\tevent DirectPark(address indexed _from, uint _wei, uint _amount, uint _time);\n\tevent UnPark(address indexed _to, bool relayer, uint _amount, uint _time);\t\n\tevent Collect(address indexed _to, uint _amount, uint _time);\n\n\tmodifier onlyAdmin() {\n\t\tcheckRole(msg.sender, ROLE_ADMIN);\n\t\t_;\n\t}\n\n\tmodifier onlyHolder() {\n\t\tcheckRole(msg.sender, ROLE_HOLDER);\n\t\t_;\n\t}\n\n\tmodifier onlyRelayer() {\n\t\tcheckRole(msg.sender, ROLE_RELAYER);\n\t\t_;\n\t}\n\n\tmodifier inOpenTime() {\n\t\trequire(dayStart <= block.timestamp && block.timestamp <= dayEnd);\n\t\t_;\n\t}\n\n\tconstructor(uint _dayStart, uint _dayEnd, uint _rate) public {\n\t\taddRole(msg.sender, ROLE_ADMIN);\n\t\tdayStart = _dayStart;\n\t\tdayEnd = _dayEnd;\t\t\n\t\trate = _rate;\n\t}\n\n/*Public getter functions */\n\n\tfunction vestingOf(address _owner) external view returns (uint256) {\n\t\treturn investigations[_owner].value;\n\t}\n\n\tfunction lastVestingTimeOf(address _owner) external view returns (uint256) {\n\t\treturn investigations[_owner].lastVestingTime;\n\t}\n\n/* Admin functions */\t\n\n\tfunction addAdmin(address _admin) external onlyOwner {\n\t\taddRole(_admin, ROLE_ADMIN);\n\t}\n\n\tfunction removeAdmin(address _admin) external onlyOwner {\n\t\tremoveRole(_admin, ROLE_ADMIN);\n\t}\n\n\tfunction upgradeToRelayer(address _holder) public onlyAdmin {\n\n\t}\n\n\tfunction removeRelayer(address _relayer) public onlyAdmin {\n\n\t}\n\n\tfunction removeHolder(address _holder) public onlyAdmin {\n\n\t}\n\n\t/**\n\t * @dev handle incomming token transfer transaction\n\t */\n\tfunction tokenFallback(address _from, uint256 _value, bytes _data) external {\n\t\tCAP token = CAP(msg.sender);\n\t\tif (keccak256(token.symbol()) == keccak256('CAP')) {\n\t\t\tpark(_from, _value, _data);\n\t\t} else {\n\t\t\trevert();\n\t\t}\t\n\t}\n\n\tfunction park(address _from, uint256 _value, bytes _data) private inOpenTime {\t\t\n\t\t\n\t\tInvest vesting = investigations[_from];\n\t\tvesting.value = vesting.value.add(_value);\n\t\tvesting.lastVestingTime = block.timestamp;\n\n\t\t// append total invest\n\t\ttotalInvest = totalInvest.add(_value);\n\n\t\t// add holder role\n\t\tif (!hasRole(_from, ROLE_HOLDER) && !hasRole(_from, ROLE_RELAYER)) {\n\t\t\taddRole(_from, ROLE_HOLDER);\n\t\t}\n\t}\n\n\tfunction () payable {\n\t\tdirectPark(msg.sender, msg.value);\n\t}\n\n\tfunction directPark(address _from, uint _value) private {\n\t\tuint numberOfToken = _value.mul(rate);\n\t\ttotalWeiInvest = totalWeiInvest.add(_value);\n\t\tbytes memory empty;\n\t\tpark(_from, numberOfToken, empty);\n\t}\n\n\tfunction unPark(uint _amount) external onlyHolder inOpenTime {\n\t\tif (hasRole(msg.sender, ROLE_RELAYER)) {\n\t\t\t \n\t\t} else if (hasRole(msg.sender, ROLE_HOLDER)) {\n\t\t\tholderUnPark(_amount);\n\n\t\t} else {\n\t\t\trevert();\n\t\t}\n\t}\n\n\tfunction holderUnPark(uint _amount) private inOpenTime {\n\t\t\n\t}\n\n\tfunction relayerUnPark(uint _amount) public onlyOwner inOpenTime {\n\t\t\n\t}\n\n\tfunction withdraw() external onlyHolder {\n\t\t\n\t}\n\n\tfunction collect(address _to, uint _amount) external onlyOwner {\n\t\t\n\t}\t\n}",
  "sourcePath": "/Users/duongkhong/Documents/Projects/coincapo/smartcontracts/contracts/CAPO.sol",
  "compiler": {
    "name": "solc",
    "version": "0.4.24+commit.e67f0147.Emscripten.clang"
  },
  "schemaVersion": "2.0.0",
  "updatedAt": "2018-11-18T03:14:26.513Z"
}