{
  "contractName": "CapoProxy",
  "abi": [
    {
      "constant": true,
      "inputs": [
        {
          "name": "",
          "type": "uint256"
        }
      ],
      "name": "authorities",
      "outputs": [
        {
          "name": "",
          "type": "address"
        }
      ],
      "payable": false,
      "stateMutability": "view",
      "type": "function"
    },
    {
      "constant": true,
      "inputs": [],
      "name": "wethAddress",
      "outputs": [
        {
          "name": "",
          "type": "address"
        }
      ],
      "payable": false,
      "stateMutability": "view",
      "type": "function"
    },
    {
      "constant": false,
      "inputs": [],
      "name": "renounceOwnership",
      "outputs": [],
      "payable": false,
      "stateMutability": "nonpayable",
      "type": "function"
    },
    {
      "constant": true,
      "inputs": [],
      "name": "owner",
      "outputs": [
        {
          "name": "",
          "type": "address"
        }
      ],
      "payable": false,
      "stateMutability": "view",
      "type": "function"
    },
    {
      "constant": true,
      "inputs": [
        {
          "name": "",
          "type": "address"
        }
      ],
      "name": "authorized",
      "outputs": [
        {
          "name": "",
          "type": "bool"
        }
      ],
      "payable": false,
      "stateMutability": "view",
      "type": "function"
    },
    {
      "constant": false,
      "inputs": [
        {
          "name": "_newOwner",
          "type": "address"
        }
      ],
      "name": "transferOwnership",
      "outputs": [],
      "payable": false,
      "stateMutability": "nonpayable",
      "type": "function"
    },
    {
      "inputs": [
        {
          "name": "_wethAddress",
          "type": "address"
        }
      ],
      "payable": false,
      "stateMutability": "nonpayable",
      "type": "constructor"
    },
    {
      "anonymous": false,
      "inputs": [
        {
          "indexed": true,
          "name": "target",
          "type": "address"
        },
        {
          "indexed": true,
          "name": "caller",
          "type": "address"
        }
      ],
      "name": "AuthorizedAddressAdded",
      "type": "event"
    },
    {
      "anonymous": false,
      "inputs": [
        {
          "indexed": true,
          "name": "target",
          "type": "address"
        },
        {
          "indexed": true,
          "name": "caller",
          "type": "address"
        }
      ],
      "name": "AuthorizedAddressRemoved",
      "type": "event"
    },
    {
      "anonymous": false,
      "inputs": [
        {
          "indexed": true,
          "name": "to",
          "type": "address"
        },
        {
          "indexed": false,
          "name": "amount",
          "type": "uint256"
        }
      ],
      "name": "WithDraw",
      "type": "event"
    },
    {
      "anonymous": false,
      "inputs": [
        {
          "indexed": true,
          "name": "previousOwner",
          "type": "address"
        }
      ],
      "name": "OwnershipRenounced",
      "type": "event"
    },
    {
      "anonymous": false,
      "inputs": [
        {
          "indexed": true,
          "name": "previousOwner",
          "type": "address"
        },
        {
          "indexed": true,
          "name": "newOwner",
          "type": "address"
        }
      ],
      "name": "OwnershipTransferred",
      "type": "event"
    },
    {
      "constant": false,
      "inputs": [
        {
          "name": "to",
          "type": "address"
        },
        {
          "name": "amount",
          "type": "uint256"
        }
      ],
      "name": "withdraw",
      "outputs": [],
      "payable": false,
      "stateMutability": "nonpayable",
      "type": "function"
    },
    {
      "constant": false,
      "inputs": [],
      "name": "getTotalWithdraw",
      "outputs": [
        {
          "name": "",
          "type": "uint256"
        }
      ],
      "payable": false,
      "stateMutability": "nonpayable",
      "type": "function"
    },
    {
      "constant": false,
      "inputs": [
        {
          "name": "target",
          "type": "address"
        }
      ],
      "name": "addAuthorizedAddress",
      "outputs": [],
      "payable": false,
      "stateMutability": "nonpayable",
      "type": "function"
    },
    {
      "constant": false,
      "inputs": [
        {
          "name": "target",
          "type": "address"
        }
      ],
      "name": "removeAuthorizedAddress",
      "outputs": [],
      "payable": false,
      "stateMutability": "nonpayable",
      "type": "function"
    },
    {
      "constant": false,
      "inputs": [
        {
          "name": "target",
          "type": "address"
        },
        {
          "name": "index",
          "type": "uint256"
        }
      ],
      "name": "removeAuthorizedAddressAtIndex",
      "outputs": [],
      "payable": false,
      "stateMutability": "nonpayable",
      "type": "function"
    },
    {
      "constant": true,
      "inputs": [],
      "name": "getAuthorizedAddresses",
      "outputs": [
        {
          "name": "",
          "type": "address[]"
        }
      ],
      "payable": false,
      "stateMutability": "view",
      "type": "function"
    },
    {
      "constant": false,
      "inputs": [
        {
          "name": "exchangeAddress",
          "type": "address"
        },
        {
          "name": "salt",
          "type": "uint256"
        },
        {
          "name": "signerAddress",
          "type": "address"
        },
        {
          "name": "data",
          "type": "bytes"
        },
        {
          "name": "signature",
          "type": "bytes"
        }
      ],
      "name": "executeTransaction",
      "outputs": [],
      "payable": false,
      "stateMutability": "nonpayable",
      "type": "function"
    },
    {
      "constant": false,
      "inputs": [
        {
          "name": "exchangeAddress",
          "type": "address"
        },
        {
          "name": "leftOrderAddresses",
          "type": "address[4]"
        },
        {
          "name": "leftOrderValues",
          "type": "uint256[6]"
        },
        {
          "name": "leftOrderDatas",
          "type": "bytes[2]"
        },
        {
          "name": "rightOrderAddresses",
          "type": "address[4]"
        },
        {
          "name": "rightOrderValues",
          "type": "uint256[6]"
        },
        {
          "name": "rightOrderDatas",
          "type": "bytes[2]"
        },
        {
          "name": "leftSignature",
          "type": "bytes"
        },
        {
          "name": "rightSignature",
          "type": "bytes"
        }
      ],
      "name": "matchOrders",
      "outputs": [],
      "payable": false,
      "stateMutability": "nonpayable",
      "type": "function"
    }
  ],
  "bytecode": "0x60806040523480156200001157600080fd5b5060405160208062002a468339810180604052620000339190810190620002f3565b336000806101000a81548173ffffffffffffffffffffffffffffffffffffffff021916908373ffffffffffffffffffffffffffffffffffffffff16021790555080600360006101000a81548173ffffffffffffffffffffffffffffffffffffffff021916908373ffffffffffffffffffffffffffffffffffffffff160217905550620000ce33620000d5640100000000026401000000009004565b5062000398565b6000809054906101000a900473ffffffffffffffffffffffffffffffffffffffff1673ffffffffffffffffffffffffffffffffffffffff163373ffffffffffffffffffffffffffffffffffffffff161415156200013157600080fd5b600160008273ffffffffffffffffffffffffffffffffffffffff1673ffffffffffffffffffffffffffffffffffffffff16815260200190815260200160002060009054906101000a900460ff16151515620001c3576040517f08c379a0000000000000000000000000000000000000000000000000000000008152600401620001ba9062000356565b60405180910390fd5b60018060008373ffffffffffffffffffffffffffffffffffffffff1673ffffffffffffffffffffffffffffffffffffffff16815260200190815260200160002060006101000a81548160ff02191690831515021790555060028190806001815401808255809150509060018203906000526020600020016000909192909190916101000a81548173ffffffffffffffffffffffffffffffffffffffff021916908373ffffffffffffffffffffffffffffffffffffffff160217905550503373ffffffffffffffffffffffffffffffffffffffff168173ffffffffffffffffffffffffffffffffffffffff167f3147867c59d17e8fa9d522465651d44aae0a9e38f902f3475b97e58072f0ed4c60405160405180910390a350565b6000620002eb825162000378565b905092915050565b6000602082840312156200030657600080fd5b60006200031684828501620002dd565b91505092915050565b6000601982527f5441524745545f414c52454144595f415554484f52495a4544000000000000006020830152604082019050919050565b6000602082019050818103600083015262000371816200031f565b9050919050565b600073ffffffffffffffffffffffffffffffffffffffff82169050919050565b61269e80620003a86000396000f3006080604052600436106100d0576000357c0100000000000000000000000000000000000000000000000000000000900463ffffffff1680633f32eb81146100d557806342f1181e14610100578063494503d4146101295780634f0e0ef314610166578063656a906d1461019157806370712939146101ba578063715018a6146101e35780638da5cb5b146101fa5780639ad2674414610225578063b91816111461024e578063d39de6e91461028b578063ea0bc801146102b6578063f2fde38b146102df578063f3fef3a314610308575b600080fd5b3480156100e157600080fd5b506100ea610331565b6040516100f79190612349565b60405180910390f35b34801561010c57600080fd5b5061012760048036036101229190810190611c55565b610396565b005b34801561013557600080fd5b50610150600480360361014b9190810190611e8c565b61059a565b60405161015d91906121c7565b60405180910390f35b34801561017257600080fd5b5061017b6105d8565b60405161018891906121c7565b60405180910390f35b34801561019d57600080fd5b506101b860048036036101b39190810190611de5565b6105fe565b005b3480156101c657600080fd5b506101e160048036036101dc9190810190611c55565b6107d4565b005b3480156101ef57600080fd5b506101f8610aaf565b005b34801561020657600080fd5b5061020f610bb1565b60405161021c91906121c7565b60405180910390f35b34801561023157600080fd5b5061024c60048036036102479190810190611da9565b610bd6565b005b34801561025a57600080fd5b5061027560048036036102709190810190611c55565b610f10565b604051610282919061222d565b60405180910390f35b34801561029757600080fd5b506102a0610f30565b6040516102ad919061220b565b60405180910390f35b3480156102c257600080fd5b506102dd60048036036102d89190810190611c7e565b610fbe565b005b3480156102eb57600080fd5b5061030660048036036103019190810190611c55565b611518565b005b34801561031457600080fd5b5061032f600480360361032a9190810190611da9565b61157f565b005b60008060009054906101000a900473ffffffffffffffffffffffffffffffffffffffff1673ffffffffffffffffffffffffffffffffffffffff163373ffffffffffffffffffffffffffffffffffffffff1614151561038e57600080fd5b600454905090565b6000809054906101000a900473ffffffffffffffffffffffffffffffffffffffff1673ffffffffffffffffffffffffffffffffffffffff163373ffffffffffffffffffffffffffffffffffffffff161415156103f157600080fd5b600160008273ffffffffffffffffffffffffffffffffffffffff1673ffffffffffffffffffffffffffffffffffffffff16815260200190815260200160002060009054906101000a900460ff16151515610480576040517f08c379a000000000000000000000000000000000000000000000000000000000815260040161047790612288565b60405180910390fd5b60018060008373ffffffffffffffffffffffffffffffffffffffff1673ffffffffffffffffffffffffffffffffffffffff16815260200190815260200160002060006101000a81548160ff02191690831515021790555060028190806001815401808255809150509060018203906000526020600020016000909192909190916101000a81548173ffffffffffffffffffffffffffffffffffffffff021916908373ffffffffffffffffffffffffffffffffffffffff160217905550503373ffffffffffffffffffffffffffffffffffffffff168173ffffffffffffffffffffffffffffffffffffffff167f3147867c59d17e8fa9d522465651d44aae0a9e38f902f3475b97e58072f0ed4c60405160405180910390a350565b6002818154811015156105a957fe5b906000526020600020016000915054906101000a900473ffffffffffffffffffffffffffffffffffffffff1681565b600360009054906101000a900473ffffffffffffffffffffffffffffffffffffffff1681565b606080606060405190810160405280602f81526020017f657865637574655472616e73616374696f6e2875696e743235362c616464726581526020017f73732c62797465732c62797465732900000000000000000000000000000000008152509150816040518082805190602001908083835b6020831015156106965780518252602082019150602081019050602083039250610671565b6001836020036101000a0380198251168184511680821785525050505050509050019150506040518091039020868686866040516024016106da9493929190612364565b604051602081830303815290604052907bffffffffffffffffffffffffffffffffffffffffffffffffffffffff19166020820180517bffffffffffffffffffffffffffffffffffffffffffffffffffffffff838183161783525050505090508673ffffffffffffffffffffffffffffffffffffffff168160405180828051906020019080838360005b8381101561077e578082015181840152602081019050610763565b50505050905090810190601f1680156107ab5780820380516001836020036101000a031916815260200191505b509150506000604051808303816000865af191505015156107cb57600080fd5b50505050505050565b60008060009054906101000a900473ffffffffffffffffffffffffffffffffffffffff1673ffffffffffffffffffffffffffffffffffffffff163373ffffffffffffffffffffffffffffffffffffffff1614151561083157600080fd5b600160008373ffffffffffffffffffffffffffffffffffffffff1673ffffffffffffffffffffffffffffffffffffffff16815260200190815260200160002060009054906101000a900460ff1615156108bf576040517f08c379a00000000000000000000000000000000000000000000000000000000081526004016108b690612248565b60405180910390fd5b600160008373ffffffffffffffffffffffffffffffffffffffff1673ffffffffffffffffffffffffffffffffffffffff16815260200190815260200160002060006101000a81549060ff0219169055600090505b600280549050811015610a51578173ffffffffffffffffffffffffffffffffffffffff1660028281548110151561094657fe5b9060005260206000200160009054906101000a900473ffffffffffffffffffffffffffffffffffffffff1673ffffffffffffffffffffffffffffffffffffffff161415610a445760026001600280549050038154811015156109a457fe5b9060005260206000200160009054906101000a900473ffffffffffffffffffffffffffffffffffffffff166002828154811015156109de57fe5b9060005260206000200160006101000a81548173ffffffffffffffffffffffffffffffffffffffff021916908373ffffffffffffffffffffffffffffffffffffffff1602179055506001600281818054905003915081610a3e9190611923565b50610a51565b8080600101915050610913565b3373ffffffffffffffffffffffffffffffffffffffff168273ffffffffffffffffffffffffffffffffffffffff167f1f32c1b084e2de0713b8fb16bd46bb9df710a3dbeae2f3ca93af46e016dcc6b060405160405180910390a35050565b6000809054906101000a900473ffffffffffffffffffffffffffffffffffffffff1673ffffffffffffffffffffffffffffffffffffffff163373ffffffffffffffffffffffffffffffffffffffff16141515610b0a57600080fd5b6000809054906101000a900473ffffffffffffffffffffffffffffffffffffffff1673ffffffffffffffffffffffffffffffffffffffff167ff8df31144d9c2f0f6b59d69b8b98abd5459d07f2742c4df920b25aae33c6482060405160405180910390a260008060006101000a81548173ffffffffffffffffffffffffffffffffffffffff021916908373ffffffffffffffffffffffffffffffffffffffff160217905550565b6000809054906101000a900473ffffffffffffffffffffffffffffffffffffffff1681565b6000809054906101000a900473ffffffffffffffffffffffffffffffffffffffff1673ffffffffffffffffffffffffffffffffffffffff163373ffffffffffffffffffffffffffffffffffffffff16141515610c3157600080fd5b600160008373ffffffffffffffffffffffffffffffffffffffff1673ffffffffffffffffffffffffffffffffffffffff16815260200190815260200160002060009054906101000a900460ff161515610cbf576040517f08c379a0000000000000000000000000000000000000000000000000000000008152600401610cb690612248565b60405180910390fd5b60028054905081101515610d08576040517f08c379a0000000000000000000000000000000000000000000000000000000008152600401610cff906122a8565b60405180910390fd5b8173ffffffffffffffffffffffffffffffffffffffff16600282815481101515610d2e57fe5b9060005260206000200160009054906101000a900473ffffffffffffffffffffffffffffffffffffffff1673ffffffffffffffffffffffffffffffffffffffff16141515610db1576040517f08c379a0000000000000000000000000000000000000000000000000000000008152600401610da890612268565b60405180910390fd5b600160008373ffffffffffffffffffffffffffffffffffffffff1673ffffffffffffffffffffffffffffffffffffffff16815260200190815260200160002060006101000a81549060ff02191690556002600160028054905003815481101515610e1757fe5b9060005260206000200160009054906101000a900473ffffffffffffffffffffffffffffffffffffffff16600282815481101515610e5157fe5b9060005260206000200160006101000a81548173ffffffffffffffffffffffffffffffffffffffff021916908373ffffffffffffffffffffffffffffffffffffffff1602179055506001600281818054905003915081610eb19190611923565b503373ffffffffffffffffffffffffffffffffffffffff168273ffffffffffffffffffffffffffffffffffffffff167f1f32c1b084e2de0713b8fb16bd46bb9df710a3dbeae2f3ca93af46e016dcc6b060405160405180910390a35050565b60016020528060005260406000206000915054906101000a900460ff1681565b60606002805480602002602001604051908101604052809291908181526020018280548015610fb457602002820191906000526020600020905b8160009054906101000a900473ffffffffffffffffffffffffffffffffffffffff1673ffffffffffffffffffffffffffffffffffffffff1681526020019060010190808311610f6a575b5050505050905090565b610fc661194f565b610fce61194f565b606080600160003373ffffffffffffffffffffffffffffffffffffffff1673ffffffffffffffffffffffffffffffffffffffff16815260200190815260200160002060009054906101000a900460ff16151561105f576040517f08c379a0000000000000000000000000000000000000000000000000000000008152600401611056906122c8565b60405180910390fd5b610180604051908101604052808d600060048110151561107b57fe5b602002015173ffffffffffffffffffffffffffffffffffffffff1681526020018d60016004811015156110aa57fe5b602002015173ffffffffffffffffffffffffffffffffffffffff1681526020018d60026004811015156110d957fe5b602002015173ffffffffffffffffffffffffffffffffffffffff1681526020018d600360048110151561110857fe5b602002015173ffffffffffffffffffffffffffffffffffffffff1681526020018c600060068110151561113757fe5b602002015181526020018c600160068110151561115057fe5b602002015181526020018c600260068110151561116957fe5b602002015181526020018c600360068110151561118257fe5b602002015181526020018c600460068110151561119b57fe5b602002015181526020018c60056006811015156111b457fe5b602002015181526020018b60006002811015156111cd57fe5b602002015181526020018b60016002811015156111e657fe5b60200201518152509350610180604051908101604052808a600060048110151561120c57fe5b602002015173ffffffffffffffffffffffffffffffffffffffff1681526020018a600160048110151561123b57fe5b602002015173ffffffffffffffffffffffffffffffffffffffff1681526020018a600260048110151561126a57fe5b602002015173ffffffffffffffffffffffffffffffffffffffff1681526020018a600360048110151561129957fe5b602002015173ffffffffffffffffffffffffffffffffffffffff1681526020018960006006811015156112c857fe5b602002015181526020018960016006811015156112e157fe5b602002015181526020018960026006811015156112fa57fe5b6020020151815260200189600360068110151561131357fe5b6020020151815260200189600460068110151561132c57fe5b6020020151815260200189600560068110151561134557fe5b6020020151815260200188600060028110151561135e57fe5b6020020151815260200188600160028110151561137757fe5b602002015181525092506101006040519081016040528060d4815260200161259160d491399150816040518082805190602001908083835b6020831015156113d457805182526020820191506020810190506020830392506113af565b6001836020036101000a03801982511681845116808217855250505050505090500191505060405180910390208484888860405160240161141894939291906122e8565b604051602081830303815290604052907bffffffffffffffffffffffffffffffffffffffffffffffffffffffff19166020820180517bffffffffffffffffffffffffffffffffffffffffffffffffffffffff838183161783525050505090508c73ffffffffffffffffffffffffffffffffffffffff168160405180828051906020019080838360005b838110156114bc5780820151818401526020810190506114a1565b50505050905090810190601f1680156114e95780820380516001836020036101000a031916815260200191505b509150506000604051808303816000865af1915050151561150957600080fd5b50505050505050505050505050565b6000809054906101000a900473ffffffffffffffffffffffffffffffffffffffff1673ffffffffffffffffffffffffffffffffffffffff163373ffffffffffffffffffffffffffffffffffffffff1614151561157357600080fd5b61157c8161180d565b50565b6060806000809054906101000a900473ffffffffffffffffffffffffffffffffffffffff1673ffffffffffffffffffffffffffffffffffffffff163373ffffffffffffffffffffffffffffffffffffffff161415156115dd57600080fd5b6040805190810160405280601a81526020017f7472616e7366657228616464726573732c2075696e74323536290000000000008152509150816040518082805190602001908083835b60208310151561164b5780518252602082019150602081019050602083039250611626565b6001836020036101000a0380198251168184511680821785525050505050509050019150506040518091039020848460405160240161168b9291906121e2565b604051602081830303815290604052907bffffffffffffffffffffffffffffffffffffffffffffffffffffffff19166020820180517bffffffffffffffffffffffffffffffffffffffffffffffffffffffff83818316178352505050509050600360009054906101000a900473ffffffffffffffffffffffffffffffffffffffff1673ffffffffffffffffffffffffffffffffffffffff168160405180828051906020019080838360005b83811015611751578082015181840152602081019050611736565b50505050905090810190601f16801561177e5780820380516001836020036101000a031916815260200191505b509150506000604051808303816000865af1915050151561179e57600080fd5b6117b38360045461190790919063ffffffff16565b6004819055508373ffffffffffffffffffffffffffffffffffffffff167f14b43ca4c63c5423006ad978eab8a14386476b52f1d4728070ea20a36f13e83b846040516117ff9190612349565b60405180910390a250505050565b600073ffffffffffffffffffffffffffffffffffffffff168173ffffffffffffffffffffffffffffffffffffffff161415151561184957600080fd5b8073ffffffffffffffffffffffffffffffffffffffff166000809054906101000a900473ffffffffffffffffffffffffffffffffffffffff1673ffffffffffffffffffffffffffffffffffffffff167f8be0079c531659141344cd1fd0a4f28419497f9722a3daafe3b4186f6b6457e060405160405180910390a3806000806101000a81548173ffffffffffffffffffffffffffffffffffffffff021916908373ffffffffffffffffffffffffffffffffffffffff16021790555050565b6000818301905082811015151561191a57fe5b80905092915050565b81548183558181111561194a578183600052602060002091820191016119499190611a09565b5b505050565b61018060405190810160405280600073ffffffffffffffffffffffffffffffffffffffff168152602001600073ffffffffffffffffffffffffffffffffffffffff168152602001600073ffffffffffffffffffffffffffffffffffffffff168152602001600073ffffffffffffffffffffffffffffffffffffffff16815260200160008152602001600081526020016000815260200160008152602001600081526020016000815260200160608152602001606081525090565b611a2b91905b80821115611a27576000816000905550600101611a0f565b5090565b90565b6000611a3a8235612513565b905092915050565b600082601f8301121515611a5557600080fd5b6004611a68611a63826123e4565b6123b7565b91508183856020840282011115611a7e57600080fd5b60005b83811015611aae5781611a948882611a2e565b845260208401935060208301925050600181019050611a81565b5050505092915050565b600082601f8301121515611acb57600080fd5b6002611ade611ad982612406565b6123b7565b9150818360005b83811015611b155781358601611afb8882611b95565b845260208401935060208301925050600181019050611ae5565b5050505092915050565b600082601f8301121515611b3257600080fd5b6006611b45611b4082612428565b6123b7565b91508183856020840282011115611b5b57600080fd5b60005b83811015611b8b5781611b718882611c41565b845260208401935060208301925050600181019050611b5e565b5050505092915050565b600082601f8301121515611ba857600080fd5b8135611bbb611bb68261244a565b6123b7565b91508082526020830160208301858383011115611bd757600080fd5b611be283828461253d565b50505092915050565b600082601f8301121515611bfe57600080fd5b8135611c11611c0c82612476565b6123b7565b91508082526020830160208301858383011115611c2d57600080fd5b611c3883828461253d565b50505092915050565b6000611c4d8235612533565b905092915050565b600060208284031215611c6757600080fd5b6000611c7584828501611a2e565b91505092915050565b60008060008060008060008060006103208a8c031215611c9d57600080fd5b6000611cab8c828d01611a2e565b9950506020611cbc8c828d01611a42565b98505060a0611ccd8c828d01611b1f565b9750506101608a013567ffffffffffffffff811115611ceb57600080fd5b611cf78c828d01611ab8565b965050610180611d098c828d01611a42565b955050610200611d1b8c828d01611b1f565b9450506102c08a013567ffffffffffffffff811115611d3957600080fd5b611d458c828d01611ab8565b9350506102e08a013567ffffffffffffffff811115611d6357600080fd5b611d6f8c828d01611beb565b9250506103008a013567ffffffffffffffff811115611d8d57600080fd5b611d998c828d01611beb565b9150509295985092959850929598565b60008060408385031215611dbc57600080fd5b6000611dca85828601611a2e565b9250506020611ddb85828601611c41565b9150509250929050565b600080600080600060a08688031215611dfd57600080fd5b6000611e0b88828901611a2e565b9550506020611e1c88828901611c41565b9450506040611e2d88828901611a2e565b935050606086013567ffffffffffffffff811115611e4a57600080fd5b611e5688828901611beb565b925050608086013567ffffffffffffffff811115611e7357600080fd5b611e7f88828901611beb565b9150509295509295909350565b600060208284031215611e9e57600080fd5b6000611eac84828501611c41565b91505092915050565b611ebe816124dd565b82525050565b6000611ecf826124af565b808452602084019350611ee1836124a2565b60005b82811015611f1357611ef7868351611eb5565b611f00826124d0565b9150602086019550600181019050611ee4565b50849250505092915050565b611f28816124fd565b82525050565b6000611f39826124c5565b808452611f4d81602086016020860161254c565b611f568161257f565b602085010191505092915050565b6000611f6f826124ba565b808452611f8381602086016020860161254c565b611f8c8161257f565b602085010191505092915050565b6000601582527f5441524745545f4e4f545f415554484f52495a454400000000000000000000006020830152604082019050919050565b6000601b82527f415554484f52495a45445f414444524553535f4d49534d4154434800000000006020830152604082019050919050565b6000601982527f5441524745545f414c52454144595f415554484f52495a4544000000000000006020830152604082019050919050565b6000601382527f494e4445585f4f55545f4f465f424f554e4453000000000000000000000000006020830152604082019050919050565b6000601582527f53454e4445525f4e4f545f415554484f52495a454400000000000000000000006020830152604082019050919050565b6000610180830160008301516120c66000860182611eb5565b5060208301516120d96020860182611eb5565b5060408301516120ec6040860182611eb5565b5060608301516120ff6060860182611eb5565b50608083015161211260808601826121b8565b5060a083015161212560a08601826121b8565b5060c083015161213860c08601826121b8565b5060e083015161214b60e08601826121b8565b506101008301516121606101008601826121b8565b506101208301516121756101208601826121b8565b5061014083015184820361014086015261218f8282611f64565b9150506101608301518482036101608601526121ab8282611f64565b9150508091505092915050565b6121c181612509565b82525050565b60006020820190506121dc6000830184611eb5565b92915050565b60006040820190506121f76000830185611eb5565b61220460208301846121b8565b9392505050565b600060208201905081810360008301526122258184611ec4565b905092915050565b60006020820190506122426000830184611f1f565b92915050565b6000602082019050818103600083015261226181611f9a565b9050919050565b6000602082019050818103600083015261228181611fd1565b9050919050565b600060208201905081810360008301526122a181612008565b9050919050565b600060208201905081810360008301526122c18161203f565b9050919050565b600060208201905081810360008301526122e181612076565b9050919050565b6000608082019050818103600083015261230281876120ad565b9050818103602083015261231681866120ad565b9050818103604083015261232a8185611f2e565b9050818103606083015261233e8184611f2e565b905095945050505050565b600060208201905061235e60008301846121b8565b92915050565b600060808201905061237960008301876121b8565b6123866020830186611eb5565b81810360408301526123988185611f2e565b905081810360608301526123ac8184611f2e565b905095945050505050565b6000604051905081810181811067ffffffffffffffff821117156123da57600080fd5b8060405250919050565b600067ffffffffffffffff8211156123fb57600080fd5b602082029050919050565b600067ffffffffffffffff82111561241d57600080fd5b602082029050919050565b600067ffffffffffffffff82111561243f57600080fd5b602082029050919050565b600067ffffffffffffffff82111561246157600080fd5b601f19601f8301169050602081019050919050565b600067ffffffffffffffff82111561248d57600080fd5b601f19601f8301169050602081019050919050565b6000602082019050919050565b600081519050919050565b600081519050919050565b600081519050919050565b6000602082019050919050565b600073ffffffffffffffffffffffffffffffffffffffff82169050919050565b60008115159050919050565b6000819050919050565b600073ffffffffffffffffffffffffffffffffffffffff82169050919050565b6000819050919050565b82818337600083830152505050565b60005b8381101561256a57808201518184015260208101905061254f565b83811115612579576000848401525b50505050565b6000601f19601f830116905091905056006d617463684f72646572732828616464726573732c616464726573732c616464726573732c616464726573732c75696e743235362c75696e743235362c75696e743235362c75696e743235362c75696e743235362c75696e743235362c62797465732c6279746573292c28616464726573732c616464726573732c616464726573732c616464726573732c75696e743235362c75696e743235362c75696e743235362c75696e743235362c75696e743235362c75696e743235362c62797465732c6279746573292c62797465732c627974657329a265627a7a72305820eb2cf332a4fa45806f1d6eef83066c4d63f50e02eeb2eabc83fd335d4623a6ae6c6578706572696d656e74616cf50037",
  "source": "pragma solidity ^0.4.24;\npragma experimental ABIEncoderV2;\n\nimport \"openzeppelin-solidity/contracts/ownership/Ownable.sol\";\nimport \"openzeppelin-solidity/contracts/math/SafeMath.sol\";\n\ncontract CapoProxy is Ownable {\n\tusing SafeMath for uint256;\n\t\n  struct Order {\n\t\taddress makerAddress;           // Address that created the order.      \n\t\taddress takerAddress;           // Address that is allowed to fill the order. If set to 0, any address is allowed to fill the order.          \n\t\taddress feeRecipientAddress;    // Address that will recieve fees when order is filled.      \n\t\taddress senderAddress;          // Address that is allowed to call Exchange contract methods that affect this order. If set to 0, any address is allowed to call these methods.\n\t\tuint256 makerAssetAmount;       // Amount of makerAsset being offered by maker. Must be greater than 0.        \n\t\tuint256 takerAssetAmount;       // Amount of takerAsset being bid on by maker. Must be greater than 0.        \n\t\tuint256 makerFee;               // Amount of ZRX paid to feeRecipient by maker when order is filled. If set to 0, no transfer of ZRX from maker to feeRecipient will be attempted.\n\t\tuint256 takerFee;               // Amount of ZRX paid to feeRecipient by taker when order is filled. If set to 0, no transfer of ZRX from taker to feeRecipient will be attempted.\n\t\tuint256 expirationTimeSeconds;  // Timestamp in seconds at which order expires.          \n\t\tuint256 salt;                   // Arbitrary number to facilitate uniqueness of the order's hash.     \n\t\tbytes makerAssetData;           // Encoded data that can be decoded by a specified proxy contract when transferring makerAsset. The last byte references the id of this proxy.\n\t\tbytes takerAssetData;           // Encoded data that can be decoded by a specified proxy contract when transferring takerAsset. The last byte references the id of this proxy.\n  }\n\n\t/// @dev Address is authorized or not\n\tmapping (address => bool) public authorized;\n\n\t/// @dev list authorized addresses\n\taddress[] public authorities;\n\n\t/// @dev WETH token address\n\taddress public wethAddress;\n\n\t/// @dev Total weth amount is withdrew by owner\n\tuint256 private totalWithdraw;\n\t\n\t/// @dev Contructure function\n\t/// @param _wethAddress Address of WETH token\n\tconstructor(address _wethAddress) public {\t\t\n\t\twethAddress = _wethAddress;\n\t\taddAuthorizedAddress(msg.sender);\n\t}\n\n/* Events */\n\n\t// Event logged when a new address is authorized.\n\tevent AuthorizedAddressAdded(\n\t\t\taddress indexed target,\n\t\t\taddress indexed caller\n\t);\n\n\t// Event logged when a currently authorized address is unauthorized.\n\tevent AuthorizedAddressRemoved(\n\t\taddress indexed target,\n\t\taddress indexed caller\n\t);\n\n\t// Event logged when onwer withdraw weth\n\tevent WithDraw(\n\t\taddress indexed to,\n\t\tuint256 amount\n\t);\n\n/** Modifier */\n\n\t/// @dev Only authorized addresses can invoke functions with this modifier.\n\tmodifier onlyAuthorized {\n\t\trequire(\n\t\t\tauthorized[msg.sender],\n\t\t\t\"SENDER_NOT_AUTHORIZED\"\n\t\t);\n\t\t_;\n\t}\n\n\t/// @dev Only order's maker addresses can invoke functions with this modifier.\n\tmodifier onlyMaker(address maker) {\n\t\trequire(\n\t\t\tmaker == msg.sender, \n\t\t\t\"SENDER_IS_NOT_MARKER\"\n\t\t);\n\t\t_;\n\t}\n\n/** Owner functions */\n\n\t/// @dev Withdraw weth amount to address\n\t/// @param to Receiver address\n\t/// @param amount number of tokens will be transfered\n\tfunction withdraw(address to, uint256 amount) public onlyOwner {\n\t\tstring memory functionSignature = 'transfer(address, uint256)';\n\t\tbytes memory encodedDatas = abi.encodeWithSelector(bytes4(keccak256(functionSignature)), to, amount);\n\t\trequire(wethAddress.call(encodedDatas));\n\n\t\t// append total withdraw amount\n\t\ttotalWithdraw = totalWithdraw.add(amount);\n\t\temit WithDraw(to, amount);\n\t}\n\n\t/// @dev Get total amount of weth was withdrew\n\t/// @return total amount\n\tfunction getTotalWithdraw() public onlyOwner returns (uint256) {\n\t\treturn totalWithdraw;\n\t}\n\n/** Authorized functions */\n\t\n\t/// @dev Authorizes an address.\n\t/// @param target Address to authorize.\n\tfunction addAuthorizedAddress(address target) public onlyOwner {\n\t\trequire(\n\t\t\t\t!authorized[target],\n\t\t\t\t\"TARGET_ALREADY_AUTHORIZED\"\n\t\t);\n\n\t\tauthorized[target] = true;\n\t\tauthorities.push(target);\n\t\temit AuthorizedAddressAdded(target, msg.sender);\n\t}\n\n\t/// @dev Removes authorizion of an address.\n\t/// @param target Address to remove authorization from.\n\tfunction removeAuthorizedAddress(address target) external onlyOwner {\n\t\trequire(\n\t\t\t\tauthorized[target],\n\t\t\t\t\"TARGET_NOT_AUTHORIZED\"\n\t\t);\n\n\t\tdelete authorized[target];\n\t\tfor (uint256 i = 0; i < authorities.length; i++) {\n\t\t\t\tif (authorities[i] == target) {\n\t\t\t\t\t\tauthorities[i] = authorities[authorities.length - 1];\n\t\t\t\t\t\tauthorities.length -= 1;\n\t\t\t\t\t\tbreak;\n\t\t\t\t}\n\t\t}\n\t\temit AuthorizedAddressRemoved(target, msg.sender);\n\t}\n\n\t/// @dev Removes authorizion of an address.\n\t/// @param target Address to remove authorization from.\n\t/// @param index Index of target in authorities array.\n\tfunction removeAuthorizedAddressAtIndex(\n\t\taddress target, \n\t\tuint256 index\n\t) external onlyOwner {\n\t\trequire(\n\t\t\t\tauthorized[target],\n\t\t\t\t\"TARGET_NOT_AUTHORIZED\"\n\t\t);\n\t\trequire(\n\t\t\t\tindex < authorities.length,\n\t\t\t\t\"INDEX_OUT_OF_BOUNDS\"\n\t\t);\n\t\trequire(\n\t\t\t\tauthorities[index] == target,\n\t\t\t\t\"AUTHORIZED_ADDRESS_MISMATCH\"\n\t\t);\n\n\t\tdelete authorized[target];\n\t\tauthorities[index] = authorities[authorities.length - 1];\n\t\tauthorities.length -= 1;\n\t\temit AuthorizedAddressRemoved(target, msg.sender);\n\t}\n\n\t/// @dev Gets all authorized addresses.\n\t/// @return Array of authorized addresses.\n\tfunction getAuthorizedAddresses() external view returns (address[] memory) {\n\t\treturn authorities;\n\t}\n\n/** 0x function */\n\n\t/// @dev Send executed transaction to exchange\n\t/// @param exchangeAddress Exchange smartcontract address\n\t/// @param salt Arbitrary number to ensure uniqueness of transaction hash.\n\t/// @param signerAddress Address of transaction signer.\n\t/// @param data AbiV2 encoded calldata.\n\t/// @param signature Proof of signer transaction by signer.\n\tfunction executeTransaction(\n\t\taddress exchangeAddress,\n\t\t\tuint256 salt,\n\t\t\taddress signerAddress,\n\t\t\tbytes data,\n\t\t\tbytes signature\n\t) public {\n\t\tstring memory functionSignature = 'executeTransaction(uint256,address,bytes,bytes)';\n\t\tbytes memory encodedDatas = abi.encodeWithSelector(bytes4(keccak256(functionSignature)), salt, signerAddress, data,signature);\n\t\trequire(exchangeAddress.call(encodedDatas));\n\t}\n\n\t/// @dev Match two order. Only authorized msg.sender accepted\n\t/// @param exchangeAddress Exchange smartcontract address\n\t/// @param leftOrderAddresses First order's makerAddress, takerAddress, feeRecipientAddress, senderAddress\n\t/// @param leftOrderValues First order's makerAssetAmount, takerAssetAmount, makerFee, takerFee, expirationTimeSeconds, salt\n\t/// @param leftOrderDatas First order's makerAssetData, takerAssetData\n\t/// @param rightOrderAddresses Second order's makerAddress, takerAddress, feeRecipientAddress, senderAddress\n\t/// @param rightOrderValues Second order's makerAssetAmount, takerAssetAmount, makerFee, takerFee, expirationTimeSeconds, salt\n\t/// @param rightOrderDatas Second order's makerAssetData, takerAssetData\n\t/// @param leftSignature Proof that order was created by the left maker.\n  /// @param rightSignature Proof that order was created by the right maker.\n\tfunction matchOrders(\n\t\taddress exchangeAddress,\n\t\taddress[4] leftOrderAddresses,\n\t\tuint256[6] leftOrderValues, \n\t\tbytes[2] leftOrderDatas, \n\t\taddress[4] rightOrderAddresses, \n\t\tuint256[6] rightOrderValues, \n\t\tbytes[2] rightOrderDatas, \n\t\tbytes memory leftSignature,\n\t\tbytes memory rightSignature\n  ) public onlyAuthorized\n\t{\n\t\tOrder memory leftOrder = Order(\n\t\t\tleftOrderAddresses[0],\n\t\t\tleftOrderAddresses[1],\n\t\t\tleftOrderAddresses[2],\n\t\t\tleftOrderAddresses[3],\n\t\t\tleftOrderValues[0],\n\t\t\tleftOrderValues[1],\n\t\t\tleftOrderValues[2],\n\t\t\tleftOrderValues[3],\n\t\t\tleftOrderValues[4],\n\t\t\tleftOrderValues[5],\n\t\t\tleftOrderDatas[0],\n\t\t\tleftOrderDatas[1]\n\t\t);\n\n\t\tOrder memory rightOrder = Order(\n\t\t\trightOrderAddresses[0],\n\t\t\trightOrderAddresses[1],\n\t\t\trightOrderAddresses[2],\n\t\t\trightOrderAddresses[3],\n\t\t\trightOrderValues[0],\n\t\t\trightOrderValues[1],\n\t\t\trightOrderValues[2],\n\t\t\trightOrderValues[3],\n\t\t\trightOrderValues[4],\n\t\t\trightOrderValues[5],\n\t\t\trightOrderDatas[0],\n\t\t\trightOrderDatas[1]\n\t\t);\n\t\tstring memory functionSignature = \"matchOrders((address,address,address,address,uint256,uint256,uint256,uint256,uint256,uint256,bytes,bytes),(address,address,address,address,uint256,uint256,uint256,uint256,uint256,uint256,bytes,bytes),bytes,bytes)\";\n\t\tbytes memory encodedDatas = abi.encodeWithSelector(bytes4(keccak256(functionSignature)), leftOrder,rightOrder,leftSignature,rightSignature);\n\t\trequire(exchangeAddress.call(encodedDatas));\n\t}\n}",
  "sourcePath": "/Users/duongkhong/Documents/Projects/coincapo/smartcontracts/contracts/CapoProxy.sol",
  "compiler": {
    "name": "solc",
    "version": "0.4.24+commit.e67f0147.Emscripten.clang"
  },
  "schemaVersion": "2.0.0",
  "updatedAt": "2018-08-01T04:08:02.406Z"
}