{
  "contractName": "CAPO",
  "abi": [
    {
      "constant": true,
      "inputs": [
        {
          "name": "addr",
          "type": "address"
        },
        {
          "name": "roleName",
          "type": "string"
        }
      ],
      "name": "checkRole",
      "outputs": [],
      "payable": false,
      "stateMutability": "view",
      "type": "function"
    },
    {
      "constant": true,
      "inputs": [],
      "name": "ROLE_RELAYER",
      "outputs": [
        {
          "name": "",
          "type": "string"
        }
      ],
      "payable": false,
      "stateMutability": "view",
      "type": "function"
    },
    {
      "constant": true,
      "inputs": [
        {
          "name": "addr",
          "type": "address"
        },
        {
          "name": "roleName",
          "type": "string"
        }
      ],
      "name": "hasRole",
      "outputs": [
        {
          "name": "",
          "type": "bool"
        }
      ],
      "payable": false,
      "stateMutability": "view",
      "type": "function"
    },
    {
      "constant": false,
      "inputs": [],
      "name": "renounceOwnership",
      "outputs": [],
      "payable": false,
      "stateMutability": "nonpayable",
      "type": "function"
    },
    {
      "constant": true,
      "inputs": [],
      "name": "ROLE_HOLDER",
      "outputs": [
        {
          "name": "",
          "type": "string"
        }
      ],
      "payable": false,
      "stateMutability": "view",
      "type": "function"
    },
    {
      "constant": true,
      "inputs": [],
      "name": "owner",
      "outputs": [
        {
          "name": "",
          "type": "address"
        }
      ],
      "payable": false,
      "stateMutability": "view",
      "type": "function"
    },
    {
      "constant": true,
      "inputs": [],
      "name": "ROLE_ADMIN",
      "outputs": [
        {
          "name": "",
          "type": "string"
        }
      ],
      "payable": false,
      "stateMutability": "view",
      "type": "function"
    },
    {
      "constant": false,
      "inputs": [
        {
          "name": "_newOwner",
          "type": "address"
        }
      ],
      "name": "transferOwnership",
      "outputs": [],
      "payable": false,
      "stateMutability": "nonpayable",
      "type": "function"
    },
    {
      "inputs": [],
      "payable": false,
      "stateMutability": "nonpayable",
      "type": "constructor"
    },
    {
      "payable": true,
      "stateMutability": "payable",
      "type": "fallback"
    },
    {
      "anonymous": false,
      "inputs": [
        {
          "indexed": false,
          "name": "addr",
          "type": "address"
        },
        {
          "indexed": false,
          "name": "roleName",
          "type": "string"
        }
      ],
      "name": "RoleAdded",
      "type": "event"
    },
    {
      "anonymous": false,
      "inputs": [
        {
          "indexed": false,
          "name": "addr",
          "type": "address"
        },
        {
          "indexed": false,
          "name": "roleName",
          "type": "string"
        }
      ],
      "name": "RoleRemoved",
      "type": "event"
    },
    {
      "anonymous": false,
      "inputs": [
        {
          "indexed": true,
          "name": "previousOwner",
          "type": "address"
        }
      ],
      "name": "OwnershipRenounced",
      "type": "event"
    },
    {
      "anonymous": false,
      "inputs": [
        {
          "indexed": true,
          "name": "previousOwner",
          "type": "address"
        },
        {
          "indexed": true,
          "name": "newOwner",
          "type": "address"
        }
      ],
      "name": "OwnershipTransferred",
      "type": "event"
    },
    {
      "constant": true,
      "inputs": [
        {
          "name": "_owner",
          "type": "address"
        }
      ],
      "name": "balanceOf",
      "outputs": [
        {
          "name": "",
          "type": "uint256"
        }
      ],
      "payable": false,
      "stateMutability": "view",
      "type": "function"
    },
    {
      "constant": true,
      "inputs": [
        {
          "name": "_owner",
          "type": "address"
        }
      ],
      "name": "vestingOf",
      "outputs": [
        {
          "name": "",
          "type": "uint256"
        }
      ],
      "payable": false,
      "stateMutability": "view",
      "type": "function"
    },
    {
      "constant": false,
      "inputs": [],
      "name": "addAdmin",
      "outputs": [],
      "payable": false,
      "stateMutability": "nonpayable",
      "type": "function"
    },
    {
      "constant": false,
      "inputs": [],
      "name": "removeAdmin",
      "outputs": [],
      "payable": false,
      "stateMutability": "nonpayable",
      "type": "function"
    },
    {
      "constant": false,
      "inputs": [
        {
          "name": "_holder",
          "type": "address"
        }
      ],
      "name": "addHolder",
      "outputs": [],
      "payable": false,
      "stateMutability": "nonpayable",
      "type": "function"
    },
    {
      "constant": false,
      "inputs": [
        {
          "name": "_relayer",
          "type": "address"
        }
      ],
      "name": "addRelayer",
      "outputs": [],
      "payable": false,
      "stateMutability": "nonpayable",
      "type": "function"
    },
    {
      "constant": false,
      "inputs": [
        {
          "name": "_holder",
          "type": "address"
        }
      ],
      "name": "upgradeToRelayer",
      "outputs": [],
      "payable": false,
      "stateMutability": "nonpayable",
      "type": "function"
    },
    {
      "constant": false,
      "inputs": [
        {
          "name": "_holder",
          "type": "address"
        }
      ],
      "name": "removeHolder",
      "outputs": [],
      "payable": false,
      "stateMutability": "nonpayable",
      "type": "function"
    },
    {
      "constant": false,
      "inputs": [
        {
          "name": "_relayer",
          "type": "address"
        }
      ],
      "name": "removeRelayer",
      "outputs": [],
      "payable": false,
      "stateMutability": "nonpayable",
      "type": "function"
    },
    {
      "constant": true,
      "inputs": [
        {
          "name": "_from",
          "type": "address"
        },
        {
          "name": "_value",
          "type": "uint256"
        },
        {
          "name": "_data",
          "type": "bytes"
        }
      ],
      "name": "tokenFallback",
      "outputs": [],
      "payable": false,
      "stateMutability": "view",
      "type": "function"
    },
    {
      "constant": false,
      "inputs": [
        {
          "name": "_from",
          "type": "address"
        }
      ],
      "name": "directPark",
      "outputs": [],
      "payable": true,
      "stateMutability": "payable",
      "type": "function"
    },
    {
      "constant": false,
      "inputs": [],
      "name": "holderWithdraw",
      "outputs": [],
      "payable": false,
      "stateMutability": "nonpayable",
      "type": "function"
    },
    {
      "constant": false,
      "inputs": [],
      "name": "relayerWithdraw",
      "outputs": [],
      "payable": false,
      "stateMutability": "nonpayable",
      "type": "function"
    }
  ],
  "bytecode": "0x608060405234801561001057600080fd5b50336000806101000a81548173ffffffffffffffffffffffffffffffffffffffff021916908373ffffffffffffffffffffffffffffffffffffffff16021790555061009f336040805190810160405280600581526020017f61646d696e0000000000000000000000000000000000000000000000000000008152506100a4640100000000026401000000009004565b610260565b61012e826001836040518082805190602001908083835b6020831015156100e057805182526020820191506020810190506020830392506100bb565b6001836020036101000a038019825116818451168082178552505050505050905001915050908152602001604051809103902061020264010000000002611089179091906401000000009004565b7fbfec83d64eaa953f2708271a023ab9ee82057f8f3578d548c1a4ba0b5b7004898282604051808373ffffffffffffffffffffffffffffffffffffffff1673ffffffffffffffffffffffffffffffffffffffff16815260200180602001828103825283818151815260200191508051906020019080838360005b838110156101c35780820151818401526020810190506101a8565b50505050905090810190601f1680156101f05780820380516001836020036101000a031916815260200191505b50935050505060405180910390a15050565b60018260000160008373ffffffffffffffffffffffffffffffffffffffff1673ffffffffffffffffffffffffffffffffffffffff16815260200190815260200160002060006101000a81548160ff0219169083151502179055505050565b6111138061026f6000396000f30060806040526004361061011d576000357c0100000000000000000000000000000000000000000000000000000000900463ffffffff1680630988ca8c146101285780630ad14d0c146101b1578063209f8044146101f4578063217fe6c61461028457806360f0a5ac1461032557806369a17f95146103685780636d5aaf801461039e57806370a08231146103b5578063715018a61461040c57806376d138711461042357806379cf19601461043a5780638da5cb5b146104ca5780638dd42808146105215780639a202d4714610564578063ac1e17df1461057b578063c0ee0b8a146105be578063c47cfca114610651578063d391014b146106a8578063dd39f00d14610738578063f2fde38b1461077b578063fece291e146107be575b610126336107d5565b005b34801561013457600080fd5b506101af600480360381019080803573ffffffffffffffffffffffffffffffffffffffff169060200190929190803590602001908201803590602001908080601f01602080910402602001604051908101604052809392919081815260200183838082843782019150505050505091929192905050506107d8565b005b3480156101bd57600080fd5b506101f2600480360381019080803573ffffffffffffffffffffffffffffffffffffffff169060200190929190505050610859565b005b34801561020057600080fd5b5061020961089b565b6040518080602001828103825283818151815260200191508051906020019080838360005b8381101561024957808201518184015260208101905061022e565b50505050905090810190601f1680156102765780820380516001836020036101000a031916815260200191505b509250505060405180910390f35b34801561029057600080fd5b5061030b600480360381019080803573ffffffffffffffffffffffffffffffffffffffff169060200190929190803590602001908201803590602001908080601f01602080910402602001604051908101604052809392919081815260200183838082843782019150505050505091929192905050506108d4565b604051808215151515815260200191505060405180910390f35b34801561033157600080fd5b50610366600480360381019080803573ffffffffffffffffffffffffffffffffffffffff16906020019092919050505061095b565b005b61039c600480360381019080803573ffffffffffffffffffffffffffffffffffffffff1690602001909291905050506107d5565b005b3480156103aa57600080fd5b506103b361099d565b005b3480156103c157600080fd5b506103f6600480360381019080803573ffffffffffffffffffffffffffffffffffffffff1690602001909291905050506109fa565b6040518082815260200191505060405180910390f35b34801561041857600080fd5b50610421610a01565b005b34801561042f57600080fd5b50610438610b03565b005b34801561044657600080fd5b5061044f610b44565b6040518080602001828103825283818151815260200191508051906020019080838360005b8381101561048f578082015181840152602081019050610474565b50505050905090810190601f1680156104bc5780820380516001836020036101000a031916815260200191505b509250505060405180910390f35b3480156104d657600080fd5b506104df610b7d565b604051808273ffffffffffffffffffffffffffffffffffffffff1673ffffffffffffffffffffffffffffffffffffffff16815260200191505060405180910390f35b34801561052d57600080fd5b50610562600480360381019080803573ffffffffffffffffffffffffffffffffffffffff169060200190929190505050610ba2565b005b34801561057057600080fd5b50610579610be4565b005b34801561058757600080fd5b506105bc600480360381019080803573ffffffffffffffffffffffffffffffffffffffff169060200190929190505050610c41565b005b3480156105ca57600080fd5b5061064f600480360381019080803573ffffffffffffffffffffffffffffffffffffffff16906020019092919080359060200190929190803590602001908201803590602001908080601f0160208091040260200160405190810160405280939291908181526020018383808284378201915050505050509192919290505050610c83565b005b34801561065d57600080fd5b50610692600480360381019080803573ffffffffffffffffffffffffffffffffffffffff169060200190929190505050610d2a565b6040518082815260200191505060405180910390f35b3480156106b457600080fd5b506106bd610d76565b6040518080602001828103825283818151815260200191508051906020019080838360005b838110156106fd5780820151818401526020810190506106e2565b50505050905090810190601f16801561072a5780820380516001836020036101000a031916815260200191505b509250505060405180910390f35b34801561074457600080fd5b50610779600480360381019080803573ffffffffffffffffffffffffffffffffffffffff169060200190929190505050610daf565b005b34801561078757600080fd5b506107bc600480360381019080803573ffffffffffffffffffffffffffffffffffffffff169060200190929190505050610df1565b005b3480156107ca57600080fd5b506107d3610e58565b005b50565b610855826001836040518082805190602001908083835b60208310151561081457805182526020820191506020810190506020830392506107ef565b6001836020036101000a0380198251168184511680821785525050505050509050019150509081526020016040518091039020610e9990919063ffffffff16565b5050565b610898336040805190810160405280600581526020017f61646d696e0000000000000000000000000000000000000000000000000000008152506107d8565b50565b6040805190810160405280600781526020017f72656c617965720000000000000000000000000000000000000000000000000081525081565b6000610953836001846040518082805190602001908083835b60208310151561091257805182526020820191506020810190506020830392506108ed565b6001836020036101000a0380198251168184511680821785525050505050509050019150509081526020016040518091039020610eb290919063ffffffff16565b905092915050565b61099a336040805190810160405280600581526020017f61646d696e0000000000000000000000000000000000000000000000000000008152506107d8565b50565b6000809054906101000a900473ffffffffffffffffffffffffffffffffffffffff1673ffffffffffffffffffffffffffffffffffffffff163373ffffffffffffffffffffffffffffffffffffffff161415156109f857600080fd5b565b6000919050565b6000809054906101000a900473ffffffffffffffffffffffffffffffffffffffff1673ffffffffffffffffffffffffffffffffffffffff163373ffffffffffffffffffffffffffffffffffffffff16141515610a5c57600080fd5b6000809054906101000a900473ffffffffffffffffffffffffffffffffffffffff1673ffffffffffffffffffffffffffffffffffffffff167ff8df31144d9c2f0f6b59d69b8b98abd5459d07f2742c4df920b25aae33c6482060405160405180910390a260008060006101000a81548173ffffffffffffffffffffffffffffffffffffffff021916908373ffffffffffffffffffffffffffffffffffffffff160217905550565b610b42336040805190810160405280600681526020017f686f6c64657200000000000000000000000000000000000000000000000000008152506107d8565b565b6040805190810160405280600681526020017f686f6c646572000000000000000000000000000000000000000000000000000081525081565b6000809054906101000a900473ffffffffffffffffffffffffffffffffffffffff1681565b610be1336040805190810160405280600581526020017f61646d696e0000000000000000000000000000000000000000000000000000008152506107d8565b50565b6000809054906101000a900473ffffffffffffffffffffffffffffffffffffffff1673ffffffffffffffffffffffffffffffffffffffff163373ffffffffffffffffffffffffffffffffffffffff16141515610c3f57600080fd5b565b610c80336040805190810160405280600581526020017f61646d696e0000000000000000000000000000000000000000000000000000008152506107d8565b50565b600033905060405180807f434150000000000000000000000000000000000000000000000000000000000081525060030190506040518091039020600019168173ffffffffffffffffffffffffffffffffffffffff166395d89b4160405180838363ffffffff1690640100000000021768010000000000000000028152601801925050506040518091039020600019161415610d2557610d24848484610f0b565b5b600080fd5b6000600360008373ffffffffffffffffffffffffffffffffffffffff1673ffffffffffffffffffffffffffffffffffffffff168152602001908152602001600020600001549050919050565b6040805190810160405280600581526020017f61646d696e00000000000000000000000000000000000000000000000000000081525081565b610dee336040805190810160405280600581526020017f61646d696e0000000000000000000000000000000000000000000000000000008152506107d8565b50565b6000809054906101000a900473ffffffffffffffffffffffffffffffffffffffff1673ffffffffffffffffffffffffffffffffffffffff163373ffffffffffffffffffffffffffffffffffffffff16141515610e4c57600080fd5b610e5581610f73565b50565b610e97336040805190810160405280600781526020017f72656c61796572000000000000000000000000000000000000000000000000008152506107d8565b565b610ea38282610eb2565b1515610eae57600080fd5b5050565b60008260000160008373ffffffffffffffffffffffffffffffffffffffff1673ffffffffffffffffffffffffffffffffffffffff16815260200190815260200160002060009054906101000a900460ff16905092915050565b6000600360008573ffffffffffffffffffffffffffffffffffffffff1673ffffffffffffffffffffffffffffffffffffffff1681526020019081526020016000209050610f6583826000015461106d90919063ffffffff16565b816000018190555050505050565b600073ffffffffffffffffffffffffffffffffffffffff168173ffffffffffffffffffffffffffffffffffffffff1614151515610faf57600080fd5b8073ffffffffffffffffffffffffffffffffffffffff166000809054906101000a900473ffffffffffffffffffffffffffffffffffffffff1673ffffffffffffffffffffffffffffffffffffffff167f8be0079c531659141344cd1fd0a4f28419497f9722a3daafe3b4186f6b6457e060405160405180910390a3806000806101000a81548173ffffffffffffffffffffffffffffffffffffffff021916908373ffffffffffffffffffffffffffffffffffffffff16021790555050565b6000818301905082811015151561108057fe5b80905092915050565b60018260000160008373ffffffffffffffffffffffffffffffffffffffff1673ffffffffffffffffffffffffffffffffffffffff16815260200190815260200160002060006101000a81548160ff02191690831515021790555050505600a165627a7a72305820b529cb6a1cd80305185c81bc1fd24a53ecb1160909abad4ccd0ea14d638a21570029",
  "source": "pragma solidity ^0.4.24;\n\nimport \"openzeppelin-solidity/contracts/ownership/Ownable.sol\";\nimport \"openzeppelin-solidity/contracts/ownership/rbac/RBAC.sol\";\nimport \"openzeppelin-solidity/contracts/math/SafeMath.sol\";\nimport \"./Token/Receiver_Interface.sol\";\nimport './Token/CAP.sol';\n\ncontract CAPO is Ownable, RBAC, ContractReceiver {\n\tusing SafeMath for uint256;\n\n\tstring public constant ROLE_ADMIN = \"admin\";\n\tstring public constant ROLE_HOLDER = \"holder\";\n\tstring public constant ROLE_RELAYER = \"relayer\";\t\n\n\tstruct Wallet {\n\t\tuint208 balance; // current balance of user\n\t\tuint16 lastDividendPeriod; // last processed dividend period of user's tokens\n\t\tuint32 nextWithdrawTime; // next withdrawal possible after this timestamp\n\t}\n\tmapping (address => Wallet) wallets;\n\n\tstruct Vesting {\n\t\tuint256 value;\n\t\tuint32 lastVestingTime;\n\t}\n\tmapping (address => Vesting) vestings;\n\n\tstruct Tx {\n\n\t}\n\tTx[] tx;\n\n\tmodifier onlyAdmin() {\n\t\tcheckRole(msg.sender, ROLE_ADMIN);\n\t\t_;\n\t}\n\n\tmodifier onlyHolder() {\n\t\tcheckRole(msg.sender, ROLE_HOLDER);\n\t\t_;\n\t}\n\n\tmodifier onlyRelayer() {\n\t\tcheckRole(msg.sender, ROLE_RELAYER);\n\t\t_;\n\t}\n\n\tconstructor() public {\n\t\taddRole(msg.sender, ROLE_ADMIN);\n\t}\n\n/*Public getter functions */\n\n\tfunction balanceOf(address _owner) public view returns (uint256) {\n\n\t}\n\n\tfunction vestingOf(address _owner) public view returns (uint256) {\n\t\treturn vestings[_owner].value;\n\t}\n\n/* Admin functions */\t\n\n\tfunction addAdmin() public onlyOwner {\n\n\t}\n\n\tfunction removeAdmin() public onlyOwner {\n\n\t}\n\n\tfunction addHolder(address _holder) public onlyAdmin {\n\n\t}\n\n\tfunction addRelayer(address _relayer) public onlyAdmin {\n\n\t}\n\n\tfunction upgradeToRelayer(address _holder) public onlyAdmin {\n\n\t}\n\n\tfunction removeHolder(address _holder) public onlyAdmin {\n\n\t}\n\n\tfunction removeRelayer(address _relayer) public onlyAdmin {\n\n\t}\n\n\tfunction () payable {\n\t\tdirectPark(msg.sender);\n\t}\n\n\t/**\n\t * @dev handle incomming token transfer transaction\n\t */\n\tfunction tokenFallback(address _from, uint256 _value, bytes _data) public view {\n\t\tCAP token = CAP(msg.sender);\n\t\tif (keccak256(token.symbol) == keccak256('CAP')) {\n\t\t\tpark(_from, _value, _data);\n\t\t}\n\t\trevert();\n\t}\n\n\tfunction park(address _from, uint256 _value, bytes _data) private {\n\t\tVesting vest = vestings[_from];\n\t\tvest.value = vest.value.add(_value);\n\t}\n\n\tfunction directPark(address _from) payable {\n\t\t\n\t}\n\n/*Holder and relayer functions */\n\n\tfunction holderWithdraw() onlyHolder {\n\n\t}\n\n\tfunction relayerWithdraw() onlyRelayer {\n\n\t}\n}",
  "sourcePath": "/Users/duongkhong/Documents/Projects/coincapo/smartcontracts/contracts/CAPO.sol",
  "compiler": {
    "name": "solc",
    "version": "0.4.24+commit.e67f0147.Emscripten.clang"
  },
  "schemaVersion": "2.0.1",
  "updatedAt": "2018-06-28T03:52:56.680Z"
}