{
  "contractName": "CapoProxy",
  "abi": [
    {
      "constant": true,
      "inputs": [
        {
          "name": "",
          "type": "uint256"
        }
      ],
      "name": "authorities",
      "outputs": [
        {
          "name": "",
          "type": "address"
        }
      ],
      "payable": false,
      "stateMutability": "view",
      "type": "function"
    },
    {
      "constant": false,
      "inputs": [],
      "name": "renounceOwnership",
      "outputs": [],
      "payable": false,
      "stateMutability": "nonpayable",
      "type": "function"
    },
    {
      "constant": true,
      "inputs": [],
      "name": "owner",
      "outputs": [
        {
          "name": "",
          "type": "address"
        }
      ],
      "payable": false,
      "stateMutability": "view",
      "type": "function"
    },
    {
      "constant": true,
      "inputs": [
        {
          "name": "",
          "type": "address"
        }
      ],
      "name": "authorized",
      "outputs": [
        {
          "name": "",
          "type": "bool"
        }
      ],
      "payable": false,
      "stateMutability": "view",
      "type": "function"
    },
    {
      "constant": true,
      "inputs": [
        {
          "name": "",
          "type": "address"
        }
      ],
      "name": "totalWithdraws",
      "outputs": [
        {
          "name": "",
          "type": "uint256"
        }
      ],
      "payable": false,
      "stateMutability": "view",
      "type": "function"
    },
    {
      "constant": false,
      "inputs": [
        {
          "name": "_newOwner",
          "type": "address"
        }
      ],
      "name": "transferOwnership",
      "outputs": [],
      "payable": false,
      "stateMutability": "nonpayable",
      "type": "function"
    },
    {
      "inputs": [],
      "payable": false,
      "stateMutability": "nonpayable",
      "type": "constructor"
    },
    {
      "anonymous": false,
      "inputs": [
        {
          "indexed": true,
          "name": "target",
          "type": "address"
        },
        {
          "indexed": true,
          "name": "caller",
          "type": "address"
        }
      ],
      "name": "AuthorizedAddressAdded",
      "type": "event"
    },
    {
      "anonymous": false,
      "inputs": [
        {
          "indexed": true,
          "name": "target",
          "type": "address"
        },
        {
          "indexed": true,
          "name": "caller",
          "type": "address"
        }
      ],
      "name": "AuthorizedAddressRemoved",
      "type": "event"
    },
    {
      "anonymous": false,
      "inputs": [
        {
          "indexed": true,
          "name": "asset",
          "type": "address"
        },
        {
          "indexed": true,
          "name": "to",
          "type": "address"
        },
        {
          "indexed": false,
          "name": "amount",
          "type": "uint256"
        }
      ],
      "name": "WithDraw",
      "type": "event"
    },
    {
      "anonymous": false,
      "inputs": [
        {
          "indexed": true,
          "name": "previousOwner",
          "type": "address"
        }
      ],
      "name": "OwnershipRenounced",
      "type": "event"
    },
    {
      "anonymous": false,
      "inputs": [
        {
          "indexed": true,
          "name": "previousOwner",
          "type": "address"
        },
        {
          "indexed": true,
          "name": "newOwner",
          "type": "address"
        }
      ],
      "name": "OwnershipTransferred",
      "type": "event"
    },
    {
      "constant": false,
      "inputs": [
        {
          "name": "asset",
          "type": "address"
        },
        {
          "name": "to",
          "type": "address"
        },
        {
          "name": "amount",
          "type": "uint256"
        }
      ],
      "name": "withdraw",
      "outputs": [],
      "payable": false,
      "stateMutability": "nonpayable",
      "type": "function"
    },
    {
      "constant": false,
      "inputs": [
        {
          "name": "asset",
          "type": "address"
        }
      ],
      "name": "getTotalWithdraw",
      "outputs": [
        {
          "name": "",
          "type": "uint256"
        }
      ],
      "payable": false,
      "stateMutability": "nonpayable",
      "type": "function"
    },
    {
      "constant": false,
      "inputs": [
        {
          "name": "target",
          "type": "address"
        }
      ],
      "name": "addAuthorizedAddress",
      "outputs": [],
      "payable": false,
      "stateMutability": "nonpayable",
      "type": "function"
    },
    {
      "constant": false,
      "inputs": [
        {
          "name": "target",
          "type": "address"
        }
      ],
      "name": "removeAuthorizedAddress",
      "outputs": [],
      "payable": false,
      "stateMutability": "nonpayable",
      "type": "function"
    },
    {
      "constant": false,
      "inputs": [
        {
          "name": "target",
          "type": "address"
        },
        {
          "name": "index",
          "type": "uint256"
        }
      ],
      "name": "removeAuthorizedAddressAtIndex",
      "outputs": [],
      "payable": false,
      "stateMutability": "nonpayable",
      "type": "function"
    },
    {
      "constant": true,
      "inputs": [],
      "name": "getAuthorizedAddresses",
      "outputs": [
        {
          "name": "",
          "type": "address[]"
        }
      ],
      "payable": false,
      "stateMutability": "view",
      "type": "function"
    },
    {
      "constant": false,
      "inputs": [
        {
          "name": "exchangeAddress",
          "type": "address"
        },
        {
          "name": "salt",
          "type": "uint256"
        },
        {
          "name": "signerAddress",
          "type": "address"
        },
        {
          "name": "data",
          "type": "bytes"
        },
        {
          "name": "signature",
          "type": "bytes"
        }
      ],
      "name": "executeTransaction",
      "outputs": [],
      "payable": false,
      "stateMutability": "nonpayable",
      "type": "function"
    },
    {
      "constant": false,
      "inputs": [
        {
          "name": "exchangeAddress",
          "type": "address"
        },
        {
          "name": "leftOrderAddresses",
          "type": "address[4]"
        },
        {
          "name": "leftOrderValues",
          "type": "uint256[6]"
        },
        {
          "name": "leftOrderDatas",
          "type": "bytes[2]"
        },
        {
          "name": "rightOrderAddresses",
          "type": "address[4]"
        },
        {
          "name": "rightOrderValues",
          "type": "uint256[6]"
        },
        {
          "name": "rightOrderDatas",
          "type": "bytes[2]"
        },
        {
          "name": "leftSignature",
          "type": "bytes"
        },
        {
          "name": "rightSignature",
          "type": "bytes"
        }
      ],
      "name": "matchOrders",
      "outputs": [],
      "payable": false,
      "stateMutability": "nonpayable",
      "type": "function"
    }
  ],
  "bytecode": "0x60806040523480156200001157600080fd5b50336000806101000a81548173ffffffffffffffffffffffffffffffffffffffff021916908373ffffffffffffffffffffffffffffffffffffffff1602179055506200006c3362000072640100000000026401000000009004565b620002d3565b6000809054906101000a900473ffffffffffffffffffffffffffffffffffffffff1673ffffffffffffffffffffffffffffffffffffffff163373ffffffffffffffffffffffffffffffffffffffff16141515620000ce57600080fd5b600160008273ffffffffffffffffffffffffffffffffffffffff1673ffffffffffffffffffffffffffffffffffffffff16815260200190815260200160002060009054906101000a900460ff1615151562000160576040517f08c379a00000000000000000000000000000000000000000000000000000000081526004016200015790620002b1565b60405180910390fd5b60018060008373ffffffffffffffffffffffffffffffffffffffff1673ffffffffffffffffffffffffffffffffffffffff16815260200190815260200160002060006101000a81548160ff02191690831515021790555060028190806001815401808255809150509060018203906000526020600020016000909192909190916101000a81548173ffffffffffffffffffffffffffffffffffffffff021916908373ffffffffffffffffffffffffffffffffffffffff160217905550503373ffffffffffffffffffffffffffffffffffffffff168173ffffffffffffffffffffffffffffffffffffffff167f3147867c59d17e8fa9d522465651d44aae0a9e38f902f3475b97e58072f0ed4c60405160405180910390a350565b6000601982527f5441524745545f414c52454144595f415554484f52495a4544000000000000006020830152604082019050919050565b60006020820190508181036000830152620002cc816200027a565b9050919050565b6127bd80620002e36000396000f3006080604052600436106100d0576000357c0100000000000000000000000000000000000000000000000000000000900463ffffffff16806342f1181e146100d5578063494503d4146100fe578063656a906d1461013b5780637071293914610164578063715018a61461018d5780637f9d841f146101a45780638da5cb5b146101e15780639ad267441461020c578063b918161114610235578063d2abc39314610272578063d39de6e9146102af578063d9caed12146102da578063ea0bc80114610303578063f2fde38b1461032c575b600080fd5b3480156100e157600080fd5b506100fc60048036036100f79190810190611d25565b610355565b005b34801561010a57600080fd5b5061012560048036036101209190810190611fab565b610559565b60405161013291906122e6565b60405180910390f35b34801561014757600080fd5b50610162600480360361015d9190810190611f04565b610597565b005b34801561017057600080fd5b5061018b60048036036101869190810190611d25565b61076d565b005b34801561019957600080fd5b506101a2610a48565b005b3480156101b057600080fd5b506101cb60048036036101c69190810190611d25565b610b4a565b6040516101d89190612468565b60405180910390f35b3480156101ed57600080fd5b506101f6610bee565b60405161020391906122e6565b60405180910390f35b34801561021857600080fd5b50610233600480360361022e9190810190611ec8565b610c13565b005b34801561024157600080fd5b5061025c60048036036102579190810190611d25565b610f4d565b604051610269919061234c565b60405180910390f35b34801561027e57600080fd5b5061029960048036036102949190810190611d25565b610f6d565b6040516102a69190612468565b60405180910390f35b3480156102bb57600080fd5b506102c4610f85565b6040516102d1919061232a565b60405180910390f35b3480156102e657600080fd5b5061030160048036036102fc9190810190611d4e565b611013565b005b34801561030f57600080fd5b5061032a60048036036103259190810190611d9d565b61131c565b005b34801561033857600080fd5b50610353600480360361034e9190810190611d25565b611876565b005b6000809054906101000a900473ffffffffffffffffffffffffffffffffffffffff1673ffffffffffffffffffffffffffffffffffffffff163373ffffffffffffffffffffffffffffffffffffffff161415156103b057600080fd5b600160008273ffffffffffffffffffffffffffffffffffffffff1673ffffffffffffffffffffffffffffffffffffffff16815260200190815260200160002060009054906101000a900460ff1615151561043f576040517f08c379a0000000000000000000000000000000000000000000000000000000008152600401610436906123a7565b60405180910390fd5b60018060008373ffffffffffffffffffffffffffffffffffffffff1673ffffffffffffffffffffffffffffffffffffffff16815260200190815260200160002060006101000a81548160ff02191690831515021790555060028190806001815401808255809150509060018203906000526020600020016000909192909190916101000a81548173ffffffffffffffffffffffffffffffffffffffff021916908373ffffffffffffffffffffffffffffffffffffffff160217905550503373ffffffffffffffffffffffffffffffffffffffff168173ffffffffffffffffffffffffffffffffffffffff167f3147867c59d17e8fa9d522465651d44aae0a9e38f902f3475b97e58072f0ed4c60405160405180910390a350565b60028181548110151561056857fe5b906000526020600020016000915054906101000a900473ffffffffffffffffffffffffffffffffffffffff1681565b606080606060405190810160405280602f81526020017f657865637574655472616e73616374696f6e2875696e743235362c616464726581526020017f73732c62797465732c62797465732900000000000000000000000000000000008152509150816040518082805190602001908083835b60208310151561062f578051825260208201915060208101905060208303925061060a565b6001836020036101000a0380198251168184511680821785525050505050509050019150506040518091039020868686866040516024016106739493929190612483565b604051602081830303815290604052907bffffffffffffffffffffffffffffffffffffffffffffffffffffffff19166020820180517bffffffffffffffffffffffffffffffffffffffffffffffffffffffff838183161783525050505090508673ffffffffffffffffffffffffffffffffffffffff168160405180828051906020019080838360005b838110156107175780820151818401526020810190506106fc565b50505050905090810190601f1680156107445780820380516001836020036101000a031916815260200191505b509150506000604051808303816000865af1915050151561076457600080fd5b50505050505050565b60008060009054906101000a900473ffffffffffffffffffffffffffffffffffffffff1673ffffffffffffffffffffffffffffffffffffffff163373ffffffffffffffffffffffffffffffffffffffff161415156107ca57600080fd5b600160008373ffffffffffffffffffffffffffffffffffffffff1673ffffffffffffffffffffffffffffffffffffffff16815260200190815260200160002060009054906101000a900460ff161515610858576040517f08c379a000000000000000000000000000000000000000000000000000000000815260040161084f90612367565b60405180910390fd5b600160008373ffffffffffffffffffffffffffffffffffffffff1673ffffffffffffffffffffffffffffffffffffffff16815260200190815260200160002060006101000a81549060ff0219169055600090505b6002805490508110156109ea578173ffffffffffffffffffffffffffffffffffffffff166002828154811015156108df57fe5b9060005260206000200160009054906101000a900473ffffffffffffffffffffffffffffffffffffffff1673ffffffffffffffffffffffffffffffffffffffff1614156109dd57600260016002805490500381548110151561093d57fe5b9060005260206000200160009054906101000a900473ffffffffffffffffffffffffffffffffffffffff1660028281548110151561097757fe5b9060005260206000200160006101000a81548173ffffffffffffffffffffffffffffffffffffffff021916908373ffffffffffffffffffffffffffffffffffffffff16021790555060016002818180549050039150816109d791906119f3565b506109ea565b80806001019150506108ac565b3373ffffffffffffffffffffffffffffffffffffffff168273ffffffffffffffffffffffffffffffffffffffff167f1f32c1b084e2de0713b8fb16bd46bb9df710a3dbeae2f3ca93af46e016dcc6b060405160405180910390a35050565b6000809054906101000a900473ffffffffffffffffffffffffffffffffffffffff1673ffffffffffffffffffffffffffffffffffffffff163373ffffffffffffffffffffffffffffffffffffffff16141515610aa357600080fd5b6000809054906101000a900473ffffffffffffffffffffffffffffffffffffffff1673ffffffffffffffffffffffffffffffffffffffff167ff8df31144d9c2f0f6b59d69b8b98abd5459d07f2742c4df920b25aae33c6482060405160405180910390a260008060006101000a81548173ffffffffffffffffffffffffffffffffffffffff021916908373ffffffffffffffffffffffffffffffffffffffff160217905550565b60008060009054906101000a900473ffffffffffffffffffffffffffffffffffffffff1673ffffffffffffffffffffffffffffffffffffffff163373ffffffffffffffffffffffffffffffffffffffff16141515610ba757600080fd5b600360008373ffffffffffffffffffffffffffffffffffffffff1673ffffffffffffffffffffffffffffffffffffffff168152602001908152602001600020549050919050565b6000809054906101000a900473ffffffffffffffffffffffffffffffffffffffff1681565b6000809054906101000a900473ffffffffffffffffffffffffffffffffffffffff1673ffffffffffffffffffffffffffffffffffffffff163373ffffffffffffffffffffffffffffffffffffffff16141515610c6e57600080fd5b600160008373ffffffffffffffffffffffffffffffffffffffff1673ffffffffffffffffffffffffffffffffffffffff16815260200190815260200160002060009054906101000a900460ff161515610cfc576040517f08c379a0000000000000000000000000000000000000000000000000000000008152600401610cf390612367565b60405180910390fd5b60028054905081101515610d45576040517f08c379a0000000000000000000000000000000000000000000000000000000008152600401610d3c906123c7565b60405180910390fd5b8173ffffffffffffffffffffffffffffffffffffffff16600282815481101515610d6b57fe5b9060005260206000200160009054906101000a900473ffffffffffffffffffffffffffffffffffffffff1673ffffffffffffffffffffffffffffffffffffffff16141515610dee576040517f08c379a0000000000000000000000000000000000000000000000000000000008152600401610de590612387565b60405180910390fd5b600160008373ffffffffffffffffffffffffffffffffffffffff1673ffffffffffffffffffffffffffffffffffffffff16815260200190815260200160002060006101000a81549060ff02191690556002600160028054905003815481101515610e5457fe5b9060005260206000200160009054906101000a900473ffffffffffffffffffffffffffffffffffffffff16600282815481101515610e8e57fe5b9060005260206000200160006101000a81548173ffffffffffffffffffffffffffffffffffffffff021916908373ffffffffffffffffffffffffffffffffffffffff1602179055506001600281818054905003915081610eee91906119f3565b503373ffffffffffffffffffffffffffffffffffffffff168273ffffffffffffffffffffffffffffffffffffffff167f1f32c1b084e2de0713b8fb16bd46bb9df710a3dbeae2f3ca93af46e016dcc6b060405160405180910390a35050565b60016020528060005260406000206000915054906101000a900460ff1681565b60036020528060005260406000206000915090505481565b6060600280548060200260200160405190810160405280929190818152602001828054801561100957602002820191906000526020600020905b8160009054906101000a900473ffffffffffffffffffffffffffffffffffffffff1673ffffffffffffffffffffffffffffffffffffffff1681526020019060010190808311610fbf575b5050505050905090565b6060806000806000809054906101000a900473ffffffffffffffffffffffffffffffffffffffff1673ffffffffffffffffffffffffffffffffffffffff163373ffffffffffffffffffffffffffffffffffffffff1614151561107457600080fd5b6040805190810160405280601a81526020017f7472616e7366657228616464726573732c2075696e74323536290000000000008152509350836040518082805190602001908083835b6020831015156110e257805182526020820191506020810190506020830392506110bd565b6001836020036101000a03801982511681845116808217855250505050505090500191505060405180910390208686604051602401611122929190612301565b604051602081830303815290604052907bffffffffffffffffffffffffffffffffffffffffffffffffffffffff19166020820180517bffffffffffffffffffffffffffffffffffffffffffffffffffffffff838183161783525050505092508673ffffffffffffffffffffffffffffffffffffffff168360405180828051906020019080838360005b838110156111c65780820151818401526020810190506111ab565b50505050905090810190601f1680156111f35780820380516001836020036101000a031916815260200191505b509150506000604051808303816000865af1915050151561121357600080fd5b600360008873ffffffffffffffffffffffffffffffffffffffff1673ffffffffffffffffffffffffffffffffffffffff16815260200190815260200160002054915061126885836118dd90919063ffffffff16565b905080600360008973ffffffffffffffffffffffffffffffffffffffff1673ffffffffffffffffffffffffffffffffffffffff168152602001908152602001600020819055508573ffffffffffffffffffffffffffffffffffffffff168773ffffffffffffffffffffffffffffffffffffffff167fec37a407e13e9283023de85016cfda169c84b8f0e8dcda13c92311ab8fee7ad58760405161130b9190612468565b60405180910390a350505050505050565b611324611a1f565b61132c611a1f565b606080600160003373ffffffffffffffffffffffffffffffffffffffff1673ffffffffffffffffffffffffffffffffffffffff16815260200190815260200160002060009054906101000a900460ff1615156113bd576040517f08c379a00000000000000000000000000000000000000000000000000000000081526004016113b4906123e7565b60405180910390fd5b610180604051908101604052808d60006004811015156113d957fe5b602002015173ffffffffffffffffffffffffffffffffffffffff1681526020018d600160048110151561140857fe5b602002015173ffffffffffffffffffffffffffffffffffffffff1681526020018d600260048110151561143757fe5b602002015173ffffffffffffffffffffffffffffffffffffffff1681526020018d600360048110151561146657fe5b602002015173ffffffffffffffffffffffffffffffffffffffff1681526020018c600060068110151561149557fe5b602002015181526020018c60016006811015156114ae57fe5b602002015181526020018c60026006811015156114c757fe5b602002015181526020018c60036006811015156114e057fe5b602002015181526020018c60046006811015156114f957fe5b602002015181526020018c600560068110151561151257fe5b602002015181526020018b600060028110151561152b57fe5b602002015181526020018b600160028110151561154457fe5b60200201518152509350610180604051908101604052808a600060048110151561156a57fe5b602002015173ffffffffffffffffffffffffffffffffffffffff1681526020018a600160048110151561159957fe5b602002015173ffffffffffffffffffffffffffffffffffffffff1681526020018a60026004811015156115c857fe5b602002015173ffffffffffffffffffffffffffffffffffffffff1681526020018a60036004811015156115f757fe5b602002015173ffffffffffffffffffffffffffffffffffffffff16815260200189600060068110151561162657fe5b6020020151815260200189600160068110151561163f57fe5b6020020151815260200189600260068110151561165857fe5b6020020151815260200189600360068110151561167157fe5b6020020151815260200189600460068110151561168a57fe5b602002015181526020018960056006811015156116a357fe5b602002015181526020018860006002811015156116bc57fe5b602002015181526020018860016002811015156116d557fe5b602002015181525092506101006040519081016040528060d481526020016126b060d491399150816040518082805190602001908083835b602083101515611732578051825260208201915060208101905060208303925061170d565b6001836020036101000a0380198251168184511680821785525050505050509050019150506040518091039020848488886040516024016117769493929190612407565b604051602081830303815290604052907bffffffffffffffffffffffffffffffffffffffffffffffffffffffff19166020820180517bffffffffffffffffffffffffffffffffffffffffffffffffffffffff838183161783525050505090508c73ffffffffffffffffffffffffffffffffffffffff168160405180828051906020019080838360005b8381101561181a5780820151818401526020810190506117ff565b50505050905090810190601f1680156118475780820380516001836020036101000a031916815260200191505b509150506000604051808303816000865af1915050151561186757600080fd5b50505050505050505050505050565b6000809054906101000a900473ffffffffffffffffffffffffffffffffffffffff1673ffffffffffffffffffffffffffffffffffffffff163373ffffffffffffffffffffffffffffffffffffffff161415156118d157600080fd5b6118da816118f9565b50565b600081830190508281101515156118f057fe5b80905092915050565b600073ffffffffffffffffffffffffffffffffffffffff168173ffffffffffffffffffffffffffffffffffffffff161415151561193557600080fd5b8073ffffffffffffffffffffffffffffffffffffffff166000809054906101000a900473ffffffffffffffffffffffffffffffffffffffff1673ffffffffffffffffffffffffffffffffffffffff167f8be0079c531659141344cd1fd0a4f28419497f9722a3daafe3b4186f6b6457e060405160405180910390a3806000806101000a81548173ffffffffffffffffffffffffffffffffffffffff021916908373ffffffffffffffffffffffffffffffffffffffff16021790555050565b815481835581811115611a1a57818360005260206000209182019101611a199190611ad9565b5b505050565b61018060405190810160405280600073ffffffffffffffffffffffffffffffffffffffff168152602001600073ffffffffffffffffffffffffffffffffffffffff168152602001600073ffffffffffffffffffffffffffffffffffffffff168152602001600073ffffffffffffffffffffffffffffffffffffffff16815260200160008152602001600081526020016000815260200160008152602001600081526020016000815260200160608152602001606081525090565b611afb91905b80821115611af7576000816000905550600101611adf565b5090565b90565b6000611b0a8235612632565b905092915050565b600082601f8301121515611b2557600080fd5b6004611b38611b3382612503565b6124d6565b91508183856020840282011115611b4e57600080fd5b60005b83811015611b7e5781611b648882611afe565b845260208401935060208301925050600181019050611b51565b5050505092915050565b600082601f8301121515611b9b57600080fd5b6002611bae611ba982612525565b6124d6565b9150818360005b83811015611be55781358601611bcb8882611c65565b845260208401935060208301925050600181019050611bb5565b5050505092915050565b600082601f8301121515611c0257600080fd5b6006611c15611c1082612547565b6124d6565b91508183856020840282011115611c2b57600080fd5b60005b83811015611c5b5781611c418882611d11565b845260208401935060208301925050600181019050611c2e565b5050505092915050565b600082601f8301121515611c7857600080fd5b8135611c8b611c8682612569565b6124d6565b91508082526020830160208301858383011115611ca757600080fd5b611cb283828461265c565b50505092915050565b600082601f8301121515611cce57600080fd5b8135611ce1611cdc82612595565b6124d6565b91508082526020830160208301858383011115611cfd57600080fd5b611d0883828461265c565b50505092915050565b6000611d1d8235612652565b905092915050565b600060208284031215611d3757600080fd5b6000611d4584828501611afe565b91505092915050565b600080600060608486031215611d6357600080fd5b6000611d7186828701611afe565b9350506020611d8286828701611afe565b9250506040611d9386828701611d11565b9150509250925092565b60008060008060008060008060006103208a8c031215611dbc57600080fd5b6000611dca8c828d01611afe565b9950506020611ddb8c828d01611b12565b98505060a0611dec8c828d01611bef565b9750506101608a013567ffffffffffffffff811115611e0a57600080fd5b611e168c828d01611b88565b965050610180611e288c828d01611b12565b955050610200611e3a8c828d01611bef565b9450506102c08a013567ffffffffffffffff811115611e5857600080fd5b611e648c828d01611b88565b9350506102e08a013567ffffffffffffffff811115611e8257600080fd5b611e8e8c828d01611cbb565b9250506103008a013567ffffffffffffffff811115611eac57600080fd5b611eb88c828d01611cbb565b9150509295985092959850929598565b60008060408385031215611edb57600080fd5b6000611ee985828601611afe565b9250506020611efa85828601611d11565b9150509250929050565b600080600080600060a08688031215611f1c57600080fd5b6000611f2a88828901611afe565b9550506020611f3b88828901611d11565b9450506040611f4c88828901611afe565b935050606086013567ffffffffffffffff811115611f6957600080fd5b611f7588828901611cbb565b925050608086013567ffffffffffffffff811115611f9257600080fd5b611f9e88828901611cbb565b9150509295509295909350565b600060208284031215611fbd57600080fd5b6000611fcb84828501611d11565b91505092915050565b611fdd816125fc565b82525050565b6000611fee826125ce565b808452602084019350612000836125c1565b60005b8281101561203257612016868351611fd4565b61201f826125ef565b9150602086019550600181019050612003565b50849250505092915050565b6120478161261c565b82525050565b6000612058826125e4565b80845261206c81602086016020860161266b565b6120758161269e565b602085010191505092915050565b600061208e826125d9565b8084526120a281602086016020860161266b565b6120ab8161269e565b602085010191505092915050565b6000601582527f5441524745545f4e4f545f415554484f52495a454400000000000000000000006020830152604082019050919050565b6000601b82527f415554484f52495a45445f414444524553535f4d49534d4154434800000000006020830152604082019050919050565b6000601982527f5441524745545f414c52454144595f415554484f52495a4544000000000000006020830152604082019050919050565b6000601382527f494e4445585f4f55545f4f465f424f554e4453000000000000000000000000006020830152604082019050919050565b6000601582527f53454e4445525f4e4f545f415554484f52495a454400000000000000000000006020830152604082019050919050565b6000610180830160008301516121e56000860182611fd4565b5060208301516121f86020860182611fd4565b50604083015161220b6040860182611fd4565b50606083015161221e6060860182611fd4565b50608083015161223160808601826122d7565b5060a083015161224460a08601826122d7565b5060c083015161225760c08601826122d7565b5060e083015161226a60e08601826122d7565b5061010083015161227f6101008601826122d7565b506101208301516122946101208601826122d7565b506101408301518482036101408601526122ae8282612083565b9150506101608301518482036101608601526122ca8282612083565b9150508091505092915050565b6122e081612628565b82525050565b60006020820190506122fb6000830184611fd4565b92915050565b60006040820190506123166000830185611fd4565b61232360208301846122d7565b9392505050565b600060208201905081810360008301526123448184611fe3565b905092915050565b6000602082019050612361600083018461203e565b92915050565b60006020820190508181036000830152612380816120b9565b9050919050565b600060208201905081810360008301526123a0816120f0565b9050919050565b600060208201905081810360008301526123c081612127565b9050919050565b600060208201905081810360008301526123e08161215e565b9050919050565b6000602082019050818103600083015261240081612195565b9050919050565b6000608082019050818103600083015261242181876121cc565b9050818103602083015261243581866121cc565b90508181036040830152612449818561204d565b9050818103606083015261245d818461204d565b905095945050505050565b600060208201905061247d60008301846122d7565b92915050565b600060808201905061249860008301876122d7565b6124a56020830186611fd4565b81810360408301526124b7818561204d565b905081810360608301526124cb818461204d565b905095945050505050565b6000604051905081810181811067ffffffffffffffff821117156124f957600080fd5b8060405250919050565b600067ffffffffffffffff82111561251a57600080fd5b602082029050919050565b600067ffffffffffffffff82111561253c57600080fd5b602082029050919050565b600067ffffffffffffffff82111561255e57600080fd5b602082029050919050565b600067ffffffffffffffff82111561258057600080fd5b601f19601f8301169050602081019050919050565b600067ffffffffffffffff8211156125ac57600080fd5b601f19601f8301169050602081019050919050565b6000602082019050919050565b600081519050919050565b600081519050919050565b600081519050919050565b6000602082019050919050565b600073ffffffffffffffffffffffffffffffffffffffff82169050919050565b60008115159050919050565b6000819050919050565b600073ffffffffffffffffffffffffffffffffffffffff82169050919050565b6000819050919050565b82818337600083830152505050565b60005b8381101561268957808201518184015260208101905061266e565b83811115612698576000848401525b50505050565b6000601f19601f830116905091905056006d617463684f72646572732828616464726573732c616464726573732c616464726573732c616464726573732c75696e743235362c75696e743235362c75696e743235362c75696e743235362c75696e743235362c75696e743235362c62797465732c6279746573292c28616464726573732c616464726573732c616464726573732c616464726573732c75696e743235362c75696e743235362c75696e743235362c75696e743235362c75696e743235362c75696e743235362c62797465732c6279746573292c62797465732c627974657329a265627a7a72305820d0da291f29c349d8b9a2c1c5f7cdcc38988a641af15ca278c6b742bdf5130d0d6c6578706572696d656e74616cf50037",
  "source": "pragma solidity ^0.4.24;\npragma experimental ABIEncoderV2;\n\nimport \"openzeppelin-solidity/contracts/ownership/Ownable.sol\";\nimport \"openzeppelin-solidity/contracts/math/SafeMath.sol\";\n\ncontract CapoProxy is Ownable {\n\tusing SafeMath for uint256;\n\t\n  struct Order {\n\t\taddress makerAddress;           // Address that created the order.      \n\t\taddress takerAddress;           // Address that is allowed to fill the order. If set to 0, any address is allowed to fill the order.          \n\t\taddress feeRecipientAddress;    // Address that will recieve fees when order is filled.      \n\t\taddress senderAddress;          // Address that is allowed to call Exchange contract methods that affect this order. If set to 0, any address is allowed to call these methods.\n\t\tuint256 makerAssetAmount;       // Amount of makerAsset being offered by maker. Must be greater than 0.        \n\t\tuint256 takerAssetAmount;       // Amount of takerAsset being bid on by maker. Must be greater than 0.        \n\t\tuint256 makerFee;               // Amount of ZRX paid to feeRecipient by maker when order is filled. If set to 0, no transfer of ZRX from maker to feeRecipient will be attempted.\n\t\tuint256 takerFee;               // Amount of ZRX paid to feeRecipient by taker when order is filled. If set to 0, no transfer of ZRX from taker to feeRecipient will be attempted.\n\t\tuint256 expirationTimeSeconds;  // Timestamp in seconds at which order expires.          \n\t\tuint256 salt;                   // Arbitrary number to facilitate uniqueness of the order's hash.     \n\t\tbytes makerAssetData;           // Encoded data that can be decoded by a specified proxy contract when transferring makerAsset. The last byte references the id of this proxy.\n\t\tbytes takerAssetData;           // Encoded data that can be decoded by a specified proxy contract when transferring takerAsset. The last byte references the id of this proxy.\n  }\n\n\t/// @dev Address is authorized or not\n\tmapping (address => bool) public authorized;\n\n\t/// @dev list authorized addresses\n\taddress[] public authorities;\n\n  mapping (address => uint256) public totalWithdraws;\n\t\n\t/// @dev Contructure function\n\tconstructor() public {\n\t\taddAuthorizedAddress(msg.sender);\n\t}\n\n/* Events */\n\n\t// Event logged when a new address is authorized.\n\tevent AuthorizedAddressAdded(\n\t\t\taddress indexed target,\n\t\t\taddress indexed caller\n\t);\n\n\t// Event logged when a currently authorized address is unauthorized.\n\tevent AuthorizedAddressRemoved(\n\t\taddress indexed target,\n\t\taddress indexed caller\n\t);\n\n\t// Event logged when onwer withdraw token\n\tevent WithDraw(\n    address indexed asset,\n\t\taddress indexed to,\n\t\tuint256 amount\n\t);\n\n/** Modifier */\n\n\t/// @dev Only authorized addresses can invoke functions with this modifier.\n\tmodifier onlyAuthorized {\n\t\trequire(\n\t\t\tauthorized[msg.sender],\n\t\t\t\"SENDER_NOT_AUTHORIZED\"\n\t\t);\n\t\t_;\n\t}\n\n\t/// @dev Only order's maker addresses can invoke functions with this modifier.\n\tmodifier onlyMaker(address maker) {\n\t\trequire(\n\t\t\tmaker == msg.sender, \n\t\t\t\"SENDER_IS_NOT_MARKER\"\n\t\t);\n\t\t_;\n\t}\n\n/** Owner functions */\n\n\t/// @dev Withdraw amount of asset to address\n\t/// @param to Receiver address\n\t/// @param amount number of tokens will be transfered\n\tfunction withdraw(address asset, address to, uint256 amount) public onlyOwner {\n\t\tstring memory functionSignature = 'transfer(address, uint256)';\n\t\tbytes memory encodedDatas = abi.encodeWithSelector(bytes4(keccak256(functionSignature)), to, amount);\n\t\trequire(asset.call(encodedDatas));\n\n\t\t// append total withdraw amount\n    uint256 totalWithdraw = totalWithdraws[asset];\n    uint256 newTotalWithdraw = totalWithdraw.add(amount);\n    totalWithdraws[asset] = newTotalWithdraw;\n\t\temit WithDraw(asset, to, amount);\n\t}\n\n\t/// @dev Get total amount of weth was withdrew\n\t/// @return total amount\n\tfunction getTotalWithdraw(address asset) public onlyOwner returns (uint256) {\n\t\treturn totalWithdraws[asset];\n\t}\n\n/** Authorized functions */\n\t\n\t/// @dev Authorizes an address.\n\t/// @param target Address to authorize.\n\tfunction addAuthorizedAddress(address target) public onlyOwner {\n\t\trequire(\n\t\t\t\t!authorized[target],\n\t\t\t\t\"TARGET_ALREADY_AUTHORIZED\"\n\t\t);\n\n\t\tauthorized[target] = true;\n\t\tauthorities.push(target);\n\t\temit AuthorizedAddressAdded(target, msg.sender);\n\t}\n\n\t/// @dev Removes authorizion of an address.\n\t/// @param target Address to remove authorization from.\n\tfunction removeAuthorizedAddress(address target) external onlyOwner {\n\t\trequire(\n\t\t\t\tauthorized[target],\n\t\t\t\t\"TARGET_NOT_AUTHORIZED\"\n\t\t);\n\n\t\tdelete authorized[target];\n\t\tfor (uint256 i = 0; i < authorities.length; i++) {\n\t\t\t\tif (authorities[i] == target) {\n\t\t\t\t\t\tauthorities[i] = authorities[authorities.length - 1];\n\t\t\t\t\t\tauthorities.length -= 1;\n\t\t\t\t\t\tbreak;\n\t\t\t\t}\n\t\t}\n\t\temit AuthorizedAddressRemoved(target, msg.sender);\n\t}\n\n\t/// @dev Removes authorizion of an address.\n\t/// @param target Address to remove authorization from.\n\t/// @param index Index of target in authorities array.\n\tfunction removeAuthorizedAddressAtIndex(\n\t\taddress target, \n\t\tuint256 index\n\t) external onlyOwner {\n\t\trequire(\n\t\t\t\tauthorized[target],\n\t\t\t\t\"TARGET_NOT_AUTHORIZED\"\n\t\t);\n\t\trequire(\n\t\t\t\tindex < authorities.length,\n\t\t\t\t\"INDEX_OUT_OF_BOUNDS\"\n\t\t);\n\t\trequire(\n\t\t\t\tauthorities[index] == target,\n\t\t\t\t\"AUTHORIZED_ADDRESS_MISMATCH\"\n\t\t);\n\n\t\tdelete authorized[target];\n\t\tauthorities[index] = authorities[authorities.length - 1];\n\t\tauthorities.length -= 1;\n\t\temit AuthorizedAddressRemoved(target, msg.sender);\n\t}\n\n\t/// @dev Gets all authorized addresses.\n\t/// @return Array of authorized addresses.\n\tfunction getAuthorizedAddresses() external view returns (address[] memory) {\n\t\treturn authorities;\n\t}\n\n/** 0x function */\n\n\t/// @dev Send executed transaction to exchange\n\t/// @param exchangeAddress Exchange smartcontract address\n\t/// @param salt Arbitrary number to ensure uniqueness of transaction hash.\n\t/// @param signerAddress Address of transaction signer.\n\t/// @param data AbiV2 encoded calldata.\n\t/// @param signature Proof of signer transaction by signer.\n\tfunction executeTransaction(\n\t\taddress exchangeAddress,\n\t\t\tuint256 salt,\n\t\t\taddress signerAddress,\n\t\t\tbytes data,\n\t\t\tbytes signature\n\t) public {\n\t\tstring memory functionSignature = 'executeTransaction(uint256,address,bytes,bytes)';\n\t\tbytes memory encodedDatas = abi.encodeWithSelector(bytes4(keccak256(functionSignature)), salt, signerAddress, data,signature);\n\t\trequire(exchangeAddress.call(encodedDatas));\n\t}\n\n\t/// @dev Match two order. Only authorized msg.sender accepted\n\t/// @param exchangeAddress Exchange smartcontract address\n\t/// @param leftOrderAddresses First order's makerAddress, takerAddress, feeRecipientAddress, senderAddress\n\t/// @param leftOrderValues First order's makerAssetAmount, takerAssetAmount, makerFee, takerFee, expirationTimeSeconds, salt\n\t/// @param leftOrderDatas First order's makerAssetData, takerAssetData\n\t/// @param rightOrderAddresses Second order's makerAddress, takerAddress, feeRecipientAddress, senderAddress\n\t/// @param rightOrderValues Second order's makerAssetAmount, takerAssetAmount, makerFee, takerFee, expirationTimeSeconds, salt\n\t/// @param rightOrderDatas Second order's makerAssetData, takerAssetData\n\t/// @param leftSignature Proof that order was created by the left maker.\n  /// @param rightSignature Proof that order was created by the right maker.\n\tfunction matchOrders(\n\t\taddress exchangeAddress,\n\t\taddress[4] leftOrderAddresses,\n\t\tuint256[6] leftOrderValues, \n\t\tbytes[2] leftOrderDatas, \n\t\taddress[4] rightOrderAddresses, \n\t\tuint256[6] rightOrderValues, \n\t\tbytes[2] rightOrderDatas, \n\t\tbytes memory leftSignature,\n\t\tbytes memory rightSignature\n  ) public onlyAuthorized\n\t{\n\t\tOrder memory leftOrder = Order(\n\t\t\tleftOrderAddresses[0],\n\t\t\tleftOrderAddresses[1],\n\t\t\tleftOrderAddresses[2],\n\t\t\tleftOrderAddresses[3],\n\t\t\tleftOrderValues[0],\n\t\t\tleftOrderValues[1],\n\t\t\tleftOrderValues[2],\n\t\t\tleftOrderValues[3],\n\t\t\tleftOrderValues[4],\n\t\t\tleftOrderValues[5],\n\t\t\tleftOrderDatas[0],\n\t\t\tleftOrderDatas[1]\n\t\t);\n\n\t\tOrder memory rightOrder = Order(\n\t\t\trightOrderAddresses[0],\n\t\t\trightOrderAddresses[1],\n\t\t\trightOrderAddresses[2],\n\t\t\trightOrderAddresses[3],\n\t\t\trightOrderValues[0],\n\t\t\trightOrderValues[1],\n\t\t\trightOrderValues[2],\n\t\t\trightOrderValues[3],\n\t\t\trightOrderValues[4],\n\t\t\trightOrderValues[5],\n\t\t\trightOrderDatas[0],\n\t\t\trightOrderDatas[1]\n\t\t);\n\t\tstring memory functionSignature = \"matchOrders((address,address,address,address,uint256,uint256,uint256,uint256,uint256,uint256,bytes,bytes),(address,address,address,address,uint256,uint256,uint256,uint256,uint256,uint256,bytes,bytes),bytes,bytes)\";\n\t\tbytes memory encodedDatas = abi.encodeWithSelector(bytes4(keccak256(functionSignature)), leftOrder,rightOrder,leftSignature,rightSignature);\n\t\trequire(exchangeAddress.call(encodedDatas));\n\t}\n}",
  "sourcePath": "/Users/duongkhong/Documents/Projects/coincapo/smartcontracts/contracts/CapoProxy.sol",
  "compiler": {
    "name": "solc",
    "version": "0.4.24+commit.e67f0147.Emscripten.clang"
  },
  "schemaVersion": "2.0.0",
  "updatedAt": "2018-10-03T07:34:44.661Z"
}