{
  "contractName": "CapoProxy",
  "abi": [
    {
      "constant": true,
      "inputs": [
        {
          "name": "",
          "type": "uint256"
        }
      ],
      "name": "authorities",
      "outputs": [
        {
          "name": "",
          "type": "address"
        }
      ],
      "payable": false,
      "stateMutability": "view",
      "type": "function"
    },
    {
      "constant": false,
      "inputs": [],
      "name": "renounceOwnership",
      "outputs": [],
      "payable": false,
      "stateMutability": "nonpayable",
      "type": "function"
    },
    {
      "constant": true,
      "inputs": [],
      "name": "owner",
      "outputs": [
        {
          "name": "",
          "type": "address"
        }
      ],
      "payable": false,
      "stateMutability": "view",
      "type": "function"
    },
    {
      "constant": true,
      "inputs": [],
      "name": "isOwner",
      "outputs": [
        {
          "name": "",
          "type": "bool"
        }
      ],
      "payable": false,
      "stateMutability": "view",
      "type": "function"
    },
    {
      "constant": true,
      "inputs": [
        {
          "name": "",
          "type": "address"
        }
      ],
      "name": "authorized",
      "outputs": [
        {
          "name": "",
          "type": "bool"
        }
      ],
      "payable": false,
      "stateMutability": "view",
      "type": "function"
    },
    {
      "constant": true,
      "inputs": [
        {
          "name": "",
          "type": "address"
        }
      ],
      "name": "totalWithdraws",
      "outputs": [
        {
          "name": "",
          "type": "uint256"
        }
      ],
      "payable": false,
      "stateMutability": "view",
      "type": "function"
    },
    {
      "constant": false,
      "inputs": [
        {
          "name": "newOwner",
          "type": "address"
        }
      ],
      "name": "transferOwnership",
      "outputs": [],
      "payable": false,
      "stateMutability": "nonpayable",
      "type": "function"
    },
    {
      "inputs": [
        {
          "name": "initializeAuthorities",
          "type": "address[]"
        }
      ],
      "payable": false,
      "stateMutability": "nonpayable",
      "type": "constructor"
    },
    {
      "anonymous": false,
      "inputs": [
        {
          "indexed": true,
          "name": "target",
          "type": "address"
        },
        {
          "indexed": true,
          "name": "caller",
          "type": "address"
        }
      ],
      "name": "AuthorizedAddressAdded",
      "type": "event"
    },
    {
      "anonymous": false,
      "inputs": [
        {
          "indexed": true,
          "name": "target",
          "type": "address"
        },
        {
          "indexed": true,
          "name": "caller",
          "type": "address"
        }
      ],
      "name": "AuthorizedAddressRemoved",
      "type": "event"
    },
    {
      "anonymous": false,
      "inputs": [
        {
          "indexed": true,
          "name": "asset",
          "type": "address"
        },
        {
          "indexed": true,
          "name": "to",
          "type": "address"
        },
        {
          "indexed": false,
          "name": "amount",
          "type": "uint256"
        }
      ],
      "name": "WithDraw",
      "type": "event"
    },
    {
      "anonymous": false,
      "inputs": [
        {
          "indexed": true,
          "name": "previousOwner",
          "type": "address"
        },
        {
          "indexed": true,
          "name": "newOwner",
          "type": "address"
        }
      ],
      "name": "OwnershipTransferred",
      "type": "event"
    },
    {
      "constant": false,
      "inputs": [
        {
          "name": "asset",
          "type": "address"
        },
        {
          "name": "to",
          "type": "address"
        },
        {
          "name": "amount",
          "type": "uint256"
        }
      ],
      "name": "withdraw",
      "outputs": [],
      "payable": false,
      "stateMutability": "nonpayable",
      "type": "function"
    },
    {
      "constant": false,
      "inputs": [
        {
          "name": "asset",
          "type": "address"
        }
      ],
      "name": "getTotalWithdraw",
      "outputs": [
        {
          "name": "",
          "type": "uint256"
        }
      ],
      "payable": false,
      "stateMutability": "nonpayable",
      "type": "function"
    },
    {
      "constant": false,
      "inputs": [
        {
          "name": "target",
          "type": "address"
        }
      ],
      "name": "addAuthorizedAddress",
      "outputs": [],
      "payable": false,
      "stateMutability": "nonpayable",
      "type": "function"
    },
    {
      "constant": false,
      "inputs": [
        {
          "name": "target",
          "type": "address"
        }
      ],
      "name": "removeAuthorizedAddress",
      "outputs": [],
      "payable": false,
      "stateMutability": "nonpayable",
      "type": "function"
    },
    {
      "constant": false,
      "inputs": [
        {
          "name": "target",
          "type": "address"
        },
        {
          "name": "index",
          "type": "uint256"
        }
      ],
      "name": "removeAuthorizedAddressAtIndex",
      "outputs": [],
      "payable": false,
      "stateMutability": "nonpayable",
      "type": "function"
    },
    {
      "constant": true,
      "inputs": [],
      "name": "getAuthorizedAddresses",
      "outputs": [
        {
          "name": "",
          "type": "address[]"
        }
      ],
      "payable": false,
      "stateMutability": "view",
      "type": "function"
    },
    {
      "constant": false,
      "inputs": [
        {
          "name": "exchangeAddress",
          "type": "address"
        },
        {
          "name": "salt",
          "type": "uint256"
        },
        {
          "name": "signerAddress",
          "type": "address"
        },
        {
          "name": "data",
          "type": "bytes"
        },
        {
          "name": "signature",
          "type": "bytes"
        }
      ],
      "name": "executeTransaction",
      "outputs": [],
      "payable": false,
      "stateMutability": "nonpayable",
      "type": "function"
    },
    {
      "constant": false,
      "inputs": [
        {
          "name": "exchangeAddress",
          "type": "address"
        },
        {
          "name": "leftOrderAddresses",
          "type": "address[4]"
        },
        {
          "name": "leftOrderValues",
          "type": "uint256[6]"
        },
        {
          "name": "leftOrderDatas",
          "type": "bytes[2]"
        },
        {
          "name": "rightOrderAddresses",
          "type": "address[4]"
        },
        {
          "name": "rightOrderValues",
          "type": "uint256[6]"
        },
        {
          "name": "rightOrderDatas",
          "type": "bytes[2]"
        },
        {
          "name": "leftSignature",
          "type": "bytes"
        },
        {
          "name": "rightSignature",
          "type": "bytes"
        }
      ],
      "name": "matchOrders",
      "outputs": [],
      "payable": false,
      "stateMutability": "nonpayable",
      "type": "function"
    }
  ],
  "bytecode": "0x60806040523480156200001157600080fd5b5060405162002bd638038062002bd683398101806040526200003791908101906200043e565b6000806000336000806101000a81548173ffffffffffffffffffffffffffffffffffffffff021916908373ffffffffffffffffffffffffffffffffffffffff1602179055506000809054906101000a900473ffffffffffffffffffffffffffffffffffffffff1673ffffffffffffffffffffffffffffffffffffffff16600073ffffffffffffffffffffffffffffffffffffffff167f8be0079c531659141344cd1fd0a4f28419497f9722a3daafe3b4186f6b6457e060405160405180910390a3620001123362000171640100000000026401000000009004565b83519250600091505b82821015620001675783828151811015156200013357fe5b906020019060200201519050620001598162000171640100000000026401000000009004565b81806001019250506200011b565b5050505062000553565b6200018a62000342640100000000026401000000009004565b15156200019657600080fd5b600160008273ffffffffffffffffffffffffffffffffffffffff1673ffffffffffffffffffffffffffffffffffffffff16815260200190815260200160002060009054906101000a900460ff1615151562000228576040517f08c379a00000000000000000000000000000000000000000000000000000000081526004016200021f90620004ba565b60405180910390fd5b60018060008373ffffffffffffffffffffffffffffffffffffffff1673ffffffffffffffffffffffffffffffffffffffff16815260200190815260200160002060006101000a81548160ff02191690831515021790555060028190806001815401808255809150509060018203906000526020600020016000909192909190916101000a81548173ffffffffffffffffffffffffffffffffffffffff021916908373ffffffffffffffffffffffffffffffffffffffff160217905550503373ffffffffffffffffffffffffffffffffffffffff168173ffffffffffffffffffffffffffffffffffffffff167f3147867c59d17e8fa9d522465651d44aae0a9e38f902f3475b97e58072f0ed4c60405160405180910390a350565b60008060009054906101000a900473ffffffffffffffffffffffffffffffffffffffff1673ffffffffffffffffffffffffffffffffffffffff163373ffffffffffffffffffffffffffffffffffffffff1614905090565b6000620003a7825162000533565b905092915050565b600082601f8301121515620003c357600080fd5b8151620003da620003d4826200050a565b620004dc565b915081818352602084019350602081019050838560208402820111156200040057600080fd5b60005b8381101562000434578162000419888262000399565b84526020840193506020830192505060018101905062000403565b5050505092915050565b6000602082840312156200045157600080fd5b600082015167ffffffffffffffff8111156200046c57600080fd5b6200047a84828501620003af565b91505092915050565b6000601982527f5441524745545f414c52454144595f415554484f52495a4544000000000000006020830152604082019050919050565b60006020820190508181036000830152620004d58162000483565b9050919050565b6000604051905081810181811067ffffffffffffffff821117156200050057600080fd5b8060405250919050565b600067ffffffffffffffff8211156200052257600080fd5b602082029050602081019050919050565b600073ffffffffffffffffffffffffffffffffffffffff82169050919050565b61267380620005636000396000f3006080604052600436106100db576000357c0100000000000000000000000000000000000000000000000000000000900463ffffffff16806342f1181e146100e0578063494503d414610109578063656a906d14610146578063707129391461016f578063715018a6146101985780637f9d841f146101af5780638da5cb5b146101ec5780638f32d59b146102175780639ad2674414610242578063b91816111461026b578063d2abc393146102a8578063d39de6e9146102e5578063d9caed1214610310578063ea0bc80114610339578063f2fde38b14610362575b600080fd5b3480156100ec57600080fd5b5061010760048036036101029190810190611bdb565b61038b565b005b34801561011557600080fd5b50610130600480360361012b9190810190611e61565b610547565b60405161013d919061219c565b60405180910390f35b34801561015257600080fd5b5061016d60048036036101689190810190611dba565b610585565b005b34801561017b57600080fd5b5061019660048036036101919190810190611bdb565b61075b565b005b3480156101a457600080fd5b506101ad6109ee565b005b3480156101bb57600080fd5b506101d660048036036101d19190810190611bdb565b610ac0565b6040516101e3919061231e565b60405180910390f35b3480156101f857600080fd5b50610201610b1c565b60405161020e919061219c565b60405180910390f35b34801561022357600080fd5b5061022c610b45565b6040516102399190612202565b60405180910390f35b34801561024e57600080fd5b5061026960048036036102649190810190611d7e565b610b9c565b005b34801561027757600080fd5b50610292600480360361028d9190810190611bdb565b610e8e565b60405161029f9190612202565b60405180910390f35b3480156102b457600080fd5b506102cf60048036036102ca9190810190611bdb565b610eae565b6040516102dc919061231e565b60405180910390f35b3480156102f157600080fd5b506102fa610ec6565b60405161030791906121e0565b60405180910390f35b34801561031c57600080fd5b5061033760048036036103329190810190611c04565b610f54565b005b34801561034557600080fd5b50610360600480360361035b9190810190611c53565b611215565b005b34801561036e57600080fd5b5061038960048036036103849190810190611bdb565b61176f565b005b610393610b45565b151561039e57600080fd5b600160008273ffffffffffffffffffffffffffffffffffffffff1673ffffffffffffffffffffffffffffffffffffffff16815260200190815260200160002060009054906101000a900460ff1615151561042d576040517f08c379a00000000000000000000000000000000000000000000000000000000081526004016104249061225d565b60405180910390fd5b60018060008373ffffffffffffffffffffffffffffffffffffffff1673ffffffffffffffffffffffffffffffffffffffff16815260200190815260200160002060006101000a81548160ff02191690831515021790555060028190806001815401808255809150509060018203906000526020600020016000909192909190916101000a81548173ffffffffffffffffffffffffffffffffffffffff021916908373ffffffffffffffffffffffffffffffffffffffff160217905550503373ffffffffffffffffffffffffffffffffffffffff168173ffffffffffffffffffffffffffffffffffffffff167f3147867c59d17e8fa9d522465651d44aae0a9e38f902f3475b97e58072f0ed4c60405160405180910390a350565b60028181548110151561055657fe5b906000526020600020016000915054906101000a900473ffffffffffffffffffffffffffffffffffffffff1681565b606080606060405190810160405280602f81526020017f657865637574655472616e73616374696f6e2875696e743235362c616464726581526020017f73732c62797465732c62797465732900000000000000000000000000000000008152509150816040518082805190602001908083835b60208310151561061d57805182526020820191506020810190506020830392506105f8565b6001836020036101000a0380198251168184511680821785525050505050509050019150506040518091039020868686866040516024016106619493929190612339565b604051602081830303815290604052907bffffffffffffffffffffffffffffffffffffffffffffffffffffffff19166020820180517bffffffffffffffffffffffffffffffffffffffffffffffffffffffff838183161783525050505090508673ffffffffffffffffffffffffffffffffffffffff168160405180828051906020019080838360005b838110156107055780820151818401526020810190506106ea565b50505050905090810190601f1680156107325780820380516001836020036101000a031916815260200191505b509150506000604051808303816000865af1915050151561075257600080fd5b50505050505050565b6000610765610b45565b151561077057600080fd5b600160008373ffffffffffffffffffffffffffffffffffffffff1673ffffffffffffffffffffffffffffffffffffffff16815260200190815260200160002060009054906101000a900460ff1615156107fe576040517f08c379a00000000000000000000000000000000000000000000000000000000081526004016107f59061221d565b60405180910390fd5b600160008373ffffffffffffffffffffffffffffffffffffffff1673ffffffffffffffffffffffffffffffffffffffff16815260200190815260200160002060006101000a81549060ff0219169055600090505b600280549050811015610990578173ffffffffffffffffffffffffffffffffffffffff1660028281548110151561088557fe5b9060005260206000200160009054906101000a900473ffffffffffffffffffffffffffffffffffffffff1673ffffffffffffffffffffffffffffffffffffffff1614156109835760026001600280549050038154811015156108e357fe5b9060005260206000200160009054906101000a900473ffffffffffffffffffffffffffffffffffffffff1660028281548110151561091d57fe5b9060005260206000200160006101000a81548173ffffffffffffffffffffffffffffffffffffffff021916908373ffffffffffffffffffffffffffffffffffffffff160217905550600160028181805490500391508161097d91906118a9565b50610990565b8080600101915050610852565b3373ffffffffffffffffffffffffffffffffffffffff168273ffffffffffffffffffffffffffffffffffffffff167f1f32c1b084e2de0713b8fb16bd46bb9df710a3dbeae2f3ca93af46e016dcc6b060405160405180910390a35050565b6109f6610b45565b1515610a0157600080fd5b600073ffffffffffffffffffffffffffffffffffffffff166000809054906101000a900473ffffffffffffffffffffffffffffffffffffffff1673ffffffffffffffffffffffffffffffffffffffff167f8be0079c531659141344cd1fd0a4f28419497f9722a3daafe3b4186f6b6457e060405160405180910390a360008060006101000a81548173ffffffffffffffffffffffffffffffffffffffff021916908373ffffffffffffffffffffffffffffffffffffffff160217905550565b6000610aca610b45565b1515610ad557600080fd5b600360008373ffffffffffffffffffffffffffffffffffffffff1673ffffffffffffffffffffffffffffffffffffffff168152602001908152602001600020549050919050565b60008060009054906101000a900473ffffffffffffffffffffffffffffffffffffffff16905090565b60008060009054906101000a900473ffffffffffffffffffffffffffffffffffffffff1673ffffffffffffffffffffffffffffffffffffffff163373ffffffffffffffffffffffffffffffffffffffff1614905090565b610ba4610b45565b1515610baf57600080fd5b600160008373ffffffffffffffffffffffffffffffffffffffff1673ffffffffffffffffffffffffffffffffffffffff16815260200190815260200160002060009054906101000a900460ff161515610c3d576040517f08c379a0000000000000000000000000000000000000000000000000000000008152600401610c349061221d565b60405180910390fd5b60028054905081101515610c86576040517f08c379a0000000000000000000000000000000000000000000000000000000008152600401610c7d9061227d565b60405180910390fd5b8173ffffffffffffffffffffffffffffffffffffffff16600282815481101515610cac57fe5b9060005260206000200160009054906101000a900473ffffffffffffffffffffffffffffffffffffffff1673ffffffffffffffffffffffffffffffffffffffff16141515610d2f576040517f08c379a0000000000000000000000000000000000000000000000000000000008152600401610d269061223d565b60405180910390fd5b600160008373ffffffffffffffffffffffffffffffffffffffff1673ffffffffffffffffffffffffffffffffffffffff16815260200190815260200160002060006101000a81549060ff02191690556002600160028054905003815481101515610d9557fe5b9060005260206000200160009054906101000a900473ffffffffffffffffffffffffffffffffffffffff16600282815481101515610dcf57fe5b9060005260206000200160006101000a81548173ffffffffffffffffffffffffffffffffffffffff021916908373ffffffffffffffffffffffffffffffffffffffff1602179055506001600281818054905003915081610e2f91906118a9565b503373ffffffffffffffffffffffffffffffffffffffff168273ffffffffffffffffffffffffffffffffffffffff167f1f32c1b084e2de0713b8fb16bd46bb9df710a3dbeae2f3ca93af46e016dcc6b060405160405180910390a35050565b60016020528060005260406000206000915054906101000a900460ff1681565b60036020528060005260406000206000915090505481565b60606002805480602002602001604051908101604052809291908181526020018280548015610f4a57602002820191906000526020600020905b8160009054906101000a900473ffffffffffffffffffffffffffffffffffffffff1673ffffffffffffffffffffffffffffffffffffffff1681526020019060010190808311610f00575b5050505050905090565b606080600080610f62610b45565b1515610f6d57600080fd5b6040805190810160405280601a81526020017f7472616e7366657228616464726573732c2075696e74323536290000000000008152509350836040518082805190602001908083835b602083101515610fdb5780518252602082019150602081019050602083039250610fb6565b6001836020036101000a0380198251168184511680821785525050505050509050019150506040518091039020868660405160240161101b9291906121b7565b604051602081830303815290604052907bffffffffffffffffffffffffffffffffffffffffffffffffffffffff19166020820180517bffffffffffffffffffffffffffffffffffffffffffffffffffffffff838183161783525050505092508673ffffffffffffffffffffffffffffffffffffffff168360405180828051906020019080838360005b838110156110bf5780820151818401526020810190506110a4565b50505050905090810190601f1680156110ec5780820380516001836020036101000a031916815260200191505b509150506000604051808303816000865af1915050151561110c57600080fd5b600360008873ffffffffffffffffffffffffffffffffffffffff1673ffffffffffffffffffffffffffffffffffffffff168152602001908152602001600020549150611161858361178e90919063ffffffff16565b905080600360008973ffffffffffffffffffffffffffffffffffffffff1673ffffffffffffffffffffffffffffffffffffffff168152602001908152602001600020819055508573ffffffffffffffffffffffffffffffffffffffff168773ffffffffffffffffffffffffffffffffffffffff167fec37a407e13e9283023de85016cfda169c84b8f0e8dcda13c92311ab8fee7ad587604051611204919061231e565b60405180910390a350505050505050565b61121d6118d5565b6112256118d5565b606080600160003373ffffffffffffffffffffffffffffffffffffffff1673ffffffffffffffffffffffffffffffffffffffff16815260200190815260200160002060009054906101000a900460ff1615156112b6576040517f08c379a00000000000000000000000000000000000000000000000000000000081526004016112ad9061229d565b60405180910390fd5b610180604051908101604052808d60006004811015156112d257fe5b602002015173ffffffffffffffffffffffffffffffffffffffff1681526020018d600160048110151561130157fe5b602002015173ffffffffffffffffffffffffffffffffffffffff1681526020018d600260048110151561133057fe5b602002015173ffffffffffffffffffffffffffffffffffffffff1681526020018d600360048110151561135f57fe5b602002015173ffffffffffffffffffffffffffffffffffffffff1681526020018c600060068110151561138e57fe5b602002015181526020018c60016006811015156113a757fe5b602002015181526020018c60026006811015156113c057fe5b602002015181526020018c60036006811015156113d957fe5b602002015181526020018c60046006811015156113f257fe5b602002015181526020018c600560068110151561140b57fe5b602002015181526020018b600060028110151561142457fe5b602002015181526020018b600160028110151561143d57fe5b60200201518152509350610180604051908101604052808a600060048110151561146357fe5b602002015173ffffffffffffffffffffffffffffffffffffffff1681526020018a600160048110151561149257fe5b602002015173ffffffffffffffffffffffffffffffffffffffff1681526020018a60026004811015156114c157fe5b602002015173ffffffffffffffffffffffffffffffffffffffff1681526020018a60036004811015156114f057fe5b602002015173ffffffffffffffffffffffffffffffffffffffff16815260200189600060068110151561151f57fe5b6020020151815260200189600160068110151561153857fe5b6020020151815260200189600260068110151561155157fe5b6020020151815260200189600360068110151561156a57fe5b6020020151815260200189600460068110151561158357fe5b6020020151815260200189600560068110151561159c57fe5b602002015181526020018860006002811015156115b557fe5b602002015181526020018860016002811015156115ce57fe5b602002015181525092506101006040519081016040528060d4815260200161256660d491399150816040518082805190602001908083835b60208310151561162b5780518252602082019150602081019050602083039250611606565b6001836020036101000a03801982511681845116808217855250505050505090500191505060405180910390208484888860405160240161166f94939291906122bd565b604051602081830303815290604052907bffffffffffffffffffffffffffffffffffffffffffffffffffffffff19166020820180517bffffffffffffffffffffffffffffffffffffffffffffffffffffffff838183161783525050505090508c73ffffffffffffffffffffffffffffffffffffffff168160405180828051906020019080838360005b838110156117135780820151818401526020810190506116f8565b50505050905090810190601f1680156117405780820380516001836020036101000a031916815260200191505b509150506000604051808303816000865af1915050151561176057600080fd5b50505050505050505050505050565b611777610b45565b151561178257600080fd5b61178b816117af565b50565b60008082840190508381101515156117a557600080fd5b8091505092915050565b600073ffffffffffffffffffffffffffffffffffffffff168173ffffffffffffffffffffffffffffffffffffffff16141515156117eb57600080fd5b8073ffffffffffffffffffffffffffffffffffffffff166000809054906101000a900473ffffffffffffffffffffffffffffffffffffffff1673ffffffffffffffffffffffffffffffffffffffff167f8be0079c531659141344cd1fd0a4f28419497f9722a3daafe3b4186f6b6457e060405160405180910390a3806000806101000a81548173ffffffffffffffffffffffffffffffffffffffff021916908373ffffffffffffffffffffffffffffffffffffffff16021790555050565b8154818355818111156118d0578183600052602060002091820191016118cf919061198f565b5b505050565b61018060405190810160405280600073ffffffffffffffffffffffffffffffffffffffff168152602001600073ffffffffffffffffffffffffffffffffffffffff168152602001600073ffffffffffffffffffffffffffffffffffffffff168152602001600073ffffffffffffffffffffffffffffffffffffffff16815260200160008152602001600081526020016000815260200160008152602001600081526020016000815260200160608152602001606081525090565b6119b191905b808211156119ad576000816000905550600101611995565b5090565b90565b60006119c082356124e8565b905092915050565b600082601f83011215156119db57600080fd5b60046119ee6119e9826123b9565b61238c565b91508183856020840282011115611a0457600080fd5b60005b83811015611a345781611a1a88826119b4565b845260208401935060208301925050600181019050611a07565b5050505092915050565b600082601f8301121515611a5157600080fd5b6002611a64611a5f826123db565b61238c565b9150818360005b83811015611a9b5781358601611a818882611b1b565b845260208401935060208301925050600181019050611a6b565b5050505092915050565b600082601f8301121515611ab857600080fd5b6006611acb611ac6826123fd565b61238c565b91508183856020840282011115611ae157600080fd5b60005b83811015611b115781611af78882611bc7565b845260208401935060208301925050600181019050611ae4565b5050505092915050565b600082601f8301121515611b2e57600080fd5b8135611b41611b3c8261241f565b61238c565b91508082526020830160208301858383011115611b5d57600080fd5b611b68838284612512565b50505092915050565b600082601f8301121515611b8457600080fd5b8135611b97611b928261244b565b61238c565b91508082526020830160208301858383011115611bb357600080fd5b611bbe838284612512565b50505092915050565b6000611bd38235612508565b905092915050565b600060208284031215611bed57600080fd5b6000611bfb848285016119b4565b91505092915050565b600080600060608486031215611c1957600080fd5b6000611c27868287016119b4565b9350506020611c38868287016119b4565b9250506040611c4986828701611bc7565b9150509250925092565b60008060008060008060008060006103208a8c031215611c7257600080fd5b6000611c808c828d016119b4565b9950506020611c918c828d016119c8565b98505060a0611ca28c828d01611aa5565b9750506101608a013567ffffffffffffffff811115611cc057600080fd5b611ccc8c828d01611a3e565b965050610180611cde8c828d016119c8565b955050610200611cf08c828d01611aa5565b9450506102c08a013567ffffffffffffffff811115611d0e57600080fd5b611d1a8c828d01611a3e565b9350506102e08a013567ffffffffffffffff811115611d3857600080fd5b611d448c828d01611b71565b9250506103008a013567ffffffffffffffff811115611d6257600080fd5b611d6e8c828d01611b71565b9150509295985092959850929598565b60008060408385031215611d9157600080fd5b6000611d9f858286016119b4565b9250506020611db085828601611bc7565b9150509250929050565b600080600080600060a08688031215611dd257600080fd5b6000611de0888289016119b4565b9550506020611df188828901611bc7565b9450506040611e02888289016119b4565b935050606086013567ffffffffffffffff811115611e1f57600080fd5b611e2b88828901611b71565b925050608086013567ffffffffffffffff811115611e4857600080fd5b611e5488828901611b71565b9150509295509295909350565b600060208284031215611e7357600080fd5b6000611e8184828501611bc7565b91505092915050565b611e93816124b2565b82525050565b6000611ea482612484565b808452602084019350611eb683612477565b60005b82811015611ee857611ecc868351611e8a565b611ed5826124a5565b9150602086019550600181019050611eb9565b50849250505092915050565b611efd816124d2565b82525050565b6000611f0e8261249a565b808452611f22816020860160208601612521565b611f2b81612554565b602085010191505092915050565b6000611f448261248f565b808452611f58816020860160208601612521565b611f6181612554565b602085010191505092915050565b6000601582527f5441524745545f4e4f545f415554484f52495a454400000000000000000000006020830152604082019050919050565b6000601b82527f415554484f52495a45445f414444524553535f4d49534d4154434800000000006020830152604082019050919050565b6000601982527f5441524745545f414c52454144595f415554484f52495a4544000000000000006020830152604082019050919050565b6000601382527f494e4445585f4f55545f4f465f424f554e4453000000000000000000000000006020830152604082019050919050565b6000601582527f53454e4445525f4e4f545f415554484f52495a454400000000000000000000006020830152604082019050919050565b60006101808301600083015161209b6000860182611e8a565b5060208301516120ae6020860182611e8a565b5060408301516120c16040860182611e8a565b5060608301516120d46060860182611e8a565b5060808301516120e7608086018261218d565b5060a08301516120fa60a086018261218d565b5060c083015161210d60c086018261218d565b5060e083015161212060e086018261218d565b5061010083015161213561010086018261218d565b5061012083015161214a61012086018261218d565b506101408301518482036101408601526121648282611f39565b9150506101608301518482036101608601526121808282611f39565b9150508091505092915050565b612196816124de565b82525050565b60006020820190506121b16000830184611e8a565b92915050565b60006040820190506121cc6000830185611e8a565b6121d9602083018461218d565b9392505050565b600060208201905081810360008301526121fa8184611e99565b905092915050565b60006020820190506122176000830184611ef4565b92915050565b6000602082019050818103600083015261223681611f6f565b9050919050565b6000602082019050818103600083015261225681611fa6565b9050919050565b6000602082019050818103600083015261227681611fdd565b9050919050565b6000602082019050818103600083015261229681612014565b9050919050565b600060208201905081810360008301526122b68161204b565b9050919050565b600060808201905081810360008301526122d78187612082565b905081810360208301526122eb8186612082565b905081810360408301526122ff8185611f03565b905081810360608301526123138184611f03565b905095945050505050565b6000602082019050612333600083018461218d565b92915050565b600060808201905061234e600083018761218d565b61235b6020830186611e8a565b818103604083015261236d8185611f03565b905081810360608301526123818184611f03565b905095945050505050565b6000604051905081810181811067ffffffffffffffff821117156123af57600080fd5b8060405250919050565b600067ffffffffffffffff8211156123d057600080fd5b602082029050919050565b600067ffffffffffffffff8211156123f257600080fd5b602082029050919050565b600067ffffffffffffffff82111561241457600080fd5b602082029050919050565b600067ffffffffffffffff82111561243657600080fd5b601f19601f8301169050602081019050919050565b600067ffffffffffffffff82111561246257600080fd5b601f19601f8301169050602081019050919050565b6000602082019050919050565b600081519050919050565b600081519050919050565b600081519050919050565b6000602082019050919050565b600073ffffffffffffffffffffffffffffffffffffffff82169050919050565b60008115159050919050565b6000819050919050565b600073ffffffffffffffffffffffffffffffffffffffff82169050919050565b6000819050919050565b82818337600083830152505050565b60005b8381101561253f578082015181840152602081019050612524565b8381111561254e576000848401525b50505050565b6000601f19601f830116905091905056006d617463684f72646572732828616464726573732c616464726573732c616464726573732c616464726573732c75696e743235362c75696e743235362c75696e743235362c75696e743235362c75696e743235362c75696e743235362c62797465732c6279746573292c28616464726573732c616464726573732c616464726573732c616464726573732c75696e743235362c75696e743235362c75696e743235362c75696e743235362c75696e743235362c75696e743235362c62797465732c6279746573292c62797465732c627974657329a265627a7a723058204a0a2826ae03a2c88601f40898a97fd2613a5b05e2010e8accf2628f7e1260a86c6578706572696d656e74616cf50037",
  "source": "pragma solidity ^0.4.24;\npragma experimental ABIEncoderV2;\n\nimport \"openzeppelin-solidity/contracts/ownership/Ownable.sol\";\nimport \"openzeppelin-solidity/contracts/math/SafeMath.sol\";\n\ncontract CapoProxy is Ownable {\n\tusing SafeMath for uint256;\n\t\n  struct Order {\n\t\taddress makerAddress;           // Address that created the order.      \n\t\taddress takerAddress;           // Address that is allowed to fill the order. If set to 0, any address is allowed to fill the order.          \n\t\taddress feeRecipientAddress;    // Address that will recieve fees when order is filled.      \n\t\taddress senderAddress;          // Address that is allowed to call Exchange contract methods that affect this order. If set to 0, any address is allowed to call these methods.\n\t\tuint256 makerAssetAmount;       // Amount of makerAsset being offered by maker. Must be greater than 0.        \n\t\tuint256 takerAssetAmount;       // Amount of takerAsset being bid on by maker. Must be greater than 0.        \n\t\tuint256 makerFee;               // Amount of ZRX paid to feeRecipient by maker when order is filled. If set to 0, no transfer of ZRX from maker to feeRecipient will be attempted.\n\t\tuint256 takerFee;               // Amount of ZRX paid to feeRecipient by taker when order is filled. If set to 0, no transfer of ZRX from taker to feeRecipient will be attempted.\n\t\tuint256 expirationTimeSeconds;  // Timestamp in seconds at which order expires.          \n\t\tuint256 salt;                   // Arbitrary number to facilitate uniqueness of the order's hash.     \n\t\tbytes makerAssetData;           // Encoded data that can be decoded by a specified proxy contract when transferring makerAsset. The last byte references the id of this proxy.\n\t\tbytes takerAssetData;           // Encoded data that can be decoded by a specified proxy contract when transferring takerAsset. The last byte references the id of this proxy.\n  }\n\n\t/// @dev Address is authorized or not\n\tmapping (address => bool) public authorized;\n\n\t/// @dev list authorized addresses\n\taddress[] public authorities;\n\n  mapping (address => uint256) public totalWithdraws;\n\t\n\t/// @dev Contructure function\n\tconstructor(address[] initializeAuthorities) public {\n\t\taddAuthorizedAddress(msg.sender);\n\n    uint authorityLength = initializeAuthorities.length;\n    for (uint i=0; i<authorityLength; i++) {\n      address authority = initializeAuthorities[i];\n      addAuthorizedAddress(authority);\n    }\n\t}\n\n/* Events */\n\n\t// Event logged when a new address is authorized.\n\tevent AuthorizedAddressAdded(\n\t\t\taddress indexed target,\n\t\t\taddress indexed caller\n\t);\n\n\t// Event logged when a currently authorized address is unauthorized.\n\tevent AuthorizedAddressRemoved(\n\t\taddress indexed target,\n\t\taddress indexed caller\n\t);\n\n\t// Event logged when onwer withdraw token\n\tevent WithDraw(\n    address indexed asset,\n\t\taddress indexed to,\n\t\tuint256 amount\n\t);\n\n/** Modifier */\n\n\t/// @dev Only authorized addresses can invoke functions with this modifier.\n\tmodifier onlyAuthorized {\n\t\trequire(\n\t\t\tauthorized[msg.sender],\n\t\t\t\"SENDER_NOT_AUTHORIZED\"\n\t\t);\n\t\t_;\n\t}\n\n\t/// @dev Only order's maker addresses can invoke functions with this modifier.\n\tmodifier onlyMaker(address maker) {\n\t\trequire(\n\t\t\tmaker == msg.sender, \n\t\t\t\"SENDER_IS_NOT_MARKER\"\n\t\t);\n\t\t_;\n\t}\n\n/** Owner functions */\n\n\t/// @dev Withdraw amount of asset to address\n\t/// @param to Receiver address\n\t/// @param amount number of tokens will be transfered\n\tfunction withdraw(address asset, address to, uint256 amount) public onlyOwner {\n\t\tstring memory functionSignature = 'transfer(address, uint256)';\n\t\tbytes memory encodedDatas = abi.encodeWithSelector(bytes4(keccak256(functionSignature)), to, amount);\n\t\trequire(asset.call(encodedDatas));\n\n\t\t// append total withdraw amount\n    uint256 totalWithdraw = totalWithdraws[asset];\n    uint256 newTotalWithdraw = totalWithdraw.add(amount);\n    totalWithdraws[asset] = newTotalWithdraw;\n\t\temit WithDraw(asset, to, amount);\n\t}\n\n\t/// @dev Get total amount of weth was withdrew\n\t/// @return total amount\n\tfunction getTotalWithdraw(address asset) public onlyOwner returns (uint256) {\n\t\treturn totalWithdraws[asset];\n\t}\n\n/** Authorized functions */\n\t\n\t/// @dev Authorizes an address.\n\t/// @param target Address to authorize.\n\tfunction addAuthorizedAddress(address target) public onlyOwner {\n\t\trequire(\n\t\t\t\t!authorized[target],\n\t\t\t\t\"TARGET_ALREADY_AUTHORIZED\"\n\t\t);\n\n\t\tauthorized[target] = true;\n\t\tauthorities.push(target);\n\t\temit AuthorizedAddressAdded(target, msg.sender);\n\t}\n\n\t/// @dev Removes authorizion of an address.\n\t/// @param target Address to remove authorization from.\n\tfunction removeAuthorizedAddress(address target) external onlyOwner {\n\t\trequire(\n\t\t\t\tauthorized[target],\n\t\t\t\t\"TARGET_NOT_AUTHORIZED\"\n\t\t);\n\n\t\tdelete authorized[target];\n\t\tfor (uint256 i = 0; i < authorities.length; i++) {\n\t\t\t\tif (authorities[i] == target) {\n\t\t\t\t\t\tauthorities[i] = authorities[authorities.length - 1];\n\t\t\t\t\t\tauthorities.length -= 1;\n\t\t\t\t\t\tbreak;\n\t\t\t\t}\n\t\t}\n\t\temit AuthorizedAddressRemoved(target, msg.sender);\n\t}\n\n\t/// @dev Removes authorizion of an address.\n\t/// @param target Address to remove authorization from.\n\t/// @param index Index of target in authorities array.\n\tfunction removeAuthorizedAddressAtIndex(\n\t\taddress target, \n\t\tuint256 index\n\t) external onlyOwner {\n\t\trequire(\n\t\t\t\tauthorized[target],\n\t\t\t\t\"TARGET_NOT_AUTHORIZED\"\n\t\t);\n\t\trequire(\n\t\t\t\tindex < authorities.length,\n\t\t\t\t\"INDEX_OUT_OF_BOUNDS\"\n\t\t);\n\t\trequire(\n\t\t\t\tauthorities[index] == target,\n\t\t\t\t\"AUTHORIZED_ADDRESS_MISMATCH\"\n\t\t);\n\n\t\tdelete authorized[target];\n\t\tauthorities[index] = authorities[authorities.length - 1];\n\t\tauthorities.length -= 1;\n\t\temit AuthorizedAddressRemoved(target, msg.sender);\n\t}\n\n\t/// @dev Gets all authorized addresses.\n\t/// @return Array of authorized addresses.\n\tfunction getAuthorizedAddresses() external view returns (address[] memory) {\n\t\treturn authorities;\n\t}\n\n/** 0x function */\n\n\t/// @dev Send executed transaction to exchange\n\t/// @param exchangeAddress Exchange smartcontract address\n\t/// @param salt Arbitrary number to ensure uniqueness of transaction hash.\n\t/// @param signerAddress Address of transaction signer.\n\t/// @param data AbiV2 encoded calldata.\n\t/// @param signature Proof of signer transaction by signer.\n\tfunction executeTransaction(\n\t\taddress exchangeAddress,\n\t\t\tuint256 salt,\n\t\t\taddress signerAddress,\n\t\t\tbytes data,\n\t\t\tbytes signature\n\t) public {\n\t\tstring memory functionSignature = 'executeTransaction(uint256,address,bytes,bytes)';\n\t\tbytes memory encodedDatas = abi.encodeWithSelector(bytes4(keccak256(functionSignature)), salt, signerAddress, data,signature);\n\t\trequire(exchangeAddress.call(encodedDatas));\n\t}\n\n\t/// @dev Match two order. Only authorized msg.sender accepted\n\t/// @param exchangeAddress Exchange smartcontract address\n\t/// @param leftOrderAddresses First order's makerAddress, takerAddress, feeRecipientAddress, senderAddress\n\t/// @param leftOrderValues First order's makerAssetAmount, takerAssetAmount, makerFee, takerFee, expirationTimeSeconds, salt\n\t/// @param leftOrderDatas First order's makerAssetData, takerAssetData\n\t/// @param rightOrderAddresses Second order's makerAddress, takerAddress, feeRecipientAddress, senderAddress\n\t/// @param rightOrderValues Second order's makerAssetAmount, takerAssetAmount, makerFee, takerFee, expirationTimeSeconds, salt\n\t/// @param rightOrderDatas Second order's makerAssetData, takerAssetData\n\t/// @param leftSignature Proof that order was created by the left maker.\n  /// @param rightSignature Proof that order was created by the right maker.\n\tfunction matchOrders(\n\t\taddress exchangeAddress,\n\t\taddress[4] leftOrderAddresses,\n\t\tuint256[6] leftOrderValues, \n\t\tbytes[2] leftOrderDatas, \n\t\taddress[4] rightOrderAddresses, \n\t\tuint256[6] rightOrderValues, \n\t\tbytes[2] rightOrderDatas, \n\t\tbytes memory leftSignature,\n\t\tbytes memory rightSignature\n  ) public onlyAuthorized\n\t{\n\t\tOrder memory leftOrder = Order(\n\t\t\tleftOrderAddresses[0],\n\t\t\tleftOrderAddresses[1],\n\t\t\tleftOrderAddresses[2],\n\t\t\tleftOrderAddresses[3],\n\t\t\tleftOrderValues[0],\n\t\t\tleftOrderValues[1],\n\t\t\tleftOrderValues[2],\n\t\t\tleftOrderValues[3],\n\t\t\tleftOrderValues[4],\n\t\t\tleftOrderValues[5],\n\t\t\tleftOrderDatas[0],\n\t\t\tleftOrderDatas[1]\n\t\t);\n\n\t\tOrder memory rightOrder = Order(\n\t\t\trightOrderAddresses[0],\n\t\t\trightOrderAddresses[1],\n\t\t\trightOrderAddresses[2],\n\t\t\trightOrderAddresses[3],\n\t\t\trightOrderValues[0],\n\t\t\trightOrderValues[1],\n\t\t\trightOrderValues[2],\n\t\t\trightOrderValues[3],\n\t\t\trightOrderValues[4],\n\t\t\trightOrderValues[5],\n\t\t\trightOrderDatas[0],\n\t\t\trightOrderDatas[1]\n\t\t);\n\t\tstring memory functionSignature = \"matchOrders((address,address,address,address,uint256,uint256,uint256,uint256,uint256,uint256,bytes,bytes),(address,address,address,address,uint256,uint256,uint256,uint256,uint256,uint256,bytes,bytes),bytes,bytes)\";\n\t\tbytes memory encodedDatas = abi.encodeWithSelector(bytes4(keccak256(functionSignature)), leftOrder,rightOrder,leftSignature,rightSignature);\n\t\trequire(exchangeAddress.call(encodedDatas));\n\t}\n}",
  "sourcePath": "/Users/duongkhong/Documents/Projects/coincapo/smartcontracts/contracts/CapoProxy.sol",
  "compiler": {
    "name": "solc",
    "version": "0.4.24+commit.e67f0147.Emscripten.clang"
  },
  "schemaVersion": "2.0.1",
  "updatedAt": "2018-12-23T10:24:12.215Z"
}