{
  "contractName": "CapoProxy",
  "abi": [
    {
      "constant": false,
      "inputs": [],
      "name": "renounceOwnership",
      "outputs": [],
      "payable": false,
      "stateMutability": "nonpayable",
      "type": "function"
    },
    {
      "constant": true,
      "inputs": [],
      "name": "owner",
      "outputs": [
        {
          "name": "",
          "type": "address"
        }
      ],
      "payable": false,
      "stateMutability": "view",
      "type": "function"
    },
    {
      "constant": true,
      "inputs": [],
      "name": "isOwner",
      "outputs": [
        {
          "name": "",
          "type": "bool"
        }
      ],
      "payable": false,
      "stateMutability": "view",
      "type": "function"
    },
    {
      "constant": true,
      "inputs": [
        {
          "name": "",
          "type": "address"
        }
      ],
      "name": "totalWithdraws",
      "outputs": [
        {
          "name": "",
          "type": "uint256"
        }
      ],
      "payable": false,
      "stateMutability": "view",
      "type": "function"
    },
    {
      "constant": false,
      "inputs": [
        {
          "name": "newOwner",
          "type": "address"
        }
      ],
      "name": "transferOwnership",
      "outputs": [],
      "payable": false,
      "stateMutability": "nonpayable",
      "type": "function"
    },
    {
      "anonymous": false,
      "inputs": [
        {
          "indexed": true,
          "name": "asset",
          "type": "address"
        },
        {
          "indexed": true,
          "name": "to",
          "type": "address"
        },
        {
          "indexed": false,
          "name": "amount",
          "type": "uint256"
        }
      ],
      "name": "WithDraw",
      "type": "event"
    },
    {
      "anonymous": false,
      "inputs": [
        {
          "indexed": true,
          "name": "previousOwner",
          "type": "address"
        },
        {
          "indexed": true,
          "name": "newOwner",
          "type": "address"
        }
      ],
      "name": "OwnershipTransferred",
      "type": "event"
    },
    {
      "constant": false,
      "inputs": [
        {
          "name": "asset",
          "type": "address"
        },
        {
          "name": "to",
          "type": "address"
        },
        {
          "name": "amount",
          "type": "uint256"
        }
      ],
      "name": "withdraw",
      "outputs": [],
      "payable": false,
      "stateMutability": "nonpayable",
      "type": "function"
    },
    {
      "constant": true,
      "inputs": [
        {
          "name": "asset",
          "type": "address"
        }
      ],
      "name": "getTotalWithdraw",
      "outputs": [
        {
          "name": "",
          "type": "uint256"
        }
      ],
      "payable": false,
      "stateMutability": "view",
      "type": "function"
    },
    {
      "constant": false,
      "inputs": [
        {
          "name": "exchangeAddress",
          "type": "address"
        },
        {
          "name": "salt",
          "type": "uint256"
        },
        {
          "name": "signerAddress",
          "type": "address"
        },
        {
          "name": "data",
          "type": "bytes"
        },
        {
          "name": "signature",
          "type": "bytes"
        }
      ],
      "name": "executeTransaction",
      "outputs": [],
      "payable": false,
      "stateMutability": "nonpayable",
      "type": "function"
    },
    {
      "constant": false,
      "inputs": [
        {
          "name": "exchangeAddress",
          "type": "address"
        },
        {
          "name": "leftOrderAddresses",
          "type": "address[4]"
        },
        {
          "name": "leftOrderValues",
          "type": "uint256[6]"
        },
        {
          "name": "leftOrderDatas",
          "type": "bytes[2]"
        },
        {
          "name": "rightOrderAddresses",
          "type": "address[4]"
        },
        {
          "name": "rightOrderValues",
          "type": "uint256[6]"
        },
        {
          "name": "rightOrderDatas",
          "type": "bytes[2]"
        },
        {
          "name": "leftSignature",
          "type": "bytes"
        },
        {
          "name": "rightSignature",
          "type": "bytes"
        }
      ],
      "name": "matchOrders",
      "outputs": [],
      "payable": false,
      "stateMutability": "nonpayable",
      "type": "function"
    }
  ],
  "bytecode": "0x6080604052336000806101000a81548173ffffffffffffffffffffffffffffffffffffffff021916908373ffffffffffffffffffffffffffffffffffffffff1602179055506000809054906101000a900473ffffffffffffffffffffffffffffffffffffffff1673ffffffffffffffffffffffffffffffffffffffff16600073ffffffffffffffffffffffffffffffffffffffff167f8be0079c531659141344cd1fd0a4f28419497f9722a3daafe3b4186f6b6457e060405160405180910390a3611938806100cf6000396000f300608060405260043610610099576000357c0100000000000000000000000000000000000000000000000000000000900463ffffffff168063656a906d1461009e578063715018a6146100c75780637f9d841f146100de5780638da5cb5b1461011b5780638f32d59b14610146578063d2abc39314610171578063d9caed12146101ae578063ea0bc801146101d7578063f2fde38b14610200575b600080fd5b3480156100aa57600080fd5b506100c560048036036100c091908101906112fd565b610229565b005b3480156100d357600080fd5b506100dc6103ff565b005b3480156100ea57600080fd5b506101056004803603610100919081019061115a565b6104d1565b6040516101129190611608565b60405180910390f35b34801561012757600080fd5b5061013061051a565b60405161013d9190611548565b60405180910390f35b34801561015257600080fd5b5061015b610543565b604051610168919061158c565b60405180910390f35b34801561017d57600080fd5b506101986004803603610193919081019061115a565b61059a565b6040516101a59190611608565b60405180910390f35b3480156101ba57600080fd5b506101d560048036036101d09190810190611183565b6105b2565b005b3480156101e357600080fd5b506101fe60048036036101f991908101906111d2565b610873565b005b34801561020c57600080fd5b506102276004803603610222919081019061115a565b610d3f565b005b606080606060405190810160405280602f81526020017f657865637574655472616e73616374696f6e2875696e743235362c616464726581526020017f73732c62797465732c62797465732900000000000000000000000000000000008152509150816040518082805190602001908083835b6020831015156102c1578051825260208201915060208101905060208303925061029c565b6001836020036101000a0380198251168184511680821785525050505050509050019150506040518091039020868686866040516024016103059493929190611623565b604051602081830303815290604052907bffffffffffffffffffffffffffffffffffffffffffffffffffffffff19166020820180517bffffffffffffffffffffffffffffffffffffffffffffffffffffffff838183161783525050505090508673ffffffffffffffffffffffffffffffffffffffff168160405180828051906020019080838360005b838110156103a957808201518184015260208101905061038e565b50505050905090810190601f1680156103d65780820380516001836020036101000a031916815260200191505b509150506000604051808303816000865af191505015156103f657600080fd5b50505050505050565b610407610543565b151561041257600080fd5b600073ffffffffffffffffffffffffffffffffffffffff166000809054906101000a900473ffffffffffffffffffffffffffffffffffffffff1673ffffffffffffffffffffffffffffffffffffffff167f8be0079c531659141344cd1fd0a4f28419497f9722a3daafe3b4186f6b6457e060405160405180910390a360008060006101000a81548173ffffffffffffffffffffffffffffffffffffffff021916908373ffffffffffffffffffffffffffffffffffffffff160217905550565b6000600160008373ffffffffffffffffffffffffffffffffffffffff1673ffffffffffffffffffffffffffffffffffffffff168152602001908152602001600020549050919050565b60008060009054906101000a900473ffffffffffffffffffffffffffffffffffffffff16905090565b60008060009054906101000a900473ffffffffffffffffffffffffffffffffffffffff1673ffffffffffffffffffffffffffffffffffffffff163373ffffffffffffffffffffffffffffffffffffffff1614905090565b60016020528060005260406000206000915090505481565b6060806000806105c0610543565b15156105cb57600080fd5b6040805190810160405280601981526020017f7472616e7366657228616464726573732c75696e7432353629000000000000008152509350836040518082805190602001908083835b6020831015156106395780518252602082019150602081019050602083039250610614565b6001836020036101000a03801982511681845116808217855250505050505090500191505060405180910390208686604051602401610679929190611563565b604051602081830303815290604052907bffffffffffffffffffffffffffffffffffffffffffffffffffffffff19166020820180517bffffffffffffffffffffffffffffffffffffffffffffffffffffffff838183161783525050505092508673ffffffffffffffffffffffffffffffffffffffff168360405180828051906020019080838360005b8381101561071d578082015181840152602081019050610702565b50505050905090810190601f16801561074a5780820380516001836020036101000a031916815260200191505b509150506000604051808303816000865af1915050151561076a57600080fd5b600160008873ffffffffffffffffffffffffffffffffffffffff1673ffffffffffffffffffffffffffffffffffffffff1681526020019081526020016000205491506107bf8583610d5e90919063ffffffff16565b905080600160008973ffffffffffffffffffffffffffffffffffffffff1673ffffffffffffffffffffffffffffffffffffffff168152602001908152602001600020819055508573ffffffffffffffffffffffffffffffffffffffff168773ffffffffffffffffffffffffffffffffffffffff167fec37a407e13e9283023de85016cfda169c84b8f0e8dcda13c92311ab8fee7ad5876040516108629190611608565b60405180910390a350505050505050565b61087b610e79565b610883610e79565b606080610180604051908101604052808d60006004811015156108a257fe5b602002015173ffffffffffffffffffffffffffffffffffffffff1681526020018d60016004811015156108d157fe5b602002015173ffffffffffffffffffffffffffffffffffffffff1681526020018d600260048110151561090057fe5b602002015173ffffffffffffffffffffffffffffffffffffffff1681526020018d600360048110151561092f57fe5b602002015173ffffffffffffffffffffffffffffffffffffffff1681526020018c600060068110151561095e57fe5b602002015181526020018c600160068110151561097757fe5b602002015181526020018c600260068110151561099057fe5b602002015181526020018c60036006811015156109a957fe5b602002015181526020018c60046006811015156109c257fe5b602002015181526020018c60056006811015156109db57fe5b602002015181526020018b60006002811015156109f457fe5b602002015181526020018b6001600281101515610a0d57fe5b60200201518152509350610180604051908101604052808a6000600481101515610a3357fe5b602002015173ffffffffffffffffffffffffffffffffffffffff1681526020018a6001600481101515610a6257fe5b602002015173ffffffffffffffffffffffffffffffffffffffff1681526020018a6002600481101515610a9157fe5b602002015173ffffffffffffffffffffffffffffffffffffffff1681526020018a6003600481101515610ac057fe5b602002015173ffffffffffffffffffffffffffffffffffffffff168152602001896000600681101515610aef57fe5b60200201518152602001896001600681101515610b0857fe5b60200201518152602001896002600681101515610b2157fe5b60200201518152602001896003600681101515610b3a57fe5b60200201518152602001896004600681101515610b5357fe5b60200201518152602001896005600681101515610b6c57fe5b60200201518152602001886000600281101515610b8557fe5b60200201518152602001886001600281101515610b9e57fe5b602002015181525092506101006040519081016040528060d4815260200161182b60d491399150816040518082805190602001908083835b602083101515610bfb5780518252602082019150602081019050602083039250610bd6565b6001836020036101000a038019825116818451168082178552505050505050905001915050604051809103902084848888604051602401610c3f94939291906115a7565b604051602081830303815290604052907bffffffffffffffffffffffffffffffffffffffffffffffffffffffff19166020820180517bffffffffffffffffffffffffffffffffffffffffffffffffffffffff838183161783525050505090508c73ffffffffffffffffffffffffffffffffffffffff168160405180828051906020019080838360005b83811015610ce3578082015181840152602081019050610cc8565b50505050905090810190601f168015610d105780820380516001836020036101000a031916815260200191505b509150506000604051808303816000865af19150501515610d3057600080fd5b50505050505050505050505050565b610d47610543565b1515610d5257600080fd5b610d5b81610d7f565b50565b6000808284019050838110151515610d7557600080fd5b8091505092915050565b600073ffffffffffffffffffffffffffffffffffffffff168173ffffffffffffffffffffffffffffffffffffffff1614151515610dbb57600080fd5b8073ffffffffffffffffffffffffffffffffffffffff166000809054906101000a900473ffffffffffffffffffffffffffffffffffffffff1673ffffffffffffffffffffffffffffffffffffffff167f8be0079c531659141344cd1fd0a4f28419497f9722a3daafe3b4186f6b6457e060405160405180910390a3806000806101000a81548173ffffffffffffffffffffffffffffffffffffffff021916908373ffffffffffffffffffffffffffffffffffffffff16021790555050565b61018060405190810160405280600073ffffffffffffffffffffffffffffffffffffffff168152602001600073ffffffffffffffffffffffffffffffffffffffff168152602001600073ffffffffffffffffffffffffffffffffffffffff168152602001600073ffffffffffffffffffffffffffffffffffffffff16815260200160008152602001600081526020016000815260200160008152602001600081526020016000815260200160608152602001606081525090565b6000610f3f82356117ad565b905092915050565b600082601f8301121515610f5a57600080fd5b6004610f6d610f68826116a3565b611676565b91508183856020840282011115610f8357600080fd5b60005b83811015610fb35781610f998882610f33565b845260208401935060208301925050600181019050610f86565b5050505092915050565b600082601f8301121515610fd057600080fd5b6002610fe3610fde826116c5565b611676565b9150818360005b8381101561101a5781358601611000888261109a565b845260208401935060208301925050600181019050610fea565b5050505092915050565b600082601f830112151561103757600080fd5b600661104a611045826116e7565b611676565b9150818385602084028201111561106057600080fd5b60005b8381101561109057816110768882611146565b845260208401935060208301925050600181019050611063565b5050505092915050565b600082601f83011215156110ad57600080fd5b81356110c06110bb82611709565b611676565b915080825260208301602083018583830111156110dc57600080fd5b6110e78382846117d7565b50505092915050565b600082601f830112151561110357600080fd5b813561111661111182611735565b611676565b9150808252602083016020830185838301111561113257600080fd5b61113d8382846117d7565b50505092915050565b600061115282356117cd565b905092915050565b60006020828403121561116c57600080fd5b600061117a84828501610f33565b91505092915050565b60008060006060848603121561119857600080fd5b60006111a686828701610f33565b93505060206111b786828701610f33565b92505060406111c886828701611146565b9150509250925092565b60008060008060008060008060006103208a8c0312156111f157600080fd5b60006111ff8c828d01610f33565b99505060206112108c828d01610f47565b98505060a06112218c828d01611024565b9750506101608a013567ffffffffffffffff81111561123f57600080fd5b61124b8c828d01610fbd565b96505061018061125d8c828d01610f47565b95505061020061126f8c828d01611024565b9450506102c08a013567ffffffffffffffff81111561128d57600080fd5b6112998c828d01610fbd565b9350506102e08a013567ffffffffffffffff8111156112b757600080fd5b6112c38c828d016110f0565b9250506103008a013567ffffffffffffffff8111156112e157600080fd5b6112ed8c828d016110f0565b9150509295985092959850929598565b600080600080600060a0868803121561131557600080fd5b600061132388828901610f33565b955050602061133488828901611146565b945050604061134588828901610f33565b935050606086013567ffffffffffffffff81111561136257600080fd5b61136e888289016110f0565b925050608086013567ffffffffffffffff81111561138b57600080fd5b611397888289016110f0565b9150509295509295909350565b6113ad81611777565b82525050565b6113bc81611797565b82525050565b60006113cd8261176c565b8084526113e18160208601602086016117e6565b6113ea81611819565b602085010191505092915050565b600061140382611761565b8084526114178160208601602086016117e6565b61142081611819565b602085010191505092915050565b60006101808301600083015161144760008601826113a4565b50602083015161145a60208601826113a4565b50604083015161146d60408601826113a4565b50606083015161148060608601826113a4565b5060808301516114936080860182611539565b5060a08301516114a660a0860182611539565b5060c08301516114b960c0860182611539565b5060e08301516114cc60e0860182611539565b506101008301516114e1610100860182611539565b506101208301516114f6610120860182611539565b5061014083015184820361014086015261151082826113f8565b91505061016083015184820361016086015261152c82826113f8565b9150508091505092915050565b611542816117a3565b82525050565b600060208201905061155d60008301846113a4565b92915050565b600060408201905061157860008301856113a4565b6115856020830184611539565b9392505050565b60006020820190506115a160008301846113b3565b92915050565b600060808201905081810360008301526115c1818761142e565b905081810360208301526115d5818661142e565b905081810360408301526115e981856113c2565b905081810360608301526115fd81846113c2565b905095945050505050565b600060208201905061161d6000830184611539565b92915050565b60006080820190506116386000830187611539565b61164560208301866113a4565b818103604083015261165781856113c2565b9050818103606083015261166b81846113c2565b905095945050505050565b6000604051905081810181811067ffffffffffffffff8211171561169957600080fd5b8060405250919050565b600067ffffffffffffffff8211156116ba57600080fd5b602082029050919050565b600067ffffffffffffffff8211156116dc57600080fd5b602082029050919050565b600067ffffffffffffffff8211156116fe57600080fd5b602082029050919050565b600067ffffffffffffffff82111561172057600080fd5b601f19601f8301169050602081019050919050565b600067ffffffffffffffff82111561174c57600080fd5b601f19601f8301169050602081019050919050565b600081519050919050565b600081519050919050565b600073ffffffffffffffffffffffffffffffffffffffff82169050919050565b60008115159050919050565b6000819050919050565b600073ffffffffffffffffffffffffffffffffffffffff82169050919050565b6000819050919050565b82818337600083830152505050565b60005b838110156118045780820151818401526020810190506117e9565b83811115611813576000848401525b50505050565b6000601f19601f830116905091905056006d617463684f72646572732828616464726573732c616464726573732c616464726573732c616464726573732c75696e743235362c75696e743235362c75696e743235362c75696e743235362c75696e743235362c75696e743235362c62797465732c6279746573292c28616464726573732c616464726573732c616464726573732c616464726573732c75696e743235362c75696e743235362c75696e743235362c75696e743235362c75696e743235362c75696e743235362c62797465732c6279746573292c62797465732c627974657329a265627a7a72305820fd8bf0b22a4de7accbfda8c134908d66d3dd23d9fa4de53d80272654f6359b396c6578706572696d656e74616cf50037",
  "source": "pragma solidity ^0.4.24;\npragma experimental ABIEncoderV2;\n\nimport \"openzeppelin-solidity/contracts/ownership/Ownable.sol\";\nimport \"openzeppelin-solidity/contracts/math/SafeMath.sol\";\n\ncontract CapoProxy is Ownable {\n\tusing SafeMath for uint256;\n\t\n  struct Order {\n\t\taddress makerAddress;           // Address that created the order.      \n\t\taddress takerAddress;           // Address that is allowed to fill the order. If set to 0, any address is allowed to fill the order.          \n\t\taddress feeRecipientAddress;    // Address that will recieve fees when order is filled.      \n\t\taddress senderAddress;          // Address that is allowed to call Exchange contract methods that affect this order. If set to 0, any address is allowed to call these methods.\n\t\tuint256 makerAssetAmount;       // Amount of makerAsset being offered by maker. Must be greater than 0.        \n\t\tuint256 takerAssetAmount;       // Amount of takerAsset being bid on by maker. Must be greater than 0.        \n\t\tuint256 makerFee;               // Amount of ZRX paid to feeRecipient by maker when order is filled. If set to 0, no transfer of ZRX from maker to feeRecipient will be attempted.\n\t\tuint256 takerFee;               // Amount of ZRX paid to feeRecipient by taker when order is filled. If set to 0, no transfer of ZRX from taker to feeRecipient will be attempted.\n\t\tuint256 expirationTimeSeconds;  // Timestamp in seconds at which order expires.          \n\t\tuint256 salt;                   // Arbitrary number to facilitate uniqueness of the order's hash.     \n\t\tbytes makerAssetData;           // Encoded data that can be decoded by a specified proxy contract when transferring makerAsset. The last byte references the id of this proxy.\n\t\tbytes takerAssetData;           // Encoded data that can be decoded by a specified proxy contract when transferring takerAsset. The last byte references the id of this proxy.\n  }\n\n  mapping (address => uint256) public totalWithdraws;\n\n/* Events */\n\n\t// Event logged when onwer withdraw token\n\tevent WithDraw(\n    address indexed asset,\n\t\taddress indexed to,\n\t\tuint256 amount\n\t);\n\n/** Owner functions */\n\n\t/// @dev Withdraw amount of asset to address\n\t/// @param to Receiver address\n\t/// @param amount number of tokens will be transfered\n\tfunction withdraw(address asset, address to, uint256 amount) public onlyOwner {\n\t\tstring memory functionSignature = 'transfer(address,uint256)';\n\t\tbytes memory encodedDatas = abi.encodeWithSelector(bytes4(keccak256(functionSignature)), to, amount);\n\t\trequire(asset.call(encodedDatas));\n\n\t\t// append total withdraw amount\n    uint256 totalWithdraw = totalWithdraws[asset];\n    uint256 newTotalWithdraw = totalWithdraw.add(amount);\n    totalWithdraws[asset] = newTotalWithdraw;\n\t\temit WithDraw(asset, to, amount);\n\t}\n\n\t/// @dev Get total amount of weth was withdrew\n\t/// @return total amount\n\tfunction getTotalWithdraw(address asset) view returns (uint256) {\n\t\treturn totalWithdraws[asset];\n\t}\n\n/** 0x function */\n\n\t/// @dev Send executed transaction to exchange\n\t/// @param exchangeAddress Exchange smartcontract address\n\t/// @param salt Arbitrary number to ensure uniqueness of transaction hash.\n\t/// @param signerAddress Address of transaction signer.\n\t/// @param data AbiV2 encoded calldata.\n\t/// @param signature Proof of signer transaction by signer.\n\tfunction executeTransaction(\n\t\taddress exchangeAddress,\n\t\t\tuint256 salt,\n\t\t\taddress signerAddress,\n\t\t\tbytes data,\n\t\t\tbytes signature\n\t) public {\n\t\tstring memory functionSignature = 'executeTransaction(uint256,address,bytes,bytes)';\n\t\tbytes memory encodedDatas = abi.encodeWithSelector(bytes4(keccak256(functionSignature)), salt, signerAddress, data,signature);\n\t\trequire(exchangeAddress.call(encodedDatas));\n\t}\n\n\t/// @dev Match two order. Only authorized msg.sender accepted\n\t/// @param exchangeAddress Exchange smartcontract address\n\t/// @param leftOrderAddresses First order's makerAddress, takerAddress, feeRecipientAddress, senderAddress\n\t/// @param leftOrderValues First order's makerAssetAmount, takerAssetAmount, makerFee, takerFee, expirationTimeSeconds, salt\n\t/// @param leftOrderDatas First order's makerAssetData, takerAssetData\n\t/// @param rightOrderAddresses Second order's makerAddress, takerAddress, feeRecipientAddress, senderAddress\n\t/// @param rightOrderValues Second order's makerAssetAmount, takerAssetAmount, makerFee, takerFee, expirationTimeSeconds, salt\n\t/// @param rightOrderDatas Second order's makerAssetData, takerAssetData\n\t/// @param leftSignature Proof that order was created by the left maker.\n  /// @param rightSignature Proof that order was created by the right maker.\n\tfunction matchOrders(\n\t\taddress exchangeAddress,\n\t\taddress[4] leftOrderAddresses,\n\t\tuint256[6] leftOrderValues, \n\t\tbytes[2] leftOrderDatas, \n\t\taddress[4] rightOrderAddresses, \n\t\tuint256[6] rightOrderValues, \n\t\tbytes[2] rightOrderDatas, \n\t\tbytes memory leftSignature,\n\t\tbytes memory rightSignature\n  ) public {\n\t\tOrder memory leftOrder = Order(\n\t\t\tleftOrderAddresses[0],\n\t\t\tleftOrderAddresses[1],\n\t\t\tleftOrderAddresses[2],\n\t\t\tleftOrderAddresses[3],\n\t\t\tleftOrderValues[0],\n\t\t\tleftOrderValues[1],\n\t\t\tleftOrderValues[2],\n\t\t\tleftOrderValues[3],\n\t\t\tleftOrderValues[4],\n\t\t\tleftOrderValues[5],\n\t\t\tleftOrderDatas[0],\n\t\t\tleftOrderDatas[1]\n\t\t);\n\n\t\tOrder memory rightOrder = Order(\n\t\t\trightOrderAddresses[0],\n\t\t\trightOrderAddresses[1],\n\t\t\trightOrderAddresses[2],\n\t\t\trightOrderAddresses[3],\n\t\t\trightOrderValues[0],\n\t\t\trightOrderValues[1],\n\t\t\trightOrderValues[2],\n\t\t\trightOrderValues[3],\n\t\t\trightOrderValues[4],\n\t\t\trightOrderValues[5],\n\t\t\trightOrderDatas[0],\n\t\t\trightOrderDatas[1]\n\t\t);\n\t\tstring memory functionSignature = \"matchOrders((address,address,address,address,uint256,uint256,uint256,uint256,uint256,uint256,bytes,bytes),(address,address,address,address,uint256,uint256,uint256,uint256,uint256,uint256,bytes,bytes),bytes,bytes)\";\n\t\tbytes memory encodedDatas = abi.encodeWithSelector(bytes4(keccak256(functionSignature)), leftOrder,rightOrder,leftSignature,rightSignature);\n\t\trequire(exchangeAddress.call(encodedDatas));\n\t}\n}",
  "sourcePath": "/Users/duongkhong/Documents/Projects/coincapo/smartcontracts/contracts/CapoProxy.sol",
  "compiler": {
    "name": "solc",
    "version": "0.4.24+commit.e67f0147.Emscripten.clang"
  },
  "schemaVersion": "2.0.1",
  "updatedAt": "2019-02-27T13:24:57.424Z"
}