{
  "contractName": "ERC20_Compatible",
  "abi": [
    {
      "anonymous": false,
      "inputs": [
        {
          "indexed": true,
          "name": "_owner",
          "type": "address"
        },
        {
          "indexed": true,
          "name": "_spender",
          "type": "address"
        },
        {
          "indexed": false,
          "name": "_value",
          "type": "uint256"
        }
      ],
      "name": "Approval",
      "type": "event"
    },
    {
      "constant": false,
      "inputs": [
        {
          "name": "_from",
          "type": "address"
        },
        {
          "name": "_to",
          "type": "address"
        },
        {
          "name": "_value",
          "type": "uint256"
        }
      ],
      "name": "transferFrom",
      "outputs": [
        {
          "name": "success",
          "type": "bool"
        }
      ],
      "payable": false,
      "stateMutability": "nonpayable",
      "type": "function"
    },
    {
      "constant": false,
      "inputs": [
        {
          "name": "_spender",
          "type": "address"
        },
        {
          "name": "_value",
          "type": "uint256"
        }
      ],
      "name": "approve",
      "outputs": [
        {
          "name": "success",
          "type": "bool"
        }
      ],
      "payable": false,
      "stateMutability": "nonpayable",
      "type": "function"
    },
    {
      "constant": true,
      "inputs": [
        {
          "name": "_owner",
          "type": "address"
        },
        {
          "name": "_spender",
          "type": "address"
        }
      ],
      "name": "allowance",
      "outputs": [
        {
          "name": "remaining",
          "type": "uint256"
        }
      ],
      "payable": false,
      "stateMutability": "view",
      "type": "function"
    }
  ],
  "bytecode": "0x608060405234801561001057600080fd5b50610202806100206000396000f300608060405260043610610057576000357c0100000000000000000000000000000000000000000000000000000000900463ffffffff168063095ea7b31461005c57806323b872dd146100c1578063dd62ed3e14610146575b600080fd5b34801561006857600080fd5b506100a7600480360381019080803573ffffffffffffffffffffffffffffffffffffffff169060200190929190803590602001909291905050506101bd565b604051808215151515815260200191505060405180910390f35b3480156100cd57600080fd5b5061012c600480360381019080803573ffffffffffffffffffffffffffffffffffffffff169060200190929190803573ffffffffffffffffffffffffffffffffffffffff169060200190929190803590602001909291905050506101c5565b604051808215151515815260200191505060405180910390f35b34801561015257600080fd5b506101a7600480360381019080803573ffffffffffffffffffffffffffffffffffffffff169060200190929190803573ffffffffffffffffffffffffffffffffffffffff1690602001909291905050506101ce565b6040518082815260200191505060405180910390f35b600092915050565b60009392505050565b6000929150505600a165627a7a72305820814ac405b2f0e288a165d69fb982c2222f1cce01e196550756db7a53db4a4ae50029",
  "source": "pragma solidity ^0.4.9;\n\n/*ERC20 compatible interface*/\n\ncontract ERC20_Compatible {\n\t\n\t/// @notice send `_value` token to `_to` from `_from` on the condition it is approved by `_from`\n    /// @param _from The address of the sender\n    /// @param _to The address of the recipient\n    /// @param _value The amount of token to be transferred\n    /// @return Whether the transfer was successful or not\n    function transferFrom(address _from, address _to, uint _value) returns (bool success) {}\n\n    /// @notice `msg.sender` approves `_addr` to spend `_value` tokens\n    /// @param _spender The address of the account able to transfer the tokens\n    /// @param _value The amount of wei to be approved for transfer\n    /// @return Whether the approval was successful or not\n    function approve(address _spender, uint _value) returns (bool success) {}\n\n    /// @param _owner The address of the account owning tokens\n    /// @param _spender The address of the account able to transfer the tokens\n    /// @return Amount of remaining tokens allowed to spent\n    function allowance(address _owner, address _spender) constant returns (uint remaining) {}\n\n    event Approval(address indexed _owner, address indexed _spender, uint _value);\n}",
  "sourcePath": "/Users/duongkhong/Documents/Projects/coincapo/smartcontracts/contracts/Token/ERC20_Compatible.sol",
  "compiler": {
    "name": "solc",
    "version": "0.4.24+commit.e67f0147.Emscripten.clang"
  },
  "schemaVersion": "2.0.0",
  "updatedAt": "2018-06-20T08:17:10.990Z"
}